{"abi":[{"type":"constructor","inputs":[],"stateMutability":"nonpayable"},{"type":"fallback","stateMutability":"payable"},{"type":"receive","stateMutability":"payable"},{"type":"function","name":"ADMIN_ROLE","inputs":[],"outputs":[{"name":"","type":"bytes32","internalType":"bytes32"}],"stateMutability":"view"},{"type":"function","name":"DEFAULT_ADMIN_ROLE","inputs":[],"outputs":[{"name":"","type":"bytes32","internalType":"bytes32"}],"stateMutability":"view"},{"type":"function","name":"PAUSER_ROLE","inputs":[],"outputs":[{"name":"","type":"bytes32","internalType":"bytes32"}],"stateMutability":"view"},{"type":"function","name":"RELAYER_ROLE","inputs":[],"outputs":[{"name":"","type":"bytes32","internalType":"bytes32"}],"stateMutability":"view"},{"type":"function","name":"burnWrappedForReturn","inputs":[{"name":"wrappedToken","type":"address","internalType":"address"},{"name":"targetToken","type":"address","internalType":"address"},{"name":"amount","type":"uint256","internalType":"uint256"},{"name":"targetChainId","type":"uint256","internalType":"uint256"},{"name":"nonce","type":"uint256","internalType":"uint256"}],"outputs":[],"stateMutability":"nonpayable"},{"type":"function","name":"claimOriginalWithSignature","inputs":[{"name":"user","type":"address","internalType":"address"},{"name":"token","type":"address","internalType":"address"},{"name":"amount","type":"uint256","internalType":"uint256"},{"name":"nonce","type":"uint256","internalType":"uint256"},{"name":"sourceChainId","type":"uint256","internalType":"uint256"},{"name":"signature","type":"bytes","internalType":"bytes"}],"outputs":[],"stateMutability":"nonpayable"},{"type":"function","name":"claimWrappedWithSignature","inputs":[{"name":"user","type":"address","internalType":"address"},{"name":"token","type":"address","internalType":"address"},{"name":"amount","type":"uint256","internalType":"uint256"},{"name":"nonce","type":"uint256","internalType":"uint256"},{"name":"sourceChainId","type":"uint256","internalType":"uint256"},{"name":"signature","type":"bytes","internalType":"bytes"}],"outputs":[],"stateMutability":"nonpayable"},{"type":"function","name":"currentChainId","inputs":[],"outputs":[{"name":"","type":"uint256","internalType":"uint256"}],"stateMutability":"view"},{"type":"function","name":"emergencyWithdrawETH","inputs":[{"name":"to","type":"address","internalType":"address"},{"name":"amount","type":"uint256","internalType":"uint256"}],"outputs":[],"stateMutability":"nonpayable"},{"type":"function","name":"getRoleAdmin","inputs":[{"name":"role","type":"bytes32","internalType":"bytes32"}],"outputs":[{"name":"","type":"bytes32","internalType":"bytes32"}],"stateMutability":"view"},{"type":"function","name":"grantPauserRole","inputs":[{"name":"account","type":"address","internalType":"address"}],"outputs":[],"stateMutability":"nonpayable"},{"type":"function","name":"grantRelayerRole","inputs":[{"name":"account","type":"address","internalType":"address"}],"outputs":[],"stateMutability":"nonpayable"},{"type":"function","name":"grantRole","inputs":[{"name":"role","type":"bytes32","internalType":"bytes32"},{"name":"account","type":"address","internalType":"address"}],"outputs":[],"stateMutability":"nonpayable"},{"type":"function","name":"hasRole","inputs":[{"name":"role","type":"bytes32","internalType":"bytes32"},{"name":"account","type":"address","internalType":"address"}],"outputs":[{"name":"","type":"bool","internalType":"bool"}],"stateMutability":"view"},{"type":"function","name":"lockNative","inputs":[{"name":"targetChainId","type":"uint256","internalType":"uint256"},{"name":"nonce","type":"uint256","internalType":"uint256"}],"outputs":[],"stateMutability":"payable"},{"type":"function","name":"lockToken","inputs":[{"name":"token","type":"address","internalType":"address"},{"name":"amount","type":"uint256","internalType":"uint256"},{"name":"targetChainId","type":"uint256","internalType":"uint256"},{"name":"nonce","type":"uint256","internalType":"uint256"}],"outputs":[],"stateMutability":"nonpayable"},{"type":"function","name":"lockTokenWithPermit","inputs":[{"name":"token","type":"address","internalType":"address"},{"name":"amount","type":"uint256","internalType":"uint256"},{"name":"targetChainId","type":"uint256","internalType":"uint256"},{"name":"nonce","type":"uint256","internalType":"uint256"},{"name":"deadline","type":"uint256","internalType":"uint256"},{"name":"v","type":"uint8","internalType":"uint8"},{"name":"r","type":"bytes32","internalType":"bytes32"},{"name":"s","type":"bytes32","internalType":"bytes32"}],"outputs":[],"stateMutability":"nonpayable"},{"type":"function","name":"originalTokens","inputs":[{"name":"","type":"address","internalType":"address"}],"outputs":[{"name":"","type":"address","internalType":"address"}],"stateMutability":"view"},{"type":"function","name":"pause","inputs":[],"outputs":[],"stateMutability":"nonpayable"},{"type":"function","name":"paused","inputs":[],"outputs":[{"name":"","type":"bool","internalType":"bool"}],"stateMutability":"view"},{"type":"function","name":"registerWrappedToken","inputs":[{"name":"originalToken","type":"address","internalType":"address"},{"name":"wrappedToken","type":"address","internalType":"address"}],"outputs":[],"stateMutability":"nonpayable"},{"type":"function","name":"renounceRole","inputs":[{"name":"role","type":"bytes32","internalType":"bytes32"},{"name":"callerConfirmation","type":"address","internalType":"address"}],"outputs":[],"stateMutability":"nonpayable"},{"type":"function","name":"revokePauserRole","inputs":[{"name":"account","type":"address","internalType":"address"}],"outputs":[],"stateMutability":"nonpayable"},{"type":"function","name":"revokeRelayerRole","inputs":[{"name":"account","type":"address","internalType":"address"}],"outputs":[],"stateMutability":"nonpayable"},{"type":"function","name":"revokeRole","inputs":[{"name":"role","type":"bytes32","internalType":"bytes32"},{"name":"account","type":"address","internalType":"address"}],"outputs":[],"stateMutability":"nonpayable"},{"type":"function","name":"supportsInterface","inputs":[{"name":"interfaceId","type":"bytes4","internalType":"bytes4"}],"outputs":[{"name":"","type":"bool","internalType":"bool"}],"stateMutability":"view"},{"type":"function","name":"unpause","inputs":[],"outputs":[],"stateMutability":"nonpayable"},{"type":"function","name":"usedNonces","inputs":[{"name":"","type":"address","internalType":"address"},{"name":"","type":"uint256","internalType":"uint256"},{"name":"","type":"uint256","internalType":"uint256"}],"outputs":[{"name":"","type":"bool","internalType":"bool"}],"stateMutability":"view"},{"type":"function","name":"wrappedTokens","inputs":[{"name":"","type":"address","internalType":"address"}],"outputs":[{"name":"","type":"address","internalType":"address"}],"stateMutability":"view"},{"type":"event","name":"EmergencyETHWithdrawal","inputs":[{"name":"to","type":"address","indexed":true,"internalType":"address"},{"name":"amount","type":"uint256","indexed":false,"internalType":"uint256"}],"anonymous":false},{"type":"event","name":"NativeClaimed","inputs":[{"name":"user","type":"address","indexed":true,"internalType":"address"},{"name":"amount","type":"uint256","indexed":false,"internalType":"uint256"},{"name":"txHash","type":"bytes32","indexed":true,"internalType":"bytes32"}],"anonymous":false},{"type":"event","name":"NativeLocked","inputs":[{"name":"user","type":"address","indexed":true,"internalType":"address"},{"name":"amount","type":"uint256","indexed":false,"internalType":"uint256"},{"name":"targetChainId","type":"uint256","indexed":false,"internalType":"uint256"},{"name":"nonce","type":"uint256","indexed":false,"internalType":"uint256"}],"anonymous":false},{"type":"event","name":"NativeReleased","inputs":[{"name":"user","type":"address","indexed":true,"internalType":"address"},{"name":"amount","type":"uint256","indexed":false,"internalType":"uint256"}],"anonymous":false},{"type":"event","name":"Paused","inputs":[{"name":"account","type":"address","indexed":false,"internalType":"address"}],"anonymous":false},{"type":"event","name":"RoleAdminChanged","inputs":[{"name":"role","type":"bytes32","indexed":true,"internalType":"bytes32"},{"name":"previousAdminRole","type":"bytes32","indexed":true,"internalType":"bytes32"},{"name":"newAdminRole","type":"bytes32","indexed":true,"internalType":"bytes32"}],"anonymous":false},{"type":"event","name":"RoleGranted","inputs":[{"name":"role","type":"bytes32","indexed":true,"internalType":"bytes32"},{"name":"account","type":"address","indexed":true,"internalType":"address"},{"name":"sender","type":"address","indexed":true,"internalType":"address"}],"anonymous":false},{"type":"event","name":"RoleRevoked","inputs":[{"name":"role","type":"bytes32","indexed":true,"internalType":"bytes32"},{"name":"account","type":"address","indexed":true,"internalType":"address"},{"name":"sender","type":"address","indexed":true,"internalType":"address"}],"anonymous":false},{"type":"event","name":"TokenBurned","inputs":[{"name":"user","type":"address","indexed":true,"internalType":"address"},{"name":"wrappedToken","type":"address","indexed":true,"internalType":"address"},{"name":"amount","type":"uint256","indexed":false,"internalType":"uint256"},{"name":"targetChainId","type":"uint256","indexed":false,"internalType":"uint256"},{"name":"nonce","type":"uint256","indexed":false,"internalType":"uint256"}],"anonymous":false},{"type":"event","name":"TokenClaimed","inputs":[{"name":"user","type":"address","indexed":true,"internalType":"address"},{"name":"token","type":"address","indexed":true,"internalType":"address"},{"name":"amount","type":"uint256","indexed":false,"internalType":"uint256"},{"name":"txHash","type":"bytes32","indexed":true,"internalType":"bytes32"}],"anonymous":false},{"type":"event","name":"TokenLocked","inputs":[{"name":"user","type":"address","indexed":true,"internalType":"address"},{"name":"token","type":"address","indexed":true,"internalType":"address"},{"name":"amount","type":"uint256","indexed":false,"internalType":"uint256"},{"name":"targetChainId","type":"uint256","indexed":false,"internalType":"uint256"},{"name":"nonce","type":"uint256","indexed":false,"internalType":"uint256"}],"anonymous":false},{"type":"event","name":"TokenReleased","inputs":[{"name":"user","type":"address","indexed":true,"internalType":"address"},{"name":"token","type":"address","indexed":true,"internalType":"address"},{"name":"amount","type":"uint256","indexed":false,"internalType":"uint256"}],"anonymous":false},{"type":"event","name":"Unpaused","inputs":[{"name":"account","type":"address","indexed":false,"internalType":"address"}],"anonymous":false},{"type":"event","name":"WrappedTokenRegistered","inputs":[{"name":"originalToken","type":"address","indexed":true,"internalType":"address"},{"name":"wrappedToken","type":"address","indexed":true,"internalType":"address"}],"anonymous":false},{"type":"error","name":"AccessControlBadConfirmation","inputs":[]},{"type":"error","name":"AccessControlUnauthorizedAccount","inputs":[{"name":"account","type":"address","internalType":"address"},{"name":"neededRole","type":"bytes32","internalType":"bytes32"}]},{"type":"error","name":"CallerIsNotAdmin","inputs":[]},{"type":"error","name":"CallerIsNotPauser","inputs":[]},{"type":"error","name":"ClaimAlreadyProcessed","inputs":[]},{"type":"error","name":"DirectEthTransfersNotSupported","inputs":[]},{"type":"error","name":"ECDSAInvalidSignature","inputs":[]},{"type":"error","name":"ECDSAInvalidSignatureLength","inputs":[{"name":"length","type":"uint256","internalType":"uint256"}]},{"type":"error","name":"ECDSAInvalidSignatureS","inputs":[{"name":"s","type":"bytes32","internalType":"bytes32"}]},{"type":"error","name":"EmptyTargetChain","inputs":[]},{"type":"error","name":"EnforcedPause","inputs":[]},{"type":"error","name":"EthTransferFailed","inputs":[]},{"type":"error","name":"ExpectedPause","inputs":[]},{"type":"error","name":"InvalidSignature","inputs":[]},{"type":"error","name":"InvalidTargetChain","inputs":[]},{"type":"error","name":"OriginalTokenAlreadyRegistered","inputs":[]},{"type":"error","name":"ReentrancyGuardReentrantCall","inputs":[]},{"type":"error","name":"TokenTransferFailed","inputs":[]},{"type":"error","name":"UnregisteredWrappedToken","inputs":[]},{"type":"error","name":"WrappedTokenAlreadyRegistered","inputs":[]},{"type":"error","name":"ZeroAddressProvided","inputs":[]},{"type":"error","name":"ZeroAmountNotAllowed","inputs":[]}],"bytecode":{"object":"0x60a060405234801561000f575f5ffd5b506001808190555046608081815250505f3390506100355f5f1b826100ee60201b60201c565b506100667fa49807205ce4d355092ef5a8a18f56e8913cf4a201fbe287825b095693c21775826100ee60201b60201c565b506100977f65d7a28e3265b37a6474929f336521b332c1681b933f6cb9f3376673440d862a826100ee60201b60201c565b506100e87f65d7a28e3265b37a6474929f336521b332c1681b933f6cb9f3376673440d862a7fa49807205ce4d355092ef5a8a18f56e8913cf4a201fbe287825b095693c217756101e360201b60201c565b506102c7565b5f6100ff838361024160201b60201c565b6101d95760015f5f8581526020019081526020015f205f015f8473ffffffffffffffffffffffffffffffffffffffff1673ffffffffffffffffffffffffffffffffffffffff1681526020019081526020015f205f6101000a81548160ff0219169083151502179055506101766102a460201b60201c565b73ffffffffffffffffffffffffffffffffffffffff168273ffffffffffffffffffffffffffffffffffffffff16847f2f8788117e7eff1d82e926ec794901d17c78024a50270940304540a733656f0d60405160405180910390a4600190506101dd565b5f90505b92915050565b5f6101f3836102ab60201b60201c565b9050815f5f8581526020019081526020015f20600101819055508181847fbd79b86ffe0ab8e8776151514217cd7cacd52c909f66475c3af44e129f0b00ff60405160405180910390a4505050565b5f5f5f8481526020019081526020015f205f015f8373ffffffffffffffffffffffffffffffffffffffff1673ffffffffffffffffffffffffffffffffffffffff1681526020019081526020015f205f9054906101000a900460ff16905092915050565b5f33905090565b5f5f5f8381526020019081526020015f20600101549050919050565b60805161365b6102df5f395f61106e015261365b5ff3fe6080604052600436106101c5575f3560e01c80638456cb59116100f6578063b68d7a0a11610094578063dc56c39011610063578063dc56c39014610654578063e63ab1e91461067c578063f74032f0146106a6578063f865af08146106e2576101fc565b8063b68d7a0a146105a0578063d547741f146105c8578063d5c6b504146105f0578063d79e85671461062c576101fc565b80639285be46116100d05780639285be46146104f6578063a217fddf14610512578063a59e10e61461053c578063b4ad277314610578576101fc565b80638456cb591461047a57806391d1485414610490578063926d7d7f146104cc576101fc565b80633f4ba83a116101635780636c32461d1161013d5780636c32461d146103d65780636cbadbfa146103fe57806375b238fc146104285780637ac857b514610452576101fc565b80633f4ba83a1461036e5780635c975abb146103845780636c11c21c146103ae576101fc565b8063248a9ca31161019f578063248a9ca3146102ba5780632f2ff15d146102f657806336568abe1461031e5780633aa8914014610346576101fc565b806301ffc9a71461022e578063142b7b371461026a5780631e0af67e14610292576101fc565b366101fc576040517f94e44f7600000000000000000000000000000000000000000000000000000000815260040160405180910390fd5b6040517f94e44f7600000000000000000000000000000000000000000000000000000000815260040160405180910390fd5b348015610239575f5ffd5b50610254600480360381019061024f9190612cdc565b61070a565b6040516102619190612d21565b60405180910390f35b348015610275575f5ffd5b50610290600480360381019061028b9190612d94565b610783565b005b34801561029d575f5ffd5b506102b860048036038101906102b39190612d94565b610875565b005b3480156102c5575f5ffd5b506102e060048036038101906102db9190612df2565b610967565b6040516102ed9190612e2c565b60405180910390f35b348015610301575f5ffd5b5061031c60048036038101906103179190612e45565b610983565b005b348015610329575f5ffd5b50610344600480360381019061033f9190612e45565b6109a5565b005b348015610351575f5ffd5b5061036c60048036038101906103679190612eec565b610a20565b005b348015610379575f5ffd5b50610382610cac565b005b34801561038f575f5ffd5b50610398610d16565b6040516103a59190612d21565b60405180910390f35b3480156103b9575f5ffd5b506103d460048036038101906103cf9190612d94565b610d2b565b005b3480156103e1575f5ffd5b506103fc60048036038101906103f79190612f9d565b610e1d565b005b348015610409575f5ffd5b5061041261106c565b60405161041f9190613010565b60405180910390f35b348015610433575f5ffd5b5061043c611090565b6040516104499190612e2c565b60405180910390f35b34801561045d575f5ffd5b506104786004803603810190610473919061308a565b6110b4565b005b348015610485575f5ffd5b5061048e611486565b005b34801561049b575f5ffd5b506104b660048036038101906104b19190612e45565b6114f0565b6040516104c39190612d21565b60405180910390f35b3480156104d7575f5ffd5b506104e0611553565b6040516104ed9190612e2c565b60405180910390f35b610510600480360381019061050b9190613134565b611577565b005b34801561051d575f5ffd5b50610526611680565b6040516105339190612e2c565b60405180910390f35b348015610547575f5ffd5b50610562600480360381019061055d9190613172565b611686565b60405161056f9190612d21565b60405180910390f35b348015610583575f5ffd5b5061059e600480360381019061059991906131c2565b6116bb565b005b3480156105ab575f5ffd5b506105c660048036038101906105c1919061308a565b611931565b005b3480156105d3575f5ffd5b506105ee60048036038101906105e99190612e45565b611da8565b005b3480156105fb575f5ffd5b5061061660048036038101906106119190612d94565b611dca565b6040516106239190613248565b60405180910390f35b348015610637575f5ffd5b50610652600480360381019061064d9190613261565b611dfa565b005b34801561065f575f5ffd5b5061067a6004803603810190610675919061329f565b611f8e565b005b348015610687575f5ffd5b50610690612360565b60405161069d9190612e2c565b60405180910390f35b3480156106b1575f5ffd5b506106cc60048036038101906106c79190612d94565b612384565b6040516106d99190613248565b60405180910390f35b3480156106ed575f5ffd5b5061070860048036038101906107039190612d94565b6123b4565b005b5f7f7965db0b000000000000000000000000000000000000000000000000000000007bffffffffffffffffffffffffffffffffffffffffffffffffffffffff1916827bffffffffffffffffffffffffffffffffffffffffffffffffffffffff1916148061077c575061077b826124a6565b5b9050919050565b6107ad7fa49807205ce4d355092ef5a8a18f56e8913cf4a201fbe287825b095693c21775336114f0565b6107e3576040517f8dfa73db00000000000000000000000000000000000000000000000000000000815260040160405180910390fd5b5f73ffffffffffffffffffffffffffffffffffffffff168173ffffffffffffffffffffffffffffffffffffffff1603610848576040517f8474420100000000000000000000000000000000000000000000000000000000815260040160405180910390fd5b6108727fe2b7fb3b832174769106daebcfd6d1970523240dda11281102db9363b83b0dc482611da8565b50565b61089f7fa49807205ce4d355092ef5a8a18f56e8913cf4a201fbe287825b095693c21775336114f0565b6108d5576040517f8dfa73db00000000000000000000000000000000000000000000000000000000815260040160405180910390fd5b5f73ffffffffffffffffffffffffffffffffffffffff168173ffffffffffffffffffffffffffffffffffffffff160361093a576040517f8474420100000000000000000000000000000000000000000000000000000000815260040160405180910390fd5b6109647fe2b7fb3b832174769106daebcfd6d1970523240dda11281102db9363b83b0dc482610983565b50565b5f5f5f8381526020019081526020015f20600101549050919050565b61098c82610967565b6109958161250f565b61099f8383612523565b50505050565b6109ad61260c565b73ffffffffffffffffffffffffffffffffffffffff168173ffffffffffffffffffffffffffffffffffffffff1614610a11576040517f6697b23200000000000000000000000000000000000000000000000000000000815260040160405180910390fd5b610a1b8282612613565b505050565b610a286126fc565b610a3061273d565b5f73ffffffffffffffffffffffffffffffffffffffff168873ffffffffffffffffffffffffffffffffffffffff1603610a95576040517f8474420100000000000000000000000000000000000000000000000000000000815260040160405180910390fd5b5f8703610ace576040517f0f43956a00000000000000000000000000000000000000000000000000000000815260040160405180910390fd5b5f8603610b07576040517f6c0a76fa00000000000000000000000000000000000000000000000000000000815260040160405180910390fd5b8773ffffffffffffffffffffffffffffffffffffffff1663d505accf33308a888888886040518863ffffffff1660e01b8152600401610b4c97969594939291906132ec565b5f604051808303815f87803b158015610b63575f5ffd5b505af1158015610b75573d5f5f3e3d5ffd5b505050505f8873ffffffffffffffffffffffffffffffffffffffff166323b872dd33308b6040518463ffffffff1660e01b8152600401610bb793929190613359565b6020604051808303815f875af1158015610bd3573d5f5f3e3d5ffd5b505050506040513d601f19601f82011682018060405250810190610bf791906133b8565b905080610c30576040517f045c4b0200000000000000000000000000000000000000000000000000000000815260040160405180910390fd5b8873ffffffffffffffffffffffffffffffffffffffff163373ffffffffffffffffffffffffffffffffffffffff167f6edd85519fe7bf8ae3e7c89e6378ac3a3a4c787c65e56793bf70c12fafffb1588a8a8a604051610c91939291906133e3565b60405180910390a350610ca2612783565b5050505050505050565b610cd67f65d7a28e3265b37a6474929f336521b332c1681b933f6cb9f3376673440d862a336114f0565b610d0c576040517fdaeefd6500000000000000000000000000000000000000000000000000000000815260040160405180910390fd5b610d1461278c565b565b5f60025f9054906101000a900460ff16905090565b610d557fa49807205ce4d355092ef5a8a18f56e8913cf4a201fbe287825b095693c21775336114f0565b610d8b576040517f8dfa73db00000000000000000000000000000000000000000000000000000000815260040160405180910390fd5b5f73ffffffffffffffffffffffffffffffffffffffff168173ffffffffffffffffffffffffffffffffffffffff1603610df0576040517f8474420100000000000000000000000000000000000000000000000000000000815260040160405180910390fd5b610e1a7f65d7a28e3265b37a6474929f336521b332c1681b933f6cb9f3376673440d862a82610983565b50565b610e256126fc565b610e2d61273d565b5f73ffffffffffffffffffffffffffffffffffffffff168473ffffffffffffffffffffffffffffffffffffffff1603610e92576040517f8474420100000000000000000000000000000000000000000000000000000000815260040160405180910390fd5b5f8303610ecb576040517f0f43956a00000000000000000000000000000000000000000000000000000000815260040160405180910390fd5b5f8203610f04576040517f6c0a76fa00000000000000000000000000000000000000000000000000000000815260040160405180910390fd5b468203610f3d576040517f376f6e4a00000000000000000000000000000000000000000000000000000000815260040160405180910390fd5b5f8473ffffffffffffffffffffffffffffffffffffffff166323b872dd3330876040518463ffffffff1660e01b8152600401610f7b93929190613359565b6020604051808303815f875af1158015610f97573d5f5f3e3d5ffd5b505050506040513d601f19601f82011682018060405250810190610fbb91906133b8565b905080610ff4576040517f045c4b0200000000000000000000000000000000000000000000000000000000815260040160405180910390fd5b8473ffffffffffffffffffffffffffffffffffffffff163373ffffffffffffffffffffffffffffffffffffffff167f6edd85519fe7bf8ae3e7c89e6378ac3a3a4c787c65e56793bf70c12fafffb158868686604051611055939291906133e3565b60405180910390a350611066612783565b50505050565b7f000000000000000000000000000000000000000000000000000000000000000081565b7fa49807205ce4d355092ef5a8a18f56e8913cf4a201fbe287825b095693c2177581565b6110bc61273d565b6110c46126fc565b60055f8873ffffffffffffffffffffffffffffffffffffffff1673ffffffffffffffffffffffffffffffffffffffff1681526020019081526020015f205f8581526020019081526020015f205f8481526020019081526020015f205f9054906101000a900460ff1615611163576040517f4b34e6d900000000000000000000000000000000000000000000000000000000815260040160405180910390fd5b5f87878787873060405160200161117f9695949392919061347d565b6040516020818303038152906040528051906020012090505f6111a1826127ed565b90505f6111f18286868080601f0160208091040260200160405190810160405280939291908181526020018383808284375f81840152601f19601f82011690508083019250505050505050612820565b905061121d7fe2b7fb3b832174769106daebcfd6d1970523240dda11281102db9363b83b0dc4826114f0565b611253576040517f8baa579f00000000000000000000000000000000000000000000000000000000815260040160405180910390fd5b600160055f8c73ffffffffffffffffffffffffffffffffffffffff1673ffffffffffffffffffffffffffffffffffffffff1681526020019081526020015f205f8981526020019081526020015f205f8881526020019081526020015f205f6101000a81548160ff0219169083151502179055505f73ffffffffffffffffffffffffffffffffffffffff168973ffffffffffffffffffffffffffffffffffffffff1603611356576113038a8961284a565b8973ffffffffffffffffffffffffffffffffffffffff167f83e746f734bb21d4015d4a7c1b5c280bc3e9cf3c7d6f5ab7772bf00804f3529a896040516113499190613010565b60405180910390a2611472565b5f8973ffffffffffffffffffffffffffffffffffffffff1663a9059cbb8c8b6040518363ffffffff1660e01b81526004016113929291906134ec565b6020604051808303815f875af11580156113ae573d5f5f3e3d5ffd5b505050506040513d601f19601f820116820180604052508101906113d291906133b8565b90508061140b576040517f045c4b0200000000000000000000000000000000000000000000000000000000815260040160405180910390fd5b8973ffffffffffffffffffffffffffffffffffffffff168b73ffffffffffffffffffffffffffffffffffffffff167fa5fa891a402945a5916b3b11763e3446525ced0e1d55a45cb3d3024f22ce44868b6040516114689190613010565b60405180910390a3505b50505061147d612783565b50505050505050565b6114b07f65d7a28e3265b37a6474929f336521b332c1681b933f6cb9f3376673440d862a336114f0565b6114e6576040517fdaeefd6500000000000000000000000000000000000000000000000000000000815260040160405180910390fd5b6114ee6128ee565b565b5f5f5f8481526020019081526020015f205f015f8373ffffffffffffffffffffffffffffffffffffffff1673ffffffffffffffffffffffffffffffffffffffff1681526020019081526020015f205f9054906101000a900460ff16905092915050565b7fe2b7fb3b832174769106daebcfd6d1970523240dda11281102db9363b83b0dc481565b61157f6126fc565b5f82036115b8576040517f6c0a76fa00000000000000000000000000000000000000000000000000000000815260040160405180910390fd5b5f34036115f1576040517f0f43956a00000000000000000000000000000000000000000000000000000000815260040160405180910390fd5b46820361162a576040517f376f6e4a00000000000000000000000000000000000000000000000000000000815260040160405180910390fd5b3373ffffffffffffffffffffffffffffffffffffffff167fc42ad39b6a401a299e78bb3955a8e231dde84876e4129dbe3cbeae53aab6a717348484604051611674939291906133e3565b60405180910390a25050565b5f5f1b81565b6005602052825f5260405f20602052815f5260405f20602052805f5260405f205f92509250509054906101000a900460ff1681565b6116c36126fc565b5f73ffffffffffffffffffffffffffffffffffffffff168573ffffffffffffffffffffffffffffffffffffffff16148061172857505f73ffffffffffffffffffffffffffffffffffffffff168473ffffffffffffffffffffffffffffffffffffffff16145b1561175f576040517f8474420100000000000000000000000000000000000000000000000000000000815260040160405180910390fd5b5f8303611798576040517f0f43956a00000000000000000000000000000000000000000000000000000000815260040160405180910390fd5b8373ffffffffffffffffffffffffffffffffffffffff1660045f8773ffffffffffffffffffffffffffffffffffffffff1673ffffffffffffffffffffffffffffffffffffffff1681526020019081526020015f205f9054906101000a900473ffffffffffffffffffffffffffffffffffffffff1673ffffffffffffffffffffffffffffffffffffffff1614611859576040517f8a317ac500000000000000000000000000000000000000000000000000000000815260040160405180910390fd5b8473ffffffffffffffffffffffffffffffffffffffff166374f4f54733856040518363ffffffff1660e01b81526004016118949291906134ec565b5f604051808303815f87803b1580156118ab575f5ffd5b505af11580156118bd573d5f5f3e3d5ffd5b505050508473ffffffffffffffffffffffffffffffffffffffff163373ffffffffffffffffffffffffffffffffffffffff167f4e7e33fed32da85495901f14600268e58dc822c010a665994978ed045a914319858585604051611922939291906133e3565b60405180910390a35050505050565b61193961273d565b6119416126fc565b60055f8873ffffffffffffffffffffffffffffffffffffffff1673ffffffffffffffffffffffffffffffffffffffff1681526020019081526020015f205f8581526020019081526020015f205f8481526020019081526020015f205f9054906101000a900460ff16156119e0576040517f4b34e6d900000000000000000000000000000000000000000000000000000000815260040160405180910390fd5b5f8787878787306040516020016119fc9695949392919061347d565b6040516020818303038152906040528051906020012090505f611a1e826127ed565b90505f611a6e8286868080601f0160208091040260200160405190810160405280939291908181526020018383808284375f81840152601f19601f82011690508083019250505050505050612820565b9050611a9a7fe2b7fb3b832174769106daebcfd6d1970523240dda11281102db9363b83b0dc4826114f0565b611ad0576040517f8baa579f00000000000000000000000000000000000000000000000000000000815260040160405180910390fd5b600160055f8c73ffffffffffffffffffffffffffffffffffffffff1673ffffffffffffffffffffffffffffffffffffffff1681526020019081526020015f205f8981526020019081526020015f205f8881526020019081526020015f205f6101000a81548160ff0219169083151502179055505f83604051602001611b559190613533565b6040516020818303038152906040528051906020012090505f73ffffffffffffffffffffffffffffffffffffffff168a73ffffffffffffffffffffffffffffffffffffffff1603611bfe57611baa8b8a61284a565b808b73ffffffffffffffffffffffffffffffffffffffff167f3d7aa51f14f2e042bc8ca52d9b5c5ac5f7ece8381569260d9f829a00a9528f788b604051611bf19190613010565b60405180910390a3611d93565b5f60035f8c73ffffffffffffffffffffffffffffffffffffffff1673ffffffffffffffffffffffffffffffffffffffff1681526020019081526020015f205f9054906101000a900473ffffffffffffffffffffffffffffffffffffffff1690505f73ffffffffffffffffffffffffffffffffffffffff168173ffffffffffffffffffffffffffffffffffffffff1603611cc3576040517f8a317ac500000000000000000000000000000000000000000000000000000000815260040160405180910390fd5b8073ffffffffffffffffffffffffffffffffffffffff16638c2a993e8d8c6040518363ffffffff1660e01b8152600401611cfe9291906134ec565b5f604051808303815f87803b158015611d15575f5ffd5b505af1158015611d27573d5f5f3e3d5ffd5b50505050818b73ffffffffffffffffffffffffffffffffffffffff168d73ffffffffffffffffffffffffffffffffffffffff167f5d881ede5d7f070bb0e0cf014b5c64194e40f194221b15fcb4672dd7188481038d604051611d899190613010565b60405180910390a4505b50505050611d9f612783565b50505050505050565b611db182610967565b611dba8161250f565b611dc48383612613565b50505050565b6003602052805f5260405f205f915054906101000a900473ffffffffffffffffffffffffffffffffffffffff1681565b611e247fa49807205ce4d355092ef5a8a18f56e8913cf4a201fbe287825b095693c21775336114f0565b611e5a576040517f8dfa73db00000000000000000000000000000000000000000000000000000000815260040160405180910390fd5b5f73ffffffffffffffffffffffffffffffffffffffff168273ffffffffffffffffffffffffffffffffffffffff1603611ebf576040517f8474420100000000000000000000000000000000000000000000000000000000815260040160405180910390fd5b5f8103611ef8576040517f0f43956a00000000000000000000000000000000000000000000000000000000815260040160405180910390fd5b8173ffffffffffffffffffffffffffffffffffffffff166108fc8290811502906040515f60405180830381858888f19350505050158015611f3b573d5f5f3e3d5ffd5b508173ffffffffffffffffffffffffffffffffffffffff167fe6ca44db0ae7117797e1469efa02ba54a500832387a9f27a78e135a29587b04a82604051611f829190613010565b60405180910390a25050565b611fb87fa49807205ce4d355092ef5a8a18f56e8913cf4a201fbe287825b095693c21775336114f0565b611fee576040517f8dfa73db00000000000000000000000000000000000000000000000000000000815260040160405180910390fd5b5f73ffffffffffffffffffffffffffffffffffffffff168273ffffffffffffffffffffffffffffffffffffffff16148061205357505f73ffffffffffffffffffffffffffffffffffffffff168173ffffffffffffffffffffffffffffffffffffffff16145b1561208a576040517f8474420100000000000000000000000000000000000000000000000000000000815260040160405180910390fd5b5f73ffffffffffffffffffffffffffffffffffffffff1660035f8473ffffffffffffffffffffffffffffffffffffffff1673ffffffffffffffffffffffffffffffffffffffff1681526020019081526020015f205f9054906101000a900473ffffffffffffffffffffffffffffffffffffffff1673ffffffffffffffffffffffffffffffffffffffff161461214b576040517f6ff8116600000000000000000000000000000000000000000000000000000000815260040160405180910390fd5b5f73ffffffffffffffffffffffffffffffffffffffff1660045f8373ffffffffffffffffffffffffffffffffffffffff1673ffffffffffffffffffffffffffffffffffffffff1681526020019081526020015f205f9054906101000a900473ffffffffffffffffffffffffffffffffffffffff1673ffffffffffffffffffffffffffffffffffffffff161461220c576040517f03c3438800000000000000000000000000000000000000000000000000000000815260040160405180910390fd5b8060035f8473ffffffffffffffffffffffffffffffffffffffff1673ffffffffffffffffffffffffffffffffffffffff1681526020019081526020015f205f6101000a81548173ffffffffffffffffffffffffffffffffffffffff021916908373ffffffffffffffffffffffffffffffffffffffff1602179055508160045f8373ffffffffffffffffffffffffffffffffffffffff1673ffffffffffffffffffffffffffffffffffffffff1681526020019081526020015f205f6101000a81548173ffffffffffffffffffffffffffffffffffffffff021916908373ffffffffffffffffffffffffffffffffffffffff1602179055508073ffffffffffffffffffffffffffffffffffffffff168273ffffffffffffffffffffffffffffffffffffffff167f5bf060dcb50af0821f19ba2472b500d3a81db9754a00ffaf5d994932624bfd3b60405160405180910390a35050565b7f65d7a28e3265b37a6474929f336521b332c1681b933f6cb9f3376673440d862a81565b6004602052805f5260405f205f915054906101000a900473ffffffffffffffffffffffffffffffffffffffff1681565b6123de7fa49807205ce4d355092ef5a8a18f56e8913cf4a201fbe287825b095693c21775336114f0565b612414576040517f8dfa73db00000000000000000000000000000000000000000000000000000000815260040160405180910390fd5b5f73ffffffffffffffffffffffffffffffffffffffff168173ffffffffffffffffffffffffffffffffffffffff1603612479576040517f8474420100000000000000000000000000000000000000000000000000000000815260040160405180910390fd5b6124a37f65d7a28e3265b37a6474929f336521b332c1681b933f6cb9f3376673440d862a82611da8565b50565b5f7f01ffc9a7000000000000000000000000000000000000000000000000000000007bffffffffffffffffffffffffffffffffffffffffffffffffffffffff1916827bffffffffffffffffffffffffffffffffffffffffffffffffffffffff1916149050919050565b6125208161251b61260c565b612950565b50565b5f61252e83836114f0565b6126025760015f5f8581526020019081526020015f205f015f8473ffffffffffffffffffffffffffffffffffffffff1673ffffffffffffffffffffffffffffffffffffffff1681526020019081526020015f205f6101000a81548160ff02191690831515021790555061259f61260c565b73ffffffffffffffffffffffffffffffffffffffff168273ffffffffffffffffffffffffffffffffffffffff16847f2f8788117e7eff1d82e926ec794901d17c78024a50270940304540a733656f0d60405160405180910390a460019050612606565b5f90505b92915050565b5f33905090565b5f61261e83836114f0565b156126f2575f5f5f8581526020019081526020015f205f015f8473ffffffffffffffffffffffffffffffffffffffff1673ffffffffffffffffffffffffffffffffffffffff1681526020019081526020015f205f6101000a81548160ff02191690831515021790555061268f61260c565b73ffffffffffffffffffffffffffffffffffffffff168273ffffffffffffffffffffffffffffffffffffffff16847ff6391f5c32d9c69d2a47ea670b442974b53935d1edc7fd64eb21e047a839171b60405160405180910390a4600190506126f6565b5f90505b92915050565b612704610d16565b1561273b576040517fd93c066500000000000000000000000000000000000000000000000000000000815260040160405180910390fd5b565b600260015403612779576040517f3ee5aeb500000000000000000000000000000000000000000000000000000000815260040160405180910390fd5b6002600181905550565b60018081905550565b6127946129a1565b5f60025f6101000a81548160ff0219169083151502179055507f5db9ee0a495bf2e6ff9c91a7834c1ba4fdd244a5e8aa4e537bd38aeae4b073aa6127d661260c565b6040516127e39190613248565b60405180910390a1565b5f7f19457468657265756d205369676e6564204d6573736167653a0a3332000000005f5281601c52603c5f209050919050565b5f5f5f5f61282e86866129e1565b92509250925061283e8282612a36565b82935050505092915050565b5f8273ffffffffffffffffffffffffffffffffffffffff168260405161286f9061357a565b5f6040518083038185875af1925050503d805f81146128a9576040519150601f19603f3d011682016040523d82523d5f602084013e6128ae565b606091505b50509050806128e9576040517f6d963f8800000000000000000000000000000000000000000000000000000000815260040160405180910390fd5b505050565b6128f66126fc565b600160025f6101000a81548160ff0219169083151502179055507f62e78cea01bee320cd4e420270b5ea74000d11b0c9f74754ebdbfc544b05a25861293961260c565b6040516129469190613248565b60405180910390a1565b61295a82826114f0565b61299d5780826040517fe2517d3f00000000000000000000000000000000000000000000000000000000815260040161299492919061358e565b60405180910390fd5b5050565b6129a9610d16565b6129df576040517f8dfc202b00000000000000000000000000000000000000000000000000000000815260040160405180910390fd5b565b5f5f5f6041845103612a21575f5f5f602087015192506040870151915060608701515f1a9050612a1388828585612b98565b955095509550505050612a2f565b5f600285515f1b9250925092505b9250925092565b5f6003811115612a4957612a486135b5565b5b826003811115612a5c57612a5b6135b5565b5b0315612b945760016003811115612a7657612a756135b5565b5b826003811115612a8957612a886135b5565b5b03612ac0576040517ff645eedf00000000000000000000000000000000000000000000000000000000815260040160405180910390fd5b60026003811115612ad457612ad36135b5565b5b826003811115612ae757612ae66135b5565b5b03612b2b57805f1c6040517ffce698f7000000000000000000000000000000000000000000000000000000008152600401612b229190613010565b60405180910390fd5b600380811115612b3e57612b3d6135b5565b5b826003811115612b5157612b506135b5565b5b03612b9357806040517fd78bce0c000000000000000000000000000000000000000000000000000000008152600401612b8a9190612e2c565b60405180910390fd5b5b5050565b5f5f5f7f7fffffffffffffffffffffffffffffff5d576e7357a4501ddfe92f46681b20a0845f1c1115612bd4575f600385925092509250612c75565b5f6001888888886040515f8152602001604052604051612bf794939291906135e2565b6020604051602081039080840390855afa158015612c17573d5f5f3e3d5ffd5b5050506020604051035190505f73ffffffffffffffffffffffffffffffffffffffff168173ffffffffffffffffffffffffffffffffffffffff1603612c68575f60015f5f1b93509350935050612c75565b805f5f5f1b935093509350505b9450945094915050565b5f5ffd5b5f5ffd5b5f7fffffffff0000000000000000000000000000000000000000000000000000000082169050919050565b612cbb81612c87565b8114612cc5575f5ffd5b50565b5f81359050612cd681612cb2565b92915050565b5f60208284031215612cf157612cf0612c7f565b5b5f612cfe84828501612cc8565b91505092915050565b5f8115159050919050565b612d1b81612d07565b82525050565b5f602082019050612d345f830184612d12565b92915050565b5f73ffffffffffffffffffffffffffffffffffffffff82169050919050565b5f612d6382612d3a565b9050919050565b612d7381612d59565b8114612d7d575f5ffd5b50565b5f81359050612d8e81612d6a565b92915050565b5f60208284031215612da957612da8612c7f565b5b5f612db684828501612d80565b91505092915050565b5f819050919050565b612dd181612dbf565b8114612ddb575f5ffd5b50565b5f81359050612dec81612dc8565b92915050565b5f60208284031215612e0757612e06612c7f565b5b5f612e1484828501612dde565b91505092915050565b612e2681612dbf565b82525050565b5f602082019050612e3f5f830184612e1d565b92915050565b5f5f60408385031215612e5b57612e5a612c7f565b5b5f612e6885828601612dde565b9250506020612e7985828601612d80565b9150509250929050565b5f819050919050565b612e9581612e83565b8114612e9f575f5ffd5b50565b5f81359050612eb081612e8c565b92915050565b5f60ff82169050919050565b612ecb81612eb6565b8114612ed5575f5ffd5b50565b5f81359050612ee681612ec2565b92915050565b5f5f5f5f5f5f5f5f610100898b031215612f0957612f08612c7f565b5b5f612f168b828c01612d80565b9850506020612f278b828c01612ea2565b9750506040612f388b828c01612ea2565b9650506060612f498b828c01612ea2565b9550506080612f5a8b828c01612ea2565b94505060a0612f6b8b828c01612ed8565b93505060c0612f7c8b828c01612dde565b92505060e0612f8d8b828c01612dde565b9150509295985092959890939650565b5f5f5f5f60808587031215612fb557612fb4612c7f565b5b5f612fc287828801612d80565b9450506020612fd387828801612ea2565b9350506040612fe487828801612ea2565b9250506060612ff587828801612ea2565b91505092959194509250565b61300a81612e83565b82525050565b5f6020820190506130235f830184613001565b92915050565b5f5ffd5b5f5ffd5b5f5ffd5b5f5f83601f84011261304a57613049613029565b5b8235905067ffffffffffffffff8111156130675761306661302d565b5b60208301915083600182028301111561308357613082613031565b5b9250929050565b5f5f5f5f5f5f5f60c0888a0312156130a5576130a4612c7f565b5b5f6130b28a828b01612d80565b97505060206130c38a828b01612d80565b96505060406130d48a828b01612ea2565b95505060606130e58a828b01612ea2565b94505060806130f68a828b01612ea2565b93505060a088013567ffffffffffffffff81111561311757613116612c83565b5b6131238a828b01613035565b925092505092959891949750929550565b5f5f6040838503121561314a57613149612c7f565b5b5f61315785828601612ea2565b925050602061316885828601612ea2565b9150509250929050565b5f5f5f6060848603121561318957613188612c7f565b5b5f61319686828701612d80565b93505060206131a786828701612ea2565b92505060406131b886828701612ea2565b9150509250925092565b5f5f5f5f5f60a086880312156131db576131da612c7f565b5b5f6131e888828901612d80565b95505060206131f988828901612d80565b945050604061320a88828901612ea2565b935050606061321b88828901612ea2565b925050608061322c88828901612ea2565b9150509295509295909350565b61324281612d59565b82525050565b5f60208201905061325b5f830184613239565b92915050565b5f5f6040838503121561327757613276612c7f565b5b5f61328485828601612d80565b925050602061329585828601612ea2565b9150509250929050565b5f5f604083850312156132b5576132b4612c7f565b5b5f6132c285828601612d80565b92505060206132d385828601612d80565b9150509250929050565b6132e681612eb6565b82525050565b5f60e0820190506132ff5f83018a613239565b61330c6020830189613239565b6133196040830188613001565b6133266060830187613001565b61333360808301866132dd565b61334060a0830185612e1d565b61334d60c0830184612e1d565b98975050505050505050565b5f60608201905061336c5f830186613239565b6133796020830185613239565b6133866040830184613001565b949350505050565b61339781612d07565b81146133a1575f5ffd5b50565b5f815190506133b28161338e565b92915050565b5f602082840312156133cd576133cc612c7f565b5b5f6133da848285016133a4565b91505092915050565b5f6060820190506133f65f830186613001565b6134036020830185613001565b6134106040830184613001565b949350505050565b5f8160601b9050919050565b5f61342e82613418565b9050919050565b5f61343f82613424565b9050919050565b61345761345282612d59565b613435565b82525050565b5f819050919050565b61347761347282612e83565b61345d565b82525050565b5f6134888289613446565b6014820191506134988288613446565b6014820191506134a88287613466565b6020820191506134b88286613466565b6020820191506134c88285613466565b6020820191506134d88284613446565b601482019150819050979650505050505050565b5f6040820190506134ff5f830185613239565b61350c6020830184613001565b9392505050565b5f819050919050565b61352d61352882612dbf565b613513565b82525050565b5f61353e828461351c565b60208201915081905092915050565b5f81905092915050565b50565b5f6135655f8361354d565b915061357082613557565b5f82019050919050565b5f6135848261355a565b9150819050919050565b5f6040820190506135a15f830185613239565b6135ae6020830184612e1d565b9392505050565b7f4e487b71000000000000000000000000000000000000000000000000000000005f52602160045260245ffd5b5f6080820190506135f55f830187612e1d565b61360260208301866132dd565b61360f6040830185612e1d565b61361c6060830184612e1d565b9594505050505056fea2646970667358221220dd8da1e53c89ad6445c5b3679169634f8bffd273697321b488515814e9dcbfba64736f6c634300081c0033","linkReferences":{}},"methodIdentifiers":{"ADMIN_ROLE()":"75b238fc","DEFAULT_ADMIN_ROLE()":"a217fddf","PAUSER_ROLE()":"e63ab1e9","RELAYER_ROLE()":"926d7d7f","burnWrappedForReturn(address,address,uint256,uint256,uint256)":"b4ad2773","claimOriginalWithSignature(address,address,uint256,uint256,uint256,bytes)":"7ac857b5","claimWrappedWithSignature(address,address,uint256,uint256,uint256,bytes)":"b68d7a0a","currentChainId()":"6cbadbfa","emergencyWithdrawETH(address,uint256)":"d79e8567","getRoleAdmin(bytes32)":"248a9ca3","grantPauserRole(address)":"6c11c21c","grantRelayerRole(address)":"1e0af67e","grantRole(bytes32,address)":"2f2ff15d","hasRole(bytes32,address)":"91d14854","lockNative(uint256,uint256)":"9285be46","lockToken(address,uint256,uint256,uint256)":"6c32461d","lockTokenWithPermit(address,uint256,uint256,uint256,uint256,uint8,bytes32,bytes32)":"3aa89140","originalTokens(address)":"f74032f0","pause()":"8456cb59","paused()":"5c975abb","registerWrappedToken(address,address)":"dc56c390","renounceRole(bytes32,address)":"36568abe","revokePauserRole(address)":"f865af08","revokeRelayerRole(address)":"142b7b37","revokeRole(bytes32,address)":"d547741f","supportsInterface(bytes4)":"01ffc9a7","unpause()":"3f4ba83a","usedNonces(address,uint256,uint256)":"a59e10e6","wrappedTokens(address)":"d5c6b504"},"id":49}