{"abi":[{"type":"constructor","inputs":[],"stateMutability":"nonpayable"},{"type":"fallback","stateMutability":"payable"},{"type":"receive","stateMutability":"payable"},{"type":"function","name":"ADMIN_ROLE","inputs":[],"outputs":[{"name":"","type":"bytes32","internalType":"bytes32"}],"stateMutability":"view"},{"type":"function","name":"DEFAULT_ADMIN_ROLE","inputs":[],"outputs":[{"name":"","type":"bytes32","internalType":"bytes32"}],"stateMutability":"view"},{"type":"function","name":"PAUSER_ROLE","inputs":[],"outputs":[{"name":"","type":"bytes32","internalType":"bytes32"}],"stateMutability":"view"},{"type":"function","name":"RELAYER_ROLE","inputs":[],"outputs":[{"name":"","type":"bytes32","internalType":"bytes32"}],"stateMutability":"view"},{"type":"function","name":"burnWrappedForReturn","inputs":[{"name":"wrappedToken","type":"address","internalType":"address"},{"name":"originalToken","type":"address","internalType":"address"},{"name":"amount","type":"uint256","internalType":"uint256"},{"name":"originalChainId","type":"uint256","internalType":"uint256"}],"outputs":[],"stateMutability":"nonpayable"},{"type":"function","name":"claimOriginalWithSignature","inputs":[{"name":"user","type":"address","internalType":"address"},{"name":"token","type":"address","internalType":"address"},{"name":"amount","type":"uint256","internalType":"uint256"},{"name":"nonce","type":"uint256","internalType":"uint256"},{"name":"burnChainId","type":"uint256","internalType":"uint256"},{"name":"claimChainId","type":"uint256","internalType":"uint256"},{"name":"deadline","type":"uint256","internalType":"uint256"},{"name":"signature","type":"bytes","internalType":"bytes"}],"outputs":[],"stateMutability":"nonpayable"},{"type":"function","name":"claimWrappedWithSignature","inputs":[{"name":"user","type":"address","internalType":"address"},{"name":"token","type":"address","internalType":"address"},{"name":"amount","type":"uint256","internalType":"uint256"},{"name":"nonce","type":"uint256","internalType":"uint256"},{"name":"originalChainId","type":"uint256","internalType":"uint256"},{"name":"claimChainId","type":"uint256","internalType":"uint256"},{"name":"deadline","type":"uint256","internalType":"uint256"},{"name":"signature","type":"bytes","internalType":"bytes"}],"outputs":[],"stateMutability":"nonpayable"},{"type":"function","name":"currentChainId","inputs":[],"outputs":[{"name":"","type":"uint256","internalType":"uint256"}],"stateMutability":"view"},{"type":"function","name":"emergencyWithdrawETH","inputs":[{"name":"to","type":"address","internalType":"address"},{"name":"amount","type":"uint256","internalType":"uint256"}],"outputs":[],"stateMutability":"nonpayable"},{"type":"function","name":"getRoleAdmin","inputs":[{"name":"role","type":"bytes32","internalType":"bytes32"}],"outputs":[{"name":"","type":"bytes32","internalType":"bytes32"}],"stateMutability":"view"},{"type":"function","name":"grantPauserRole","inputs":[{"name":"account","type":"address","internalType":"address"}],"outputs":[],"stateMutability":"nonpayable"},{"type":"function","name":"grantRelayerRole","inputs":[{"name":"account","type":"address","internalType":"address"}],"outputs":[],"stateMutability":"nonpayable"},{"type":"function","name":"grantRole","inputs":[{"name":"role","type":"bytes32","internalType":"bytes32"},{"name":"account","type":"address","internalType":"address"}],"outputs":[],"stateMutability":"nonpayable"},{"type":"function","name":"hasRole","inputs":[{"name":"role","type":"bytes32","internalType":"bytes32"},{"name":"account","type":"address","internalType":"address"}],"outputs":[{"name":"","type":"bool","internalType":"bool"}],"stateMutability":"view"},{"type":"function","name":"lockNative","inputs":[{"name":"targetChainId","type":"uint256","internalType":"uint256"}],"outputs":[],"stateMutability":"payable"},{"type":"function","name":"lockToken","inputs":[{"name":"token","type":"address","internalType":"address"},{"name":"amount","type":"uint256","internalType":"uint256"},{"name":"targetChainId","type":"uint256","internalType":"uint256"}],"outputs":[],"stateMutability":"nonpayable"},{"type":"function","name":"lockTokenWithPermit","inputs":[{"name":"token","type":"address","internalType":"address"},{"name":"amount","type":"uint256","internalType":"uint256"},{"name":"targetChainId","type":"uint256","internalType":"uint256"},{"name":"deadline","type":"uint256","internalType":"uint256"},{"name":"v","type":"uint8","internalType":"uint8"},{"name":"r","type":"bytes32","internalType":"bytes32"},{"name":"s","type":"bytes32","internalType":"bytes32"}],"outputs":[],"stateMutability":"nonpayable"},{"type":"function","name":"nonces","inputs":[{"name":"","type":"address","internalType":"address"},{"name":"","type":"address","internalType":"address"}],"outputs":[{"name":"","type":"uint256","internalType":"uint256"}],"stateMutability":"view"},{"type":"function","name":"originalTokens","inputs":[{"name":"","type":"address","internalType":"address"}],"outputs":[{"name":"","type":"address","internalType":"address"}],"stateMutability":"view"},{"type":"function","name":"pause","inputs":[],"outputs":[],"stateMutability":"nonpayable"},{"type":"function","name":"paused","inputs":[],"outputs":[{"name":"","type":"bool","internalType":"bool"}],"stateMutability":"view"},{"type":"function","name":"registerWrappedToken","inputs":[{"name":"originalToken","type":"address","internalType":"address"},{"name":"wrappedToken","type":"address","internalType":"address"}],"outputs":[],"stateMutability":"nonpayable"},{"type":"function","name":"renounceRole","inputs":[{"name":"role","type":"bytes32","internalType":"bytes32"},{"name":"callerConfirmation","type":"address","internalType":"address"}],"outputs":[],"stateMutability":"nonpayable"},{"type":"function","name":"revokePauserRole","inputs":[{"name":"account","type":"address","internalType":"address"}],"outputs":[],"stateMutability":"nonpayable"},{"type":"function","name":"revokeRelayerRole","inputs":[{"name":"account","type":"address","internalType":"address"}],"outputs":[],"stateMutability":"nonpayable"},{"type":"function","name":"revokeRole","inputs":[{"name":"role","type":"bytes32","internalType":"bytes32"},{"name":"account","type":"address","internalType":"address"}],"outputs":[],"stateMutability":"nonpayable"},{"type":"function","name":"supportsInterface","inputs":[{"name":"interfaceId","type":"bytes4","internalType":"bytes4"}],"outputs":[{"name":"","type":"bool","internalType":"bool"}],"stateMutability":"view"},{"type":"function","name":"unpause","inputs":[],"outputs":[],"stateMutability":"nonpayable"},{"type":"function","name":"usedNonces","inputs":[{"name":"","type":"address","internalType":"address"},{"name":"","type":"address","internalType":"address"},{"name":"","type":"uint256","internalType":"uint256"},{"name":"","type":"uint256","internalType":"uint256"}],"outputs":[{"name":"","type":"bool","internalType":"bool"}],"stateMutability":"view"},{"type":"function","name":"wrappedTokens","inputs":[{"name":"","type":"address","internalType":"address"}],"outputs":[{"name":"","type":"address","internalType":"address"}],"stateMutability":"view"},{"type":"event","name":"EmergencyETHWithdrawal","inputs":[{"name":"to","type":"address","indexed":true,"internalType":"address"},{"name":"amount","type":"uint256","indexed":false,"internalType":"uint256"}],"anonymous":false},{"type":"event","name":"NativeClaimed","inputs":[{"name":"user","type":"address","indexed":true,"internalType":"address"},{"name":"amount","type":"uint256","indexed":false,"internalType":"uint256"},{"name":"nonce","type":"uint256","indexed":false,"internalType":"uint256"}],"anonymous":false},{"type":"event","name":"NativeLocked","inputs":[{"name":"user","type":"address","indexed":true,"internalType":"address"},{"name":"amount","type":"uint256","indexed":false,"internalType":"uint256"},{"name":"targetChainId","type":"uint256","indexed":false,"internalType":"uint256"},{"name":"nonce","type":"uint256","indexed":false,"internalType":"uint256"}],"anonymous":false},{"type":"event","name":"NativeReleased","inputs":[{"name":"user","type":"address","indexed":true,"internalType":"address"},{"name":"amount","type":"uint256","indexed":false,"internalType":"uint256"}],"anonymous":false},{"type":"event","name":"Paused","inputs":[{"name":"account","type":"address","indexed":false,"internalType":"address"}],"anonymous":false},{"type":"event","name":"RoleAdminChanged","inputs":[{"name":"role","type":"bytes32","indexed":true,"internalType":"bytes32"},{"name":"previousAdminRole","type":"bytes32","indexed":true,"internalType":"bytes32"},{"name":"newAdminRole","type":"bytes32","indexed":true,"internalType":"bytes32"}],"anonymous":false},{"type":"event","name":"RoleGranted","inputs":[{"name":"role","type":"bytes32","indexed":true,"internalType":"bytes32"},{"name":"account","type":"address","indexed":true,"internalType":"address"},{"name":"sender","type":"address","indexed":true,"internalType":"address"}],"anonymous":false},{"type":"event","name":"RoleRevoked","inputs":[{"name":"role","type":"bytes32","indexed":true,"internalType":"bytes32"},{"name":"account","type":"address","indexed":true,"internalType":"address"},{"name":"sender","type":"address","indexed":true,"internalType":"address"}],"anonymous":false},{"type":"event","name":"TokenBurned","inputs":[{"name":"user","type":"address","indexed":true,"internalType":"address"},{"name":"wrappedToken","type":"address","indexed":true,"internalType":"address"},{"name":"originalToken","type":"address","indexed":true,"internalType":"address"},{"name":"amount","type":"uint256","indexed":false,"internalType":"uint256"},{"name":"targetChainId","type":"uint256","indexed":false,"internalType":"uint256"},{"name":"nonce","type":"uint256","indexed":false,"internalType":"uint256"}],"anonymous":false},{"type":"event","name":"TokenClaimed","inputs":[{"name":"user","type":"address","indexed":true,"internalType":"address"},{"name":"token","type":"address","indexed":true,"internalType":"address"},{"name":"amount","type":"uint256","indexed":false,"internalType":"uint256"},{"name":"nonce","type":"uint256","indexed":false,"internalType":"uint256"}],"anonymous":false},{"type":"event","name":"TokenLocked","inputs":[{"name":"user","type":"address","indexed":true,"internalType":"address"},{"name":"token","type":"address","indexed":true,"internalType":"address"},{"name":"amount","type":"uint256","indexed":false,"internalType":"uint256"},{"name":"targetChainId","type":"uint256","indexed":false,"internalType":"uint256"},{"name":"nonce","type":"uint256","indexed":false,"internalType":"uint256"}],"anonymous":false},{"type":"event","name":"TokenReleased","inputs":[{"name":"user","type":"address","indexed":true,"internalType":"address"},{"name":"token","type":"address","indexed":true,"internalType":"address"},{"name":"amount","type":"uint256","indexed":false,"internalType":"uint256"}],"anonymous":false},{"type":"event","name":"Unpaused","inputs":[{"name":"account","type":"address","indexed":false,"internalType":"address"}],"anonymous":false},{"type":"event","name":"WrappedTokenRegistered","inputs":[{"name":"originalToken","type":"address","indexed":true,"internalType":"address"},{"name":"wrappedToken","type":"address","indexed":true,"internalType":"address"}],"anonymous":false},{"type":"error","name":"AccessControlBadConfirmation","inputs":[]},{"type":"error","name":"AccessControlUnauthorizedAccount","inputs":[{"name":"account","type":"address","internalType":"address"},{"name":"neededRole","type":"bytes32","internalType":"bytes32"}]},{"type":"error","name":"ECDSAInvalidSignature","inputs":[]},{"type":"error","name":"ECDSAInvalidSignatureLength","inputs":[{"name":"length","type":"uint256","internalType":"uint256"}]},{"type":"error","name":"ECDSAInvalidSignatureS","inputs":[{"name":"s","type":"bytes32","internalType":"bytes32"}]},{"type":"error","name":"EnforcedPause","inputs":[]},{"type":"error","name":"ExpectedPause","inputs":[]},{"type":"error","name":"ReentrancyGuardReentrantCall","inputs":[]}],"bytecode":{"object":"0x60a060405234801561000f575f5ffd5b506001808190555046608081815250505f3390506100355f5f1b826100ee60201b60201c565b506100667fa49807205ce4d355092ef5a8a18f56e8913cf4a201fbe287825b095693c21775826100ee60201b60201c565b506100977f65d7a28e3265b37a6474929f336521b332c1681b933f6cb9f3376673440d862a826100ee60201b60201c565b506100e87f65d7a28e3265b37a6474929f336521b332c1681b933f6cb9f3376673440d862a7fa49807205ce4d355092ef5a8a18f56e8913cf4a201fbe287825b095693c217756101e360201b60201c565b506102c7565b5f6100ff838361024160201b60201c565b6101d95760015f5f8581526020019081526020015f205f015f8473ffffffffffffffffffffffffffffffffffffffff1673ffffffffffffffffffffffffffffffffffffffff1681526020019081526020015f205f6101000a81548160ff0219169083151502179055506101766102a460201b60201c565b73ffffffffffffffffffffffffffffffffffffffff168273ffffffffffffffffffffffffffffffffffffffff16847f2f8788117e7eff1d82e926ec794901d17c78024a50270940304540a733656f0d60405160405180910390a4600190506101dd565b5f90505b92915050565b5f6101f3836102ab60201b60201c565b9050815f5f8581526020019081526020015f20600101819055508181847fbd79b86ffe0ab8e8776151514217cd7cacd52c909f66475c3af44e129f0b00ff60405160405180910390a4505050565b5f5f5f8481526020019081526020015f205f015f8373ffffffffffffffffffffffffffffffffffffffff1673ffffffffffffffffffffffffffffffffffffffff1681526020019081526020015f205f9054906101000a900460ff16905092915050565b5f33905090565b5f5f5f8381526020019081526020015f20600101549050919050565b6080516149056103105f395f8181610c0601528181610f2a01528181610f8c0152818161185c0152818161190c01528181611b7901528181611f1a01526122fa01526149055ff3fe6080604052600436106101d0575f3560e01c80638230f7e7116100f6578063a217fddf11610094578063dc56c39011610063578063dc56c390146106ad578063e63ab1e9146106d5578063f74032f0146106ff578063f865af081461073b57610210565b8063a217fddf146105f7578063d547741f14610621578063d5c6b50414610649578063d79e85671461068557610210565b806387c4d08c116100d057806387c4d08c1461052d57806391d1485414610555578063926d7d7f146105915780639333fbda146105bb57610210565b80638230f7e7146104c7578063839972f9146104ef5780638456cb591461051757610210565b80632f2ff15d1161016e5780636c11c21c1161013d5780636c11c21c1461042f5780636cbadbfa1461045757806371e754081461048157806375b238fc1461049d57610210565b80632f2ff15d1461039f57806336568abe146103c75780633f4ba83a146103ef5780635c975abb1461040557610210565b80631e0af67e116101aa5780631e0af67e146102eb578063248a9ca31461031357806328a0615e1461034f57806329ee8c241461037757610210565b806301ffc9a71461024b578063142b7b371461028757806314d3134d146102af57610210565b36610210576040517f08c379a0000000000000000000000000000000000000000000000000000000008152600401610207906137f2565b60405180910390fd5b6040517f08c379a0000000000000000000000000000000000000000000000000000000008152600401610242906137f2565b60405180910390fd5b348015610256575f5ffd5b50610271600480360381019061026c919061386d565b610763565b60405161027e91906138b2565b60405180910390f35b348015610292575f5ffd5b506102ad60048036038101906102a89190613925565b6107dc565b005b3480156102ba575f5ffd5b506102d560048036038101906102d09190613983565b6108e0565b6040516102e291906138b2565b60405180910390f35b3480156102f6575f5ffd5b50610311600480360381019061030c9190613925565b610920565b005b34801561031e575f5ffd5b5061033960048036038101906103349190613a1a565b610a24565b6040516103469190613a54565b60405180910390f35b34801561035a575f5ffd5b5061037560048036038101906103709190613983565b610a40565b005b348015610382575f5ffd5b5061039d60048036038101906103989190613ace565b610de4565b005b3480156103aa575f5ffd5b506103c560048036038101906103c09190613b9e565b611631565b005b3480156103d2575f5ffd5b506103ed60048036038101906103e89190613b9e565b611653565b005b3480156103fa575f5ffd5b506104036116ce565b005b348015610410575f5ffd5b50610419611741565b60405161042691906138b2565b60405180910390f35b34801561043a575f5ffd5b5061045560048036038101906104509190613925565b611756565b005b348015610462575f5ffd5b5061046b61185a565b6040516104789190613beb565b60405180910390f35b61049b60048036038101906104969190613c04565b61187e565b005b3480156104a8575f5ffd5b506104b1611a51565b6040516104be9190613a54565b60405180910390f35b3480156104d2575f5ffd5b506104ed60048036038101906104e89190613c65565b611a75565b005b3480156104fa575f5ffd5b5061051560048036038101906105109190613d02565b611e16565b005b348015610522575f5ffd5b5061052b612141565b005b348015610538575f5ffd5b50610553600480360381019061054e9190613ace565b6121b4565b005b348015610560575f5ffd5b5061057b60048036038101906105769190613b9e565b6127f6565b60405161058891906138b2565b60405180910390f35b34801561059c575f5ffd5b506105a5612859565b6040516105b29190613a54565b60405180910390f35b3480156105c6575f5ffd5b506105e160048036038101906105dc9190613d52565b61287d565b6040516105ee9190613beb565b60405180910390f35b348015610602575f5ffd5b5061060b61289d565b6040516106189190613a54565b60405180910390f35b34801561062c575f5ffd5b5061064760048036038101906106429190613b9e565b6128a3565b005b348015610654575f5ffd5b5061066f600480360381019061066a9190613925565b6128c5565b60405161067c9190613d9f565b60405180910390f35b348015610690575f5ffd5b506106ab60048036038101906106a69190613db8565b6128f5565b005b3480156106b8575f5ffd5b506106d360048036038101906106ce9190613d52565b612ae7565b005b3480156106e0575f5ffd5b506106e9612e38565b6040516106f69190613a54565b60405180910390f35b34801561070a575f5ffd5b5061072560048036038101906107209190613925565b612e5c565b6040516107329190613d9f565b60405180910390f35b348015610746575f5ffd5b50610761600480360381019061075c9190613925565b612e8c565b005b5f7f7965db0b000000000000000000000000000000000000000000000000000000007bffffffffffffffffffffffffffffffffffffffffffffffffffffffff1916827bffffffffffffffffffffffffffffffffffffffffffffffffffffffff191614806107d557506107d482612f90565b5b9050919050565b6108067fa49807205ce4d355092ef5a8a18f56e8913cf4a201fbe287825b095693c21775336127f6565b610845576040517f08c379a000000000000000000000000000000000000000000000000000000000815260040161083c90613e40565b60405180910390fd5b5f73ffffffffffffffffffffffffffffffffffffffff168173ffffffffffffffffffffffffffffffffffffffff16036108b3576040517f08c379a00000000000000000000000000000000000000000000000000000000081526004016108aa90613ea8565b60405180910390fd5b6108dd7fe2b7fb3b832174769106daebcfd6d1970523240dda11281102db9363b83b0dc4826128a3565b50565b6006602052835f5260405f20602052825f5260405f20602052815f5260405f20602052805f5260405f205f9350935050509054906101000a900460ff1681565b61094a7fa49807205ce4d355092ef5a8a18f56e8913cf4a201fbe287825b095693c21775336127f6565b610989576040517f08c379a000000000000000000000000000000000000000000000000000000000815260040161098090613e40565b60405180910390fd5b5f73ffffffffffffffffffffffffffffffffffffffff168173ffffffffffffffffffffffffffffffffffffffff16036109f7576040517f08c379a00000000000000000000000000000000000000000000000000000000081526004016109ee90613ea8565b60405180910390fd5b610a217fe2b7fb3b832174769106daebcfd6d1970523240dda11281102db9363b83b0dc482611631565b50565b5f5f5f8381526020019081526020015f20600101549050919050565b610a48612ff9565b5f73ffffffffffffffffffffffffffffffffffffffff168473ffffffffffffffffffffffffffffffffffffffff1603610ab6576040517f08c379a0000000000000000000000000000000000000000000000000000000008152600401610aad90613ea8565b60405180910390fd5b5f8203610af8576040517f08c379a0000000000000000000000000000000000000000000000000000000008152600401610aef90613f10565b60405180910390fd5b8273ffffffffffffffffffffffffffffffffffffffff1660045f8673ffffffffffffffffffffffffffffffffffffffff1673ffffffffffffffffffffffffffffffffffffffff1681526020019081526020015f205f9054906101000a900473ffffffffffffffffffffffffffffffffffffffff1673ffffffffffffffffffffffffffffffffffffffff1614610bc2576040517f08c379a0000000000000000000000000000000000000000000000000000000008152600401610bb990613f78565b60405180910390fd5b5f8103610c04576040517f08c379a0000000000000000000000000000000000000000000000000000000008152600401610bfb90613fe0565b60405180910390fd5b7f00000000000000000000000000000000000000000000000000000000000000008103610c66576040517f08c379a0000000000000000000000000000000000000000000000000000000008152600401610c5d90614048565b60405180910390fd5b8373ffffffffffffffffffffffffffffffffffffffff166374f4f54733846040518363ffffffff1660e01b8152600401610ca1929190614066565b5f604051808303815f87803b158015610cb8575f5ffd5b505af1158015610cca573d5f5f3e3d5ffd5b505050505f60055f3373ffffffffffffffffffffffffffffffffffffffff1673ffffffffffffffffffffffffffffffffffffffff1681526020019081526020015f205f8573ffffffffffffffffffffffffffffffffffffffff1673ffffffffffffffffffffffffffffffffffffffff1681526020019081526020015f205f815480929190610d57906140ba565b9190505590508373ffffffffffffffffffffffffffffffffffffffff168573ffffffffffffffffffffffffffffffffffffffff163373ffffffffffffffffffffffffffffffffffffffff167f0a0308d8d31c696b49c697a4383b1017f0c5e202799f7419bba380a1a3fb2bc8868686604051610dd593929190614101565b60405180910390a45050505050565b610dec61303a565b610df4612ff9565b5f73ffffffffffffffffffffffffffffffffffffffff168973ffffffffffffffffffffffffffffffffffffffff1603610e62576040517f08c379a0000000000000000000000000000000000000000000000000000000008152600401610e5990613ea8565b60405180910390fd5b5f8703610ea4576040517f08c379a0000000000000000000000000000000000000000000000000000000008152600401610e9b90613f10565b60405180910390fd5b5f8503610ee6576040517f08c379a0000000000000000000000000000000000000000000000000000000008152600401610edd90614180565b60405180910390fd5b5f8403610f28576040517f08c379a0000000000000000000000000000000000000000000000000000000008152600401610f1f90613fe0565b60405180910390fd5b7f00000000000000000000000000000000000000000000000000000000000000008503610f8a576040517f08c379a0000000000000000000000000000000000000000000000000000000008152600401610f81906141e8565b60405180910390fd5b7f00000000000000000000000000000000000000000000000000000000000000008414610fec576040517f08c379a0000000000000000000000000000000000000000000000000000000008152600401610fe390614048565b60405180910390fd5b8242111561102f576040517f08c379a000000000000000000000000000000000000000000000000000000000815260040161102690614250565b60405180910390fd5b60065f8a73ffffffffffffffffffffffffffffffffffffffff1673ffffffffffffffffffffffffffffffffffffffff1681526020019081526020015f205f8973ffffffffffffffffffffffffffffffffffffffff1673ffffffffffffffffffffffffffffffffffffffff1681526020019081526020015f205f8781526020019081526020015f205f8681526020019081526020015f205f9054906101000a900460ff1615611112576040517f08c379a0000000000000000000000000000000000000000000000000000000008152600401611109906142b8565b60405180910390fd5b5f898989898989308a60405160200161113298979695949392919061433b565b6040516020818303038152906040528051906020012090505f61115482613080565b90505f6111a48286868080601f0160208091040260200160405190810160405280939291908181526020018383808284375f81840152601f19601f820116905080830192505050505050506130b3565b90506111d07fe2b7fb3b832174769106daebcfd6d1970523240dda11281102db9363b83b0dc4826127f6565b61120f576040517f08c379a000000000000000000000000000000000000000000000000000000000815260040161120690614416565b60405180910390fd5b600160065f8e73ffffffffffffffffffffffffffffffffffffffff1673ffffffffffffffffffffffffffffffffffffffff1681526020019081526020015f205f8d73ffffffffffffffffffffffffffffffffffffffff1673ffffffffffffffffffffffffffffffffffffffff1681526020019081526020015f205f8b81526020019081526020015f205f8a81526020019081526020015f205f6101000a81548160ff0219169083151502179055505f73ffffffffffffffffffffffffffffffffffffffff168b73ffffffffffffffffffffffffffffffffffffffff160361147c575f60035f5f73ffffffffffffffffffffffffffffffffffffffff1673ffffffffffffffffffffffffffffffffffffffff1681526020019081526020015f205f9054906101000a900473ffffffffffffffffffffffffffffffffffffffff1690505f73ffffffffffffffffffffffffffffffffffffffff168173ffffffffffffffffffffffffffffffffffffffff16036113be576040517f08c379a00000000000000000000000000000000000000000000000000000000081526004016113b590613f78565b60405180910390fd5b8073ffffffffffffffffffffffffffffffffffffffff16638c2a993e8e8d6040518363ffffffff1660e01b81526004016113f9929190614066565b5f604051808303815f87803b158015611410575f5ffd5b505af1158015611422573d5f5f3e3d5ffd5b505050508c73ffffffffffffffffffffffffffffffffffffffff167f81a4293d02ed4ba558facf3851cc2591ff2e7d33a7f64a786fb4583017c45d0d8c8c60405161146e929190614434565b60405180910390a25061161b565b5f60035f8d73ffffffffffffffffffffffffffffffffffffffff1673ffffffffffffffffffffffffffffffffffffffff1681526020019081526020015f205f9054906101000a900473ffffffffffffffffffffffffffffffffffffffff1690505f73ffffffffffffffffffffffffffffffffffffffff168173ffffffffffffffffffffffffffffffffffffffff160361154a576040517f08c379a000000000000000000000000000000000000000000000000000000000815260040161154190613f78565b60405180910390fd5b8073ffffffffffffffffffffffffffffffffffffffff16638c2a993e8e8d6040518363ffffffff1660e01b8152600401611585929190614066565b5f604051808303815f87803b15801561159c575f5ffd5b505af11580156115ae573d5f5f3e3d5ffd5b505050508b73ffffffffffffffffffffffffffffffffffffffff168d73ffffffffffffffffffffffffffffffffffffffff167f29842d15961c304dad3345dcde04db3059d13a4455ed0646e5daf7c993a04bc68d8d604051611611929190614434565b60405180910390a3505b5050506116266130dd565b505050505050505050565b61163a82610a24565b611643816130e6565b61164d83836130fa565b50505050565b61165b6131e3565b73ffffffffffffffffffffffffffffffffffffffff168173ffffffffffffffffffffffffffffffffffffffff16146116bf576040517f6697b23200000000000000000000000000000000000000000000000000000000815260040160405180910390fd5b6116c982826131ea565b505050565b6116f87f65d7a28e3265b37a6474929f336521b332c1681b933f6cb9f3376673440d862a336127f6565b611737576040517f08c379a000000000000000000000000000000000000000000000000000000000815260040161172e906144a5565b60405180910390fd5b61173f6132d3565b565b5f60025f9054906101000a900460ff16905090565b6117807fa49807205ce4d355092ef5a8a18f56e8913cf4a201fbe287825b095693c21775336127f6565b6117bf576040517f08c379a00000000000000000000000000000000000000000000000000000000081526004016117b690613e40565b60405180910390fd5b5f73ffffffffffffffffffffffffffffffffffffffff168173ffffffffffffffffffffffffffffffffffffffff160361182d576040517f08c379a000000000000000000000000000000000000000000000000000000000815260040161182490613ea8565b60405180910390fd5b6118577f65d7a28e3265b37a6474929f336521b332c1681b933f6cb9f3376673440d862a82611631565b50565b7f000000000000000000000000000000000000000000000000000000000000000081565b611886612ff9565b5f81036118c8576040517f08c379a00000000000000000000000000000000000000000000000000000000081526004016118bf90613fe0565b60405180910390fd5b5f340361190a576040517f08c379a000000000000000000000000000000000000000000000000000000000815260040161190190613f10565b60405180910390fd5b7f0000000000000000000000000000000000000000000000000000000000000000810361196c576040517f08c379a000000000000000000000000000000000000000000000000000000000815260040161196390614048565b60405180910390fd5b5f60055f3373ffffffffffffffffffffffffffffffffffffffff1673ffffffffffffffffffffffffffffffffffffffff1681526020019081526020015f205f5f73ffffffffffffffffffffffffffffffffffffffff1673ffffffffffffffffffffffffffffffffffffffff1681526020019081526020015f205f8154809291906119f5906140ba565b9190505590503373ffffffffffffffffffffffffffffffffffffffff167fc42ad39b6a401a299e78bb3955a8e231dde84876e4129dbe3cbeae53aab6a717348484604051611a4593929190614101565b60405180910390a25050565b7fa49807205ce4d355092ef5a8a18f56e8913cf4a201fbe287825b095693c2177581565b611a7d612ff9565b611a8561303a565b5f73ffffffffffffffffffffffffffffffffffffffff168773ffffffffffffffffffffffffffffffffffffffff1603611af3576040517f08c379a0000000000000000000000000000000000000000000000000000000008152600401611aea90613ea8565b60405180910390fd5b5f8603611b35576040517f08c379a0000000000000000000000000000000000000000000000000000000008152600401611b2c90613f10565b60405180910390fd5b5f8503611b77576040517f08c379a0000000000000000000000000000000000000000000000000000000008152600401611b6e90613fe0565b60405180910390fd5b7f00000000000000000000000000000000000000000000000000000000000000008503611bd9576040517f08c379a0000000000000000000000000000000000000000000000000000000008152600401611bd090614048565b60405180910390fd5b8673ffffffffffffffffffffffffffffffffffffffff1663d505accf333089888888886040518863ffffffff1660e01b8152600401611c1e97969594939291906144d2565b5f604051808303815f87803b158015611c35575f5ffd5b505af1158015611c47573d5f5f3e3d5ffd5b505050505f8773ffffffffffffffffffffffffffffffffffffffff166323b872dd33308a6040518463ffffffff1660e01b8152600401611c899392919061453f565b6020604051808303815f875af1158015611ca5573d5f5f3e3d5ffd5b505050506040513d601f19601f82011682018060405250810190611cc9919061459e565b905080611d0b576040517f08c379a0000000000000000000000000000000000000000000000000000000008152600401611d0290614613565b60405180910390fd5b5f60055f3373ffffffffffffffffffffffffffffffffffffffff1673ffffffffffffffffffffffffffffffffffffffff1681526020019081526020015f205f8a73ffffffffffffffffffffffffffffffffffffffff1673ffffffffffffffffffffffffffffffffffffffff1681526020019081526020015f205f815480929190611d94906140ba565b9190505590508873ffffffffffffffffffffffffffffffffffffffff163373ffffffffffffffffffffffffffffffffffffffff167f6edd85519fe7bf8ae3e7c89e6378ac3a3a4c787c65e56793bf70c12fafffb1588a8a85604051611dfb93929190614101565b60405180910390a35050611e0d6130dd565b50505050505050565b611e1e612ff9565b611e2661303a565b5f73ffffffffffffffffffffffffffffffffffffffff168373ffffffffffffffffffffffffffffffffffffffff1603611e94576040517f08c379a0000000000000000000000000000000000000000000000000000000008152600401611e8b90613ea8565b60405180910390fd5b5f8203611ed6576040517f08c379a0000000000000000000000000000000000000000000000000000000008152600401611ecd90613f10565b60405180910390fd5b5f8103611f18576040517f08c379a0000000000000000000000000000000000000000000000000000000008152600401611f0f90613fe0565b60405180910390fd5b7f00000000000000000000000000000000000000000000000000000000000000008103611f7a576040517f08c379a0000000000000000000000000000000000000000000000000000000008152600401611f7190614048565b60405180910390fd5b5f8373ffffffffffffffffffffffffffffffffffffffff166323b872dd3330866040518463ffffffff1660e01b8152600401611fb89392919061453f565b6020604051808303815f875af1158015611fd4573d5f5f3e3d5ffd5b505050506040513d601f19601f82011682018060405250810190611ff8919061459e565b90508061203a576040517f08c379a000000000000000000000000000000000000000000000000000000000815260040161203190614613565b60405180910390fd5b5f60055f3373ffffffffffffffffffffffffffffffffffffffff1673ffffffffffffffffffffffffffffffffffffffff1681526020019081526020015f205f8673ffffffffffffffffffffffffffffffffffffffff1673ffffffffffffffffffffffffffffffffffffffff1681526020019081526020015f205f8154809291906120c3906140ba565b9190505590508473ffffffffffffffffffffffffffffffffffffffff163373ffffffffffffffffffffffffffffffffffffffff167f6edd85519fe7bf8ae3e7c89e6378ac3a3a4c787c65e56793bf70c12fafffb15886868560405161212a93929190614101565b60405180910390a3505061213c6130dd565b505050565b61216b7f65d7a28e3265b37a6474929f336521b332c1681b933f6cb9f3376673440d862a336127f6565b6121aa576040517f08c379a00000000000000000000000000000000000000000000000000000000081526004016121a1906144a5565b60405180910390fd5b6121b2613334565b565b6121bc61303a565b6121c4612ff9565b5f73ffffffffffffffffffffffffffffffffffffffff168973ffffffffffffffffffffffffffffffffffffffff1603612232576040517f08c379a000000000000000000000000000000000000000000000000000000000815260040161222990613ea8565b60405180910390fd5b5f8703612274576040517f08c379a000000000000000000000000000000000000000000000000000000000815260040161226b90613f10565b60405180910390fd5b5f85036122b6576040517f08c379a00000000000000000000000000000000000000000000000000000000081526004016122ad90614180565b60405180910390fd5b5f84036122f8576040517f08c379a00000000000000000000000000000000000000000000000000000000081526004016122ef90613fe0565b60405180910390fd5b7f0000000000000000000000000000000000000000000000000000000000000000841461235a576040517f08c379a000000000000000000000000000000000000000000000000000000000815260040161235190614048565b60405180910390fd5b8242111561239d576040517f08c379a000000000000000000000000000000000000000000000000000000000815260040161239490614250565b60405180910390fd5b60065f8a73ffffffffffffffffffffffffffffffffffffffff1673ffffffffffffffffffffffffffffffffffffffff1681526020019081526020015f205f8973ffffffffffffffffffffffffffffffffffffffff1673ffffffffffffffffffffffffffffffffffffffff1681526020019081526020015f205f8781526020019081526020015f205f8681526020019081526020015f205f9054906101000a900460ff1615612480576040517f08c379a0000000000000000000000000000000000000000000000000000000008152600401612477906142b8565b60405180910390fd5b5f898989898989308a6040516020016124a098979695949392919061433b565b6040516020818303038152906040528051906020012090505f6124c282613080565b90505f6125128286868080601f0160208091040260200160405190810160405280939291908181526020018383808284375f81840152601f19601f820116905080830192505050505050506130b3565b905061253e7fe2b7fb3b832174769106daebcfd6d1970523240dda11281102db9363b83b0dc4826127f6565b61257d576040517f08c379a000000000000000000000000000000000000000000000000000000000815260040161257490614416565b60405180910390fd5b600160065f8e73ffffffffffffffffffffffffffffffffffffffff1673ffffffffffffffffffffffffffffffffffffffff1681526020019081526020015f205f8d73ffffffffffffffffffffffffffffffffffffffff1673ffffffffffffffffffffffffffffffffffffffff1681526020019081526020015f205f8b81526020019081526020015f205f8a81526020019081526020015f205f6101000a81548160ff0219169083151502179055505f73ffffffffffffffffffffffffffffffffffffffff168b73ffffffffffffffffffffffffffffffffffffffff16036126bb576126688c8b613396565b8b73ffffffffffffffffffffffffffffffffffffffff167f83e746f734bb21d4015d4a7c1b5c280bc3e9cf3c7d6f5ab7772bf00804f3529a8b6040516126ae9190613beb565b60405180910390a26127e0565b5f8b73ffffffffffffffffffffffffffffffffffffffff1663a9059cbb8e8d6040518363ffffffff1660e01b81526004016126f7929190614066565b6020604051808303815f875af1158015612713573d5f5f3e3d5ffd5b505050506040513d601f19601f82011682018060405250810190612737919061459e565b905080612779576040517f08c379a000000000000000000000000000000000000000000000000000000000815260040161277090614613565b60405180910390fd5b8b73ffffffffffffffffffffffffffffffffffffffff168d73ffffffffffffffffffffffffffffffffffffffff167fa5fa891a402945a5916b3b11763e3446525ced0e1d55a45cb3d3024f22ce44868d6040516127d69190613beb565b60405180910390a3505b5050506127eb6130dd565b505050505050505050565b5f5f5f8481526020019081526020015f205f015f8373ffffffffffffffffffffffffffffffffffffffff1673ffffffffffffffffffffffffffffffffffffffff1681526020019081526020015f205f9054906101000a900460ff16905092915050565b7fe2b7fb3b832174769106daebcfd6d1970523240dda11281102db9363b83b0dc481565b6005602052815f5260405f20602052805f5260405f205f91509150505481565b5f5f1b81565b6128ac82610a24565b6128b5816130e6565b6128bf83836131ea565b50505050565b6003602052805f5260405f205f915054906101000a900473ffffffffffffffffffffffffffffffffffffffff1681565b61291f7fa49807205ce4d355092ef5a8a18f56e8913cf4a201fbe287825b095693c21775336127f6565b61295e576040517f08c379a000000000000000000000000000000000000000000000000000000000815260040161295590613e40565b60405180910390fd5b5f73ffffffffffffffffffffffffffffffffffffffff168273ffffffffffffffffffffffffffffffffffffffff16036129cc576040517f08c379a00000000000000000000000000000000000000000000000000000000081526004016129c390613ea8565b60405180910390fd5b5f8103612a0e576040517f08c379a0000000000000000000000000000000000000000000000000000000008152600401612a0590613f10565b60405180910390fd5b80471015612a51576040517f08c379a0000000000000000000000000000000000000000000000000000000008152600401612a489061467b565b60405180910390fd5b8173ffffffffffffffffffffffffffffffffffffffff166108fc8290811502906040515f60405180830381858888f19350505050158015612a94573d5f5f3e3d5ffd5b508173ffffffffffffffffffffffffffffffffffffffff167fe6ca44db0ae7117797e1469efa02ba54a500832387a9f27a78e135a29587b04a82604051612adb9190613beb565b60405180910390a25050565b612b117fa49807205ce4d355092ef5a8a18f56e8913cf4a201fbe287825b095693c21775336127f6565b612b50576040517f08c379a0000000000000000000000000000000000000000000000000000000008152600401612b4790613e40565b60405180910390fd5b5f73ffffffffffffffffffffffffffffffffffffffff1660035f8473ffffffffffffffffffffffffffffffffffffffff1673ffffffffffffffffffffffffffffffffffffffff1681526020019081526020015f205f9054906101000a900473ffffffffffffffffffffffffffffffffffffffff1673ffffffffffffffffffffffffffffffffffffffff1614612c1a576040517f08c379a0000000000000000000000000000000000000000000000000000000008152600401612c1190614709565b60405180910390fd5b5f73ffffffffffffffffffffffffffffffffffffffff1660045f8373ffffffffffffffffffffffffffffffffffffffff1673ffffffffffffffffffffffffffffffffffffffff1681526020019081526020015f205f9054906101000a900473ffffffffffffffffffffffffffffffffffffffff1673ffffffffffffffffffffffffffffffffffffffff1614612ce4576040517f08c379a0000000000000000000000000000000000000000000000000000000008152600401612cdb90614771565b60405180910390fd5b8060035f8473ffffffffffffffffffffffffffffffffffffffff1673ffffffffffffffffffffffffffffffffffffffff1681526020019081526020015f205f6101000a81548173ffffffffffffffffffffffffffffffffffffffff021916908373ffffffffffffffffffffffffffffffffffffffff1602179055508160045f8373ffffffffffffffffffffffffffffffffffffffff1673ffffffffffffffffffffffffffffffffffffffff1681526020019081526020015f205f6101000a81548173ffffffffffffffffffffffffffffffffffffffff021916908373ffffffffffffffffffffffffffffffffffffffff1602179055508073ffffffffffffffffffffffffffffffffffffffff168273ffffffffffffffffffffffffffffffffffffffff167f5bf060dcb50af0821f19ba2472b500d3a81db9754a00ffaf5d994932624bfd3b60405160405180910390a35050565b7f65d7a28e3265b37a6474929f336521b332c1681b933f6cb9f3376673440d862a81565b6004602052805f5260405f205f915054906101000a900473ffffffffffffffffffffffffffffffffffffffff1681565b612eb67fa49807205ce4d355092ef5a8a18f56e8913cf4a201fbe287825b095693c21775336127f6565b612ef5576040517f08c379a0000000000000000000000000000000000000000000000000000000008152600401612eec90613e40565b60405180910390fd5b5f73ffffffffffffffffffffffffffffffffffffffff168173ffffffffffffffffffffffffffffffffffffffff1603612f63576040517f08c379a0000000000000000000000000000000000000000000000000000000008152600401612f5a90613ea8565b60405180910390fd5b612f8d7f65d7a28e3265b37a6474929f336521b332c1681b933f6cb9f3376673440d862a826128a3565b50565b5f7f01ffc9a7000000000000000000000000000000000000000000000000000000007bffffffffffffffffffffffffffffffffffffffffffffffffffffffff1916827bffffffffffffffffffffffffffffffffffffffffffffffffffffffff1916149050919050565b613001611741565b15613038576040517fd93c066500000000000000000000000000000000000000000000000000000000815260040160405180910390fd5b565b600260015403613076576040517f3ee5aeb500000000000000000000000000000000000000000000000000000000815260040160405180910390fd5b6002600181905550565b5f7f19457468657265756d205369676e6564204d6573736167653a0a3332000000005f5281601c52603c5f209050919050565b5f5f5f5f6130c18686613443565b9250925092506130d18282613498565b82935050505092915050565b60018081905550565b6130f7816130f26131e3565b6135fa565b50565b5f61310583836127f6565b6131d95760015f5f8581526020019081526020015f205f015f8473ffffffffffffffffffffffffffffffffffffffff1673ffffffffffffffffffffffffffffffffffffffff1681526020019081526020015f205f6101000a81548160ff0219169083151502179055506131766131e3565b73ffffffffffffffffffffffffffffffffffffffff168273ffffffffffffffffffffffffffffffffffffffff16847f2f8788117e7eff1d82e926ec794901d17c78024a50270940304540a733656f0d60405160405180910390a4600190506131dd565b5f90505b92915050565b5f33905090565b5f6131f583836127f6565b156132c9575f5f5f8581526020019081526020015f205f015f8473ffffffffffffffffffffffffffffffffffffffff1673ffffffffffffffffffffffffffffffffffffffff1681526020019081526020015f205f6101000a81548160ff0219169083151502179055506132666131e3565b73ffffffffffffffffffffffffffffffffffffffff168273ffffffffffffffffffffffffffffffffffffffff16847ff6391f5c32d9c69d2a47ea670b442974b53935d1edc7fd64eb21e047a839171b60405160405180910390a4600190506132cd565b5f90505b92915050565b6132db61364b565b5f60025f6101000a81548160ff0219169083151502179055507f5db9ee0a495bf2e6ff9c91a7834c1ba4fdd244a5e8aa4e537bd38aeae4b073aa61331d6131e3565b60405161332a9190613d9f565b60405180910390a1565b61333c612ff9565b600160025f6101000a81548160ff0219169083151502179055507f62e78cea01bee320cd4e420270b5ea74000d11b0c9f74754ebdbfc544b05a25861337f6131e3565b60405161338c9190613d9f565b60405180910390a1565b5f8273ffffffffffffffffffffffffffffffffffffffff16826040516133bb906147bc565b5f6040518083038185875af1925050503d805f81146133f5576040519150601f19603f3d011682016040523d82523d5f602084013e6133fa565b606091505b505090508061343e576040517f08c379a00000000000000000000000000000000000000000000000000000000081526004016134359061481a565b60405180910390fd5b505050565b5f5f5f6041845103613483575f5f5f602087015192506040870151915060608701515f1a90506134758882858561368b565b955095509550505050613491565b5f600285515f1b9250925092505b9250925092565b5f60038111156134ab576134aa614838565b5b8260038111156134be576134bd614838565b5b03156135f657600160038111156134d8576134d7614838565b5b8260038111156134eb576134ea614838565b5b03613522576040517ff645eedf00000000000000000000000000000000000000000000000000000000815260040160405180910390fd5b6002600381111561353657613535614838565b5b82600381111561354957613548614838565b5b0361358d57805f1c6040517ffce698f70000000000000000000000000000000000000000000000000000000081526004016135849190613beb565b60405180910390fd5b6003808111156135a05761359f614838565b5b8260038111156135b3576135b2614838565b5b036135f557806040517fd78bce0c0000000000000000000000000000000000000000000000000000000081526004016135ec9190613a54565b60405180910390fd5b5b5050565b61360482826127f6565b6136475780826040517fe2517d3f00000000000000000000000000000000000000000000000000000000815260040161363e929190614865565b60405180910390fd5b5050565b613653611741565b613689576040517f8dfc202b00000000000000000000000000000000000000000000000000000000815260040160405180910390fd5b565b5f5f5f7f7fffffffffffffffffffffffffffffff5d576e7357a4501ddfe92f46681b20a0845f1c11156136c7575f600385925092509250613768565b5f6001888888886040515f81526020016040526040516136ea949392919061488c565b6020604051602081039080840390855afa15801561370a573d5f5f3e3d5ffd5b5050506020604051035190505f73ffffffffffffffffffffffffffffffffffffffff168173ffffffffffffffffffffffffffffffffffffffff160361375b575f60015f5f1b93509350935050613768565b805f5f5f1b935093509350505b9450945094915050565b5f82825260208201905092915050565b7f44697265637420455448207472616e7366657273206e6f7420737570706f72745f8201527f6564000000000000000000000000000000000000000000000000000000000000602082015250565b5f6137dc602283613772565b91506137e782613782565b604082019050919050565b5f6020820190508181035f830152613809816137d0565b9050919050565b5f5ffd5b5f5ffd5b5f7fffffffff0000000000000000000000000000000000000000000000000000000082169050919050565b61384c81613818565b8114613856575f5ffd5b50565b5f8135905061386781613843565b92915050565b5f6020828403121561388257613881613810565b5b5f61388f84828501613859565b91505092915050565b5f8115159050919050565b6138ac81613898565b82525050565b5f6020820190506138c55f8301846138a3565b92915050565b5f73ffffffffffffffffffffffffffffffffffffffff82169050919050565b5f6138f4826138cb565b9050919050565b613904816138ea565b811461390e575f5ffd5b50565b5f8135905061391f816138fb565b92915050565b5f6020828403121561393a57613939613810565b5b5f61394784828501613911565b91505092915050565b5f819050919050565b61396281613950565b811461396c575f5ffd5b50565b5f8135905061397d81613959565b92915050565b5f5f5f5f6080858703121561399b5761399a613810565b5b5f6139a887828801613911565b94505060206139b987828801613911565b93505060406139ca8782880161396f565b92505060606139db8782880161396f565b91505092959194509250565b5f819050919050565b6139f9816139e7565b8114613a03575f5ffd5b50565b5f81359050613a14816139f0565b92915050565b5f60208284031215613a2f57613a2e613810565b5b5f613a3c84828501613a06565b91505092915050565b613a4e816139e7565b82525050565b5f602082019050613a675f830184613a45565b92915050565b5f5ffd5b5f5ffd5b5f5ffd5b5f5f83601f840112613a8e57613a8d613a6d565b5b8235905067ffffffffffffffff811115613aab57613aaa613a71565b5b602083019150836001820283011115613ac757613ac6613a75565b5b9250929050565b5f5f5f5f5f5f5f5f5f6101008a8c031215613aec57613aeb613810565b5b5f613af98c828d01613911565b9950506020613b0a8c828d01613911565b9850506040613b1b8c828d0161396f565b9750506060613b2c8c828d0161396f565b9650506080613b3d8c828d0161396f565b95505060a0613b4e8c828d0161396f565b94505060c0613b5f8c828d0161396f565b93505060e08a013567ffffffffffffffff811115613b8057613b7f613814565b5b613b8c8c828d01613a79565b92509250509295985092959850929598565b5f5f60408385031215613bb457613bb3613810565b5b5f613bc185828601613a06565b9250506020613bd285828601613911565b9150509250929050565b613be581613950565b82525050565b5f602082019050613bfe5f830184613bdc565b92915050565b5f60208284031215613c1957613c18613810565b5b5f613c268482850161396f565b91505092915050565b5f60ff82169050919050565b613c4481613c2f565b8114613c4e575f5ffd5b50565b5f81359050613c5f81613c3b565b92915050565b5f5f5f5f5f5f5f60e0888a031215613c8057613c7f613810565b5b5f613c8d8a828b01613911565b9750506020613c9e8a828b0161396f565b9650506040613caf8a828b0161396f565b9550506060613cc08a828b0161396f565b9450506080613cd18a828b01613c51565b93505060a0613ce28a828b01613a06565b92505060c0613cf38a828b01613a06565b91505092959891949750929550565b5f5f5f60608486031215613d1957613d18613810565b5b5f613d2686828701613911565b9350506020613d378682870161396f565b9250506040613d488682870161396f565b9150509250925092565b5f5f60408385031215613d6857613d67613810565b5b5f613d7585828601613911565b9250506020613d8685828601613911565b9150509250929050565b613d99816138ea565b82525050565b5f602082019050613db25f830184613d90565b92915050565b5f5f60408385031215613dce57613dcd613810565b5b5f613ddb85828601613911565b9250506020613dec8582860161396f565b9150509250929050565b7f43616c6c6572206973206e6f742061646d696e000000000000000000000000005f82015250565b5f613e2a601383613772565b9150613e3582613df6565b602082019050919050565b5f6020820190508181035f830152613e5781613e1e565b9050919050565b7f5a65726f2061646472657373206e6f7420616c6c6f77656400000000000000005f82015250565b5f613e92601883613772565b9150613e9d82613e5e565b602082019050919050565b5f6020820190508181035f830152613ebf81613e86565b9050919050565b7f5a65726f20616d6f756e74206e6f7420616c6c6f7765640000000000000000005f82015250565b5f613efa601783613772565b9150613f0582613ec6565b602082019050919050565b5f6020820190508181035f830152613f2781613eee565b9050919050565b7f556e72656769737465726564207772617070656420746f6b656e0000000000005f82015250565b5f613f62601a83613772565b9150613f6d82613f2e565b602082019050919050565b5f6020820190508181035f830152613f8f81613f56565b9050919050565b7f5a65726f2074617267657420636861696e206e6f7420616c6c6f7765640000005f82015250565b5f613fca601d83613772565b9150613fd582613f96565b602082019050919050565b5f6020820190508181035f830152613ff781613fbe565b9050919050565b7f496e76616c69642074617267657420636861696e0000000000000000000000005f82015250565b5f614032601483613772565b915061403d82613ffe565b602082019050919050565b5f6020820190508181035f83015261405f81614026565b9050919050565b5f6040820190506140795f830185613d90565b6140866020830184613bdc565b9392505050565b7f4e487b71000000000000000000000000000000000000000000000000000000005f52601160045260245ffd5b5f6140c482613950565b91507fffffffffffffffffffffffffffffffffffffffffffffffffffffffffffffffff82036140f6576140f561408d565b5b600182019050919050565b5f6060820190506141145f830186613bdc565b6141216020830185613bdc565b61412e6040830184613bdc565b949350505050565b7f5a65726f206f726967696e616c20636861696e206e6f7420616c6c6f776564005f82015250565b5f61416a601f83613772565b915061417582614136565b602082019050919050565b5f6020820190508181035f8301526141978161415e565b9050919050565b7f496e76616c6964206f726967696e616c20636861696e000000000000000000005f82015250565b5f6141d2601683613772565b91506141dd8261419e565b602082019050919050565b5f6020820190508181035f8301526141ff816141c6565b9050919050565b7f5369676e617475726520657870697265640000000000000000000000000000005f82015250565b5f61423a601183613772565b915061424582614206565b602082019050919050565b5f6020820190508181035f8301526142678161422e565b9050919050565b7f436c61696d20616c72656164792070726f6365737365640000000000000000005f82015250565b5f6142a2601783613772565b91506142ad8261426e565b602082019050919050565b5f6020820190508181035f8301526142cf81614296565b9050919050565b5f8160601b9050919050565b5f6142ec826142d6565b9050919050565b5f6142fd826142e2565b9050919050565b614315614310826138ea565b6142f3565b82525050565b5f819050919050565b61433561433082613950565b61431b565b82525050565b5f614346828b614304565b601482019150614356828a614304565b6014820191506143668289614324565b6020820191506143768288614324565b6020820191506143868287614324565b6020820191506143968286614324565b6020820191506143a68285614304565b6014820191506143b68284614324565b6020820191508190509998505050505050505050565b7f496e76616c6964207369676e61747572650000000000000000000000000000005f82015250565b5f614400601183613772565b915061440b826143cc565b602082019050919050565b5f6020820190508181035f83015261442d816143f4565b9050919050565b5f6040820190506144475f830185613bdc565b6144546020830184613bdc565b9392505050565b7f43616c6c6572206973206e6f74207061757365720000000000000000000000005f82015250565b5f61448f601483613772565b915061449a8261445b565b602082019050919050565b5f6020820190508181035f8301526144bc81614483565b9050919050565b6144cc81613c2f565b82525050565b5f60e0820190506144e55f83018a613d90565b6144f26020830189613d90565b6144ff6040830188613bdc565b61450c6060830187613bdc565b61451960808301866144c3565b61452660a0830185613a45565b61453360c0830184613a45565b98975050505050505050565b5f6060820190506145525f830186613d90565b61455f6020830185613d90565b61456c6040830184613bdc565b949350505050565b61457d81613898565b8114614587575f5ffd5b50565b5f8151905061459881614574565b92915050565b5f602082840312156145b3576145b2613810565b5b5f6145c08482850161458a565b91505092915050565b7f546f6b656e207472616e73666572206661696c656400000000000000000000005f82015250565b5f6145fd601583613772565b9150614608826145c9565b602082019050919050565b5f6020820190508181035f83015261462a816145f1565b9050919050565b7f496e73756666696369656e742062616c616e63650000000000000000000000005f82015250565b5f614665601483613772565b915061467082614631565b602082019050919050565b5f6020820190508181035f83015261469281614659565b9050919050565b7f4f726967696e616c20746f6b656e20616c7265616479207265676973746572655f8201527f6400000000000000000000000000000000000000000000000000000000000000602082015250565b5f6146f3602183613772565b91506146fe82614699565b604082019050919050565b5f6020820190508181035f830152614720816146e7565b9050919050565b7f5772617070656420746f6b656e20616c726561647920726567697374657265645f82015250565b5f61475b602083613772565b915061476682614727565b602082019050919050565b5f6020820190508181035f8301526147888161474f565b9050919050565b5f81905092915050565b50565b5f6147a75f8361478f565b91506147b282614799565b5f82019050919050565b5f6147c68261479c565b9150819050919050565b7f455448207472616e73666572206661696c6564000000000000000000000000005f82015250565b5f614804601383613772565b915061480f826147d0565b602082019050919050565b5f6020820190508181035f830152614831816147f8565b9050919050565b7f4e487b71000000000000000000000000000000000000000000000000000000005f52602160045260245ffd5b5f6040820190506148785f830185613d90565b6148856020830184613a45565b9392505050565b5f60808201905061489f5f830187613a45565b6148ac60208301866144c3565b6148b96040830185613a45565b6148c66060830184613a45565b9594505050505056fea26469706673582212207b55e1d285117c9a2ed6fd1ec68d79a6f6c3093ec6d5bcd77edaea6ab558751664736f6c634300081d0033","linkReferences":{}},"methodIdentifiers":{"ADMIN_ROLE()":"75b238fc","DEFAULT_ADMIN_ROLE()":"a217fddf","PAUSER_ROLE()":"e63ab1e9","RELAYER_ROLE()":"926d7d7f","burnWrappedForReturn(address,address,uint256,uint256)":"28a0615e","claimOriginalWithSignature(address,address,uint256,uint256,uint256,uint256,uint256,bytes)":"87c4d08c","claimWrappedWithSignature(address,address,uint256,uint256,uint256,uint256,uint256,bytes)":"29ee8c24","currentChainId()":"6cbadbfa","emergencyWithdrawETH(address,uint256)":"d79e8567","getRoleAdmin(bytes32)":"248a9ca3","grantPauserRole(address)":"6c11c21c","grantRelayerRole(address)":"1e0af67e","grantRole(bytes32,address)":"2f2ff15d","hasRole(bytes32,address)":"91d14854","lockNative(uint256)":"71e75408","lockToken(address,uint256,uint256)":"839972f9","lockTokenWithPermit(address,uint256,uint256,uint256,uint8,bytes32,bytes32)":"8230f7e7","nonces(address,address)":"9333fbda","originalTokens(address)":"f74032f0","pause()":"8456cb59","paused()":"5c975abb","registerWrappedToken(address,address)":"dc56c390","renounceRole(bytes32,address)":"36568abe","revokePauserRole(address)":"f865af08","revokeRelayerRole(address)":"142b7b37","revokeRole(bytes32,address)":"d547741f","supportsInterface(bytes4)":"01ffc9a7","unpause()":"3f4ba83a","usedNonces(address,address,uint256,uint256)":"14d3134d","wrappedTokens(address)":"d5c6b504"},"id":42}