{"abi":[{"type":"constructor","inputs":[],"stateMutability":"nonpayable"},{"type":"fallback","stateMutability":"payable"},{"type":"receive","stateMutability":"payable"},{"type":"function","name":"ADMIN_ROLE","inputs":[],"outputs":[{"name":"","type":"bytes32","internalType":"bytes32"}],"stateMutability":"view"},{"type":"function","name":"DEFAULT_ADMIN_ROLE","inputs":[],"outputs":[{"name":"","type":"bytes32","internalType":"bytes32"}],"stateMutability":"view"},{"type":"function","name":"PAUSER_ROLE","inputs":[],"outputs":[{"name":"","type":"bytes32","internalType":"bytes32"}],"stateMutability":"view"},{"type":"function","name":"RELAYER_ROLE","inputs":[],"outputs":[{"name":"","type":"bytes32","internalType":"bytes32"}],"stateMutability":"view"},{"type":"function","name":"burnWrappedForReturn","inputs":[{"name":"wrappedToken","type":"address","internalType":"address"},{"name":"targetToken","type":"address","internalType":"address"},{"name":"amount","type":"uint256","internalType":"uint256"},{"name":"targetChainId","type":"uint256","internalType":"uint256"},{"name":"nonce","type":"uint256","internalType":"uint256"}],"outputs":[],"stateMutability":"nonpayable"},{"type":"function","name":"claimOriginalWithSignature","inputs":[{"name":"user","type":"address","internalType":"address"},{"name":"token","type":"address","internalType":"address"},{"name":"amount","type":"uint256","internalType":"uint256"},{"name":"nonce","type":"uint256","internalType":"uint256"},{"name":"sourceChainId","type":"uint256","internalType":"uint256"},{"name":"signature","type":"bytes","internalType":"bytes"}],"outputs":[],"stateMutability":"nonpayable"},{"type":"function","name":"claimWrappedWithSignature","inputs":[{"name":"user","type":"address","internalType":"address"},{"name":"token","type":"address","internalType":"address"},{"name":"amount","type":"uint256","internalType":"uint256"},{"name":"nonce","type":"uint256","internalType":"uint256"},{"name":"sourceChainId","type":"uint256","internalType":"uint256"},{"name":"signature","type":"bytes","internalType":"bytes"}],"outputs":[],"stateMutability":"nonpayable"},{"type":"function","name":"currentChainId","inputs":[],"outputs":[{"name":"","type":"uint256","internalType":"uint256"}],"stateMutability":"view"},{"type":"function","name":"emergencyWithdrawETH","inputs":[{"name":"to","type":"address","internalType":"address"},{"name":"amount","type":"uint256","internalType":"uint256"}],"outputs":[],"stateMutability":"nonpayable"},{"type":"function","name":"getRoleAdmin","inputs":[{"name":"role","type":"bytes32","internalType":"bytes32"}],"outputs":[{"name":"","type":"bytes32","internalType":"bytes32"}],"stateMutability":"view"},{"type":"function","name":"grantPauserRole","inputs":[{"name":"account","type":"address","internalType":"address"}],"outputs":[],"stateMutability":"nonpayable"},{"type":"function","name":"grantRelayerRole","inputs":[{"name":"account","type":"address","internalType":"address"}],"outputs":[],"stateMutability":"nonpayable"},{"type":"function","name":"grantRole","inputs":[{"name":"role","type":"bytes32","internalType":"bytes32"},{"name":"account","type":"address","internalType":"address"}],"outputs":[],"stateMutability":"nonpayable"},{"type":"function","name":"hasRole","inputs":[{"name":"role","type":"bytes32","internalType":"bytes32"},{"name":"account","type":"address","internalType":"address"}],"outputs":[{"name":"","type":"bool","internalType":"bool"}],"stateMutability":"view"},{"type":"function","name":"lockNative","inputs":[{"name":"targetChainId","type":"uint256","internalType":"uint256"},{"name":"nonce","type":"uint256","internalType":"uint256"}],"outputs":[],"stateMutability":"payable"},{"type":"function","name":"lockToken","inputs":[{"name":"token","type":"address","internalType":"address"},{"name":"amount","type":"uint256","internalType":"uint256"},{"name":"targetChainId","type":"uint256","internalType":"uint256"},{"name":"nonce","type":"uint256","internalType":"uint256"}],"outputs":[],"stateMutability":"nonpayable"},{"type":"function","name":"lockTokenWithPermit","inputs":[{"name":"token","type":"address","internalType":"address"},{"name":"amount","type":"uint256","internalType":"uint256"},{"name":"targetChainId","type":"uint256","internalType":"uint256"},{"name":"nonce","type":"uint256","internalType":"uint256"},{"name":"deadline","type":"uint256","internalType":"uint256"},{"name":"v","type":"uint8","internalType":"uint8"},{"name":"r","type":"bytes32","internalType":"bytes32"},{"name":"s","type":"bytes32","internalType":"bytes32"}],"outputs":[],"stateMutability":"nonpayable"},{"type":"function","name":"originalTokens","inputs":[{"name":"","type":"address","internalType":"address"}],"outputs":[{"name":"","type":"address","internalType":"address"}],"stateMutability":"view"},{"type":"function","name":"pause","inputs":[],"outputs":[],"stateMutability":"nonpayable"},{"type":"function","name":"paused","inputs":[],"outputs":[{"name":"","type":"bool","internalType":"bool"}],"stateMutability":"view"},{"type":"function","name":"registerWrappedToken","inputs":[{"name":"originalToken","type":"address","internalType":"address"},{"name":"wrappedToken","type":"address","internalType":"address"}],"outputs":[],"stateMutability":"nonpayable"},{"type":"function","name":"renounceRole","inputs":[{"name":"role","type":"bytes32","internalType":"bytes32"},{"name":"callerConfirmation","type":"address","internalType":"address"}],"outputs":[],"stateMutability":"nonpayable"},{"type":"function","name":"revokePauserRole","inputs":[{"name":"account","type":"address","internalType":"address"}],"outputs":[],"stateMutability":"nonpayable"},{"type":"function","name":"revokeRelayerRole","inputs":[{"name":"account","type":"address","internalType":"address"}],"outputs":[],"stateMutability":"nonpayable"},{"type":"function","name":"revokeRole","inputs":[{"name":"role","type":"bytes32","internalType":"bytes32"},{"name":"account","type":"address","internalType":"address"}],"outputs":[],"stateMutability":"nonpayable"},{"type":"function","name":"supportsInterface","inputs":[{"name":"interfaceId","type":"bytes4","internalType":"bytes4"}],"outputs":[{"name":"","type":"bool","internalType":"bool"}],"stateMutability":"view"},{"type":"function","name":"unpause","inputs":[],"outputs":[],"stateMutability":"nonpayable"},{"type":"function","name":"usedNonces","inputs":[{"name":"","type":"address","internalType":"address"},{"name":"","type":"uint256","internalType":"uint256"},{"name":"","type":"uint256","internalType":"uint256"}],"outputs":[{"name":"","type":"bool","internalType":"bool"}],"stateMutability":"view"},{"type":"function","name":"wrappedTokens","inputs":[{"name":"","type":"address","internalType":"address"}],"outputs":[{"name":"","type":"address","internalType":"address"}],"stateMutability":"view"},{"type":"event","name":"EmergencyETHWithdrawal","inputs":[{"name":"to","type":"address","indexed":true,"internalType":"address"},{"name":"amount","type":"uint256","indexed":false,"internalType":"uint256"}],"anonymous":false},{"type":"event","name":"NativeClaimed","inputs":[{"name":"user","type":"address","indexed":true,"internalType":"address"},{"name":"amount","type":"uint256","indexed":false,"internalType":"uint256"},{"name":"txHash","type":"bytes32","indexed":true,"internalType":"bytes32"}],"anonymous":false},{"type":"event","name":"NativeLocked","inputs":[{"name":"user","type":"address","indexed":true,"internalType":"address"},{"name":"amount","type":"uint256","indexed":false,"internalType":"uint256"},{"name":"targetChainId","type":"uint256","indexed":false,"internalType":"uint256"},{"name":"nonce","type":"uint256","indexed":false,"internalType":"uint256"}],"anonymous":false},{"type":"event","name":"NativeReleased","inputs":[{"name":"user","type":"address","indexed":true,"internalType":"address"},{"name":"amount","type":"uint256","indexed":false,"internalType":"uint256"}],"anonymous":false},{"type":"event","name":"Paused","inputs":[{"name":"account","type":"address","indexed":false,"internalType":"address"}],"anonymous":false},{"type":"event","name":"RoleAdminChanged","inputs":[{"name":"role","type":"bytes32","indexed":true,"internalType":"bytes32"},{"name":"previousAdminRole","type":"bytes32","indexed":true,"internalType":"bytes32"},{"name":"newAdminRole","type":"bytes32","indexed":true,"internalType":"bytes32"}],"anonymous":false},{"type":"event","name":"RoleGranted","inputs":[{"name":"role","type":"bytes32","indexed":true,"internalType":"bytes32"},{"name":"account","type":"address","indexed":true,"internalType":"address"},{"name":"sender","type":"address","indexed":true,"internalType":"address"}],"anonymous":false},{"type":"event","name":"RoleRevoked","inputs":[{"name":"role","type":"bytes32","indexed":true,"internalType":"bytes32"},{"name":"account","type":"address","indexed":true,"internalType":"address"},{"name":"sender","type":"address","indexed":true,"internalType":"address"}],"anonymous":false},{"type":"event","name":"TokenBurned","inputs":[{"name":"user","type":"address","indexed":true,"internalType":"address"},{"name":"wrappedToken","type":"address","indexed":true,"internalType":"address"},{"name":"amount","type":"uint256","indexed":false,"internalType":"uint256"},{"name":"targetChainId","type":"uint256","indexed":false,"internalType":"uint256"},{"name":"nonce","type":"uint256","indexed":false,"internalType":"uint256"}],"anonymous":false},{"type":"event","name":"TokenClaimed","inputs":[{"name":"user","type":"address","indexed":true,"internalType":"address"},{"name":"token","type":"address","indexed":true,"internalType":"address"},{"name":"amount","type":"uint256","indexed":false,"internalType":"uint256"},{"name":"txHash","type":"bytes32","indexed":true,"internalType":"bytes32"}],"anonymous":false},{"type":"event","name":"TokenLocked","inputs":[{"name":"user","type":"address","indexed":true,"internalType":"address"},{"name":"token","type":"address","indexed":true,"internalType":"address"},{"name":"amount","type":"uint256","indexed":false,"internalType":"uint256"},{"name":"targetChainId","type":"uint256","indexed":false,"internalType":"uint256"},{"name":"nonce","type":"uint256","indexed":false,"internalType":"uint256"}],"anonymous":false},{"type":"event","name":"TokenReleased","inputs":[{"name":"user","type":"address","indexed":true,"internalType":"address"},{"name":"token","type":"address","indexed":true,"internalType":"address"},{"name":"amount","type":"uint256","indexed":false,"internalType":"uint256"}],"anonymous":false},{"type":"event","name":"Unpaused","inputs":[{"name":"account","type":"address","indexed":false,"internalType":"address"}],"anonymous":false},{"type":"event","name":"WrappedTokenRegistered","inputs":[{"name":"originalToken","type":"address","indexed":true,"internalType":"address"},{"name":"wrappedToken","type":"address","indexed":true,"internalType":"address"}],"anonymous":false},{"type":"error","name":"AccessControlBadConfirmation","inputs":[]},{"type":"error","name":"AccessControlUnauthorizedAccount","inputs":[{"name":"account","type":"address","internalType":"address"},{"name":"neededRole","type":"bytes32","internalType":"bytes32"}]},{"type":"error","name":"CallerIsNotAdmin","inputs":[]},{"type":"error","name":"CallerIsNotPauser","inputs":[]},{"type":"error","name":"ClaimAlreadyProcessed","inputs":[]},{"type":"error","name":"DirectEthTransfersNotSupported","inputs":[]},{"type":"error","name":"ECDSAInvalidSignature","inputs":[]},{"type":"error","name":"ECDSAInvalidSignatureLength","inputs":[{"name":"length","type":"uint256","internalType":"uint256"}]},{"type":"error","name":"ECDSAInvalidSignatureS","inputs":[{"name":"s","type":"bytes32","internalType":"bytes32"}]},{"type":"error","name":"EmptyTargetChain","inputs":[]},{"type":"error","name":"EnforcedPause","inputs":[]},{"type":"error","name":"EthTransferFailed","inputs":[]},{"type":"error","name":"ExpectedPause","inputs":[]},{"type":"error","name":"InsufficientBalance","inputs":[{"name":"balance","type":"uint256","internalType":"uint256"},{"name":"amount","type":"uint256","internalType":"uint256"}]},{"type":"error","name":"InvalidSignature","inputs":[]},{"type":"error","name":"InvalidTargetChain","inputs":[]},{"type":"error","name":"OriginalTokenAlreadyRegistered","inputs":[]},{"type":"error","name":"ReentrancyGuardReentrantCall","inputs":[]},{"type":"error","name":"TokenTransferFailed","inputs":[]},{"type":"error","name":"UnregisteredWrappedToken","inputs":[]},{"type":"error","name":"WrappedTokenAlreadyRegistered","inputs":[]},{"type":"error","name":"ZeroAddressProvided","inputs":[]},{"type":"error","name":"ZeroAmountNotAllowed","inputs":[]}],"bytecode":{"object":"0x60a060405234801561000f575f5ffd5b506001808190555046608081815250505f3390506100355f5f1b826100ee60201b60201c565b506100667fa49807205ce4d355092ef5a8a18f56e8913cf4a201fbe287825b095693c21775826100ee60201b60201c565b506100977f65d7a28e3265b37a6474929f336521b332c1681b933f6cb9f3376673440d862a826100ee60201b60201c565b506100e87f65d7a28e3265b37a6474929f336521b332c1681b933f6cb9f3376673440d862a7fa49807205ce4d355092ef5a8a18f56e8913cf4a201fbe287825b095693c217756101e360201b60201c565b506102c7565b5f6100ff838361024160201b60201c565b6101d95760015f5f8581526020019081526020015f205f015f8473ffffffffffffffffffffffffffffffffffffffff1673ffffffffffffffffffffffffffffffffffffffff1681526020019081526020015f205f6101000a81548160ff0219169083151502179055506101766102a460201b60201c565b73ffffffffffffffffffffffffffffffffffffffff168273ffffffffffffffffffffffffffffffffffffffff16847f2f8788117e7eff1d82e926ec794901d17c78024a50270940304540a733656f0d60405160405180910390a4600190506101dd565b5f90505b92915050565b5f6101f3836102ab60201b60201c565b9050815f5f8581526020019081526020015f20600101819055508181847fbd79b86ffe0ab8e8776151514217cd7cacd52c909f66475c3af44e129f0b00ff60405160405180910390a4505050565b5f5f5f8481526020019081526020015f205f015f8373ffffffffffffffffffffffffffffffffffffffff1673ffffffffffffffffffffffffffffffffffffffff1681526020019081526020015f205f9054906101000a900460ff16905092915050565b5f33905090565b5f5f5f8381526020019081526020015f20600101549050919050565b608051613e4c6102ed5f395f81816110a7015281816111d60152611c2b0152613e4c5ff3fe6080604052600436106101c5575f3560e01c80638456cb59116100f6578063b68d7a0a11610094578063dc56c39011610063578063dc56c39014610654578063e63ab1e91461067c578063f74032f0146106a6578063f865af08146106e2576101fc565b8063b68d7a0a146105a0578063d547741f146105c8578063d5c6b504146105f0578063d79e85671461062c576101fc565b80639285be46116100d05780639285be46146104f6578063a217fddf14610512578063a59e10e61461053c578063b4ad277314610578576101fc565b80638456cb591461047a57806391d1485414610490578063926d7d7f146104cc576101fc565b80633f4ba83a116101635780636c32461d1161013d5780636c32461d146103d65780636cbadbfa146103fe57806375b238fc146104285780637ac857b514610452576101fc565b80633f4ba83a1461036e5780635c975abb146103845780636c11c21c146103ae576101fc565b8063248a9ca31161019f578063248a9ca3146102ba5780632f2ff15d146102f657806336568abe1461031e5780633aa8914014610346576101fc565b806301ffc9a71461022e578063142b7b371461026a5780631e0af67e14610292576101fc565b366101fc576040517f94e44f7600000000000000000000000000000000000000000000000000000000815260040160405180910390fd5b6040517f94e44f7600000000000000000000000000000000000000000000000000000000815260040160405180910390fd5b348015610239575f5ffd5b50610254600480360381019061024f9190613130565b61070a565b6040516102619190613175565b60405180910390f35b348015610275575f5ffd5b50610290600480360381019061028b91906131e8565b610783565b005b34801561029d575f5ffd5b506102b860048036038101906102b391906131e8565b610875565b005b3480156102c5575f5ffd5b506102e060048036038101906102db9190613246565b610967565b6040516102ed9190613280565b60405180910390f35b348015610301575f5ffd5b5061031c60048036038101906103179190613299565b610983565b005b348015610329575f5ffd5b50610344600480360381019061033f9190613299565b6109a5565b005b348015610351575f5ffd5b5061036c60048036038101906103679190613340565b610a20565b005b348015610379575f5ffd5b50610382610ce5565b005b34801561038f575f5ffd5b50610398610d4f565b6040516103a59190613175565b60405180910390f35b3480156103b9575f5ffd5b506103d460048036038101906103cf91906131e8565b610d64565b005b3480156103e1575f5ffd5b506103fc60048036038101906103f791906133f1565b610e56565b005b348015610409575f5ffd5b506104126110a5565b60405161041f9190613464565b60405180910390f35b348015610433575f5ffd5b5061043c6110c9565b6040516104499190613280565b60405180910390f35b34801561045d575f5ffd5b50610478600480360381019061047391906134de565b6110ed565b005b348015610485575f5ffd5b5061048e6115ef565b005b34801561049b575f5ffd5b506104b660048036038101906104b19190613299565b611659565b6040516104c39190613175565b60405180910390f35b3480156104d7575f5ffd5b506104e06116bc565b6040516104ed9190613280565b60405180910390f35b610510600480360381019061050b9190613588565b6116e0565b005b34801561051d575f5ffd5b506105266117e9565b6040516105339190613280565b60405180910390f35b348015610547575f5ffd5b50610562600480360381019061055d91906135c6565b6117ef565b60405161056f9190613175565b60405180910390f35b348015610583575f5ffd5b5061059e60048036038101906105999190613616565b611824565b005b3480156105ab575f5ffd5b506105c660048036038101906105c191906134de565b611b27565b005b3480156105d3575f5ffd5b506105ee60048036038101906105e99190613299565b612251565b005b3480156105fb575f5ffd5b50610616600480360381019061061191906131e8565b612273565b604051610623919061369c565b60405180910390f35b348015610637575f5ffd5b50610652600480360381019061064d91906136b5565b6122a3565b005b34801561065f575f5ffd5b5061067a600480360381019061067591906136f3565b61247e565b005b348015610687575f5ffd5b506106906127b4565b60405161069d9190613280565b60405180910390f35b3480156106b1575f5ffd5b506106cc60048036038101906106c791906131e8565b6127d8565b6040516106d9919061369c565b60405180910390f35b3480156106ed575f5ffd5b50610708600480360381019061070391906131e8565b612808565b005b5f7f7965db0b000000000000000000000000000000000000000000000000000000007bffffffffffffffffffffffffffffffffffffffffffffffffffffffff1916827bffffffffffffffffffffffffffffffffffffffffffffffffffffffff1916148061077c575061077b826128fa565b5b9050919050565b6107ad7fa49807205ce4d355092ef5a8a18f56e8913cf4a201fbe287825b095693c2177533611659565b6107e3576040517f8dfa73db00000000000000000000000000000000000000000000000000000000815260040160405180910390fd5b5f73ffffffffffffffffffffffffffffffffffffffff168173ffffffffffffffffffffffffffffffffffffffff1603610848576040517f8474420100000000000000000000000000000000000000000000000000000000815260040160405180910390fd5b6108727fe2b7fb3b832174769106daebcfd6d1970523240dda11281102db9363b83b0dc482612251565b50565b61089f7fa49807205ce4d355092ef5a8a18f56e8913cf4a201fbe287825b095693c2177533611659565b6108d5576040517f8dfa73db00000000000000000000000000000000000000000000000000000000815260040160405180910390fd5b5f73ffffffffffffffffffffffffffffffffffffffff168173ffffffffffffffffffffffffffffffffffffffff160361093a576040517f8474420100000000000000000000000000000000000000000000000000000000815260040160405180910390fd5b6109647fe2b7fb3b832174769106daebcfd6d1970523240dda11281102db9363b83b0dc482610983565b50565b5f5f5f8381526020019081526020015f20600101549050919050565b61098c82610967565b61099581612963565b61099f8383612977565b50505050565b6109ad612a60565b73ffffffffffffffffffffffffffffffffffffffff168173ffffffffffffffffffffffffffffffffffffffff1614610a11576040517f6697b23200000000000000000000000000000000000000000000000000000000815260040160405180910390fd5b610a1b8282612a67565b505050565b610a28612b50565b610a30612b91565b5f73ffffffffffffffffffffffffffffffffffffffff168873ffffffffffffffffffffffffffffffffffffffff1603610a95576040517f8474420100000000000000000000000000000000000000000000000000000000815260040160405180910390fd5b5f8703610ace576040517f0f43956a00000000000000000000000000000000000000000000000000000000815260040160405180910390fd5b5f8603610b07576040517f6c0a76fa00000000000000000000000000000000000000000000000000000000815260040160405180910390fd5b468603610b40576040517f376f6e4a00000000000000000000000000000000000000000000000000000000815260040160405180910390fd5b8773ffffffffffffffffffffffffffffffffffffffff1663d505accf33308a888888886040518863ffffffff1660e01b8152600401610b859796959493929190613740565b5f604051808303815f87803b158015610b9c575f5ffd5b505af1158015610bae573d5f5f3e3d5ffd5b505050505f8873ffffffffffffffffffffffffffffffffffffffff166323b872dd33308b6040518463ffffffff1660e01b8152600401610bf0939291906137ad565b6020604051808303815f875af1158015610c0c573d5f5f3e3d5ffd5b505050506040513d601f19601f82011682018060405250810190610c30919061380c565b905080610c69576040517f045c4b0200000000000000000000000000000000000000000000000000000000815260040160405180910390fd5b8873ffffffffffffffffffffffffffffffffffffffff163373ffffffffffffffffffffffffffffffffffffffff167f6edd85519fe7bf8ae3e7c89e6378ac3a3a4c787c65e56793bf70c12fafffb1588a8a8a604051610cca93929190613837565b60405180910390a350610cdb612bd7565b5050505050505050565b610d0f7f65d7a28e3265b37a6474929f336521b332c1681b933f6cb9f3376673440d862a33611659565b610d45576040517fdaeefd6500000000000000000000000000000000000000000000000000000000815260040160405180910390fd5b610d4d612be0565b565b5f60025f9054906101000a900460ff16905090565b610d8e7fa49807205ce4d355092ef5a8a18f56e8913cf4a201fbe287825b095693c2177533611659565b610dc4576040517f8dfa73db00000000000000000000000000000000000000000000000000000000815260040160405180910390fd5b5f73ffffffffffffffffffffffffffffffffffffffff168173ffffffffffffffffffffffffffffffffffffffff1603610e29576040517f8474420100000000000000000000000000000000000000000000000000000000815260040160405180910390fd5b610e537f65d7a28e3265b37a6474929f336521b332c1681b933f6cb9f3376673440d862a82610983565b50565b610e5e612b50565b610e66612b91565b5f73ffffffffffffffffffffffffffffffffffffffff168473ffffffffffffffffffffffffffffffffffffffff1603610ecb576040517f8474420100000000000000000000000000000000000000000000000000000000815260040160405180910390fd5b5f8303610f04576040517f0f43956a00000000000000000000000000000000000000000000000000000000815260040160405180910390fd5b5f8203610f3d576040517f6c0a76fa00000000000000000000000000000000000000000000000000000000815260040160405180910390fd5b468203610f76576040517f376f6e4a00000000000000000000000000000000000000000000000000000000815260040160405180910390fd5b5f8473ffffffffffffffffffffffffffffffffffffffff166323b872dd3330876040518463ffffffff1660e01b8152600401610fb4939291906137ad565b6020604051808303815f875af1158015610fd0573d5f5f3e3d5ffd5b505050506040513d601f19601f82011682018060405250810190610ff4919061380c565b90508061102d576040517f045c4b0200000000000000000000000000000000000000000000000000000000815260040160405180910390fd5b8473ffffffffffffffffffffffffffffffffffffffff163373ffffffffffffffffffffffffffffffffffffffff167f6edd85519fe7bf8ae3e7c89e6378ac3a3a4c787c65e56793bf70c12fafffb15886868660405161108e93929190613837565b60405180910390a35061109f612bd7565b50505050565b7f000000000000000000000000000000000000000000000000000000000000000081565b7fa49807205ce4d355092ef5a8a18f56e8913cf4a201fbe287825b095693c2177581565b6110f5612b91565b6110fd612b50565b5f73ffffffffffffffffffffffffffffffffffffffff168773ffffffffffffffffffffffffffffffffffffffff1603611162576040517f8474420100000000000000000000000000000000000000000000000000000000815260040160405180910390fd5b5f850361119b576040517f0f43956a00000000000000000000000000000000000000000000000000000000815260040160405180910390fd5b5f83036111d4576040517f6c0a76fa00000000000000000000000000000000000000000000000000000000815260040160405180910390fd5b7f0000000000000000000000000000000000000000000000000000000000000000830361122d576040517f376f6e4a00000000000000000000000000000000000000000000000000000000815260040160405180910390fd5b60055f8873ffffffffffffffffffffffffffffffffffffffff1673ffffffffffffffffffffffffffffffffffffffff1681526020019081526020015f205f8581526020019081526020015f205f8481526020019081526020015f205f9054906101000a900460ff16156112cc576040517f4b34e6d900000000000000000000000000000000000000000000000000000000815260040160405180910390fd5b5f8787878787306040516020016112e8969594939291906138d1565b6040516020818303038152906040528051906020012090505f61130a82612c41565b90505f61135a8286868080601f0160208091040260200160405190810160405280939291908181526020018383808284375f81840152601f19601f82011690508083019250505050505050612c74565b90506113867fe2b7fb3b832174769106daebcfd6d1970523240dda11281102db9363b83b0dc482611659565b6113bc576040517f8baa579f00000000000000000000000000000000000000000000000000000000815260040160405180910390fd5b600160055f8c73ffffffffffffffffffffffffffffffffffffffff1673ffffffffffffffffffffffffffffffffffffffff1681526020019081526020015f205f8981526020019081526020015f205f8881526020019081526020015f205f6101000a81548160ff0219169083151502179055505f73ffffffffffffffffffffffffffffffffffffffff168973ffffffffffffffffffffffffffffffffffffffff16036114bf5761146c8a89612c9e565b8973ffffffffffffffffffffffffffffffffffffffff167f83e746f734bb21d4015d4a7c1b5c280bc3e9cf3c7d6f5ab7772bf00804f3529a896040516114b29190613464565b60405180910390a26115db565b5f8973ffffffffffffffffffffffffffffffffffffffff1663a9059cbb8c8b6040518363ffffffff1660e01b81526004016114fb929190613940565b6020604051808303815f875af1158015611517573d5f5f3e3d5ffd5b505050506040513d601f19601f8201168201806040525081019061153b919061380c565b905080611574576040517f045c4b0200000000000000000000000000000000000000000000000000000000815260040160405180910390fd5b8973ffffffffffffffffffffffffffffffffffffffff168b73ffffffffffffffffffffffffffffffffffffffff167fa5fa891a402945a5916b3b11763e3446525ced0e1d55a45cb3d3024f22ce44868b6040516115d19190613464565b60405180910390a3505b5050506115e6612bd7565b50505050505050565b6116197f65d7a28e3265b37a6474929f336521b332c1681b933f6cb9f3376673440d862a33611659565b61164f576040517fdaeefd6500000000000000000000000000000000000000000000000000000000815260040160405180910390fd5b611657612d42565b565b5f5f5f8481526020019081526020015f205f015f8373ffffffffffffffffffffffffffffffffffffffff1673ffffffffffffffffffffffffffffffffffffffff1681526020019081526020015f205f9054906101000a900460ff16905092915050565b7fe2b7fb3b832174769106daebcfd6d1970523240dda11281102db9363b83b0dc481565b6116e8612b50565b5f8203611721576040517f6c0a76fa00000000000000000000000000000000000000000000000000000000815260040160405180910390fd5b5f340361175a576040517f0f43956a00000000000000000000000000000000000000000000000000000000815260040160405180910390fd5b468203611793576040517f376f6e4a00000000000000000000000000000000000000000000000000000000815260040160405180910390fd5b3373ffffffffffffffffffffffffffffffffffffffff167fc42ad39b6a401a299e78bb3955a8e231dde84876e4129dbe3cbeae53aab6a7173484846040516117dd93929190613837565b60405180910390a25050565b5f5f1b81565b6005602052825f5260405f20602052815f5260405f20602052805f5260405f205f92509250509054906101000a900460ff1681565b61182c612b50565b5f73ffffffffffffffffffffffffffffffffffffffff168573ffffffffffffffffffffffffffffffffffffffff16148061189157505f73ffffffffffffffffffffffffffffffffffffffff168473ffffffffffffffffffffffffffffffffffffffff16145b156118d1576040517f08c379a00000000000000000000000000000000000000000000000000000000081526004016118c8906139c1565b60405180910390fd5b5f8303611913576040517f08c379a000000000000000000000000000000000000000000000000000000000815260040161190a90613a29565b60405180910390fd5b8373ffffffffffffffffffffffffffffffffffffffff1660045f8773ffffffffffffffffffffffffffffffffffffffff1673ffffffffffffffffffffffffffffffffffffffff1681526020019081526020015f205f9054906101000a900473ffffffffffffffffffffffffffffffffffffffff1673ffffffffffffffffffffffffffffffffffffffff16146119dd576040517f08c379a00000000000000000000000000000000000000000000000000000000081526004016119d490613a91565b60405180910390fd5b5f8203611a16576040517f6c0a76fa00000000000000000000000000000000000000000000000000000000815260040160405180910390fd5b468203611a4f576040517f376f6e4a00000000000000000000000000000000000000000000000000000000815260040160405180910390fd5b8473ffffffffffffffffffffffffffffffffffffffff166374f4f54733856040518363ffffffff1660e01b8152600401611a8a929190613940565b5f604051808303815f87803b158015611aa1575f5ffd5b505af1158015611ab3573d5f5f3e3d5ffd5b505050508473ffffffffffffffffffffffffffffffffffffffff163373ffffffffffffffffffffffffffffffffffffffff167f4e7e33fed32da85495901f14600268e58dc822c010a665994978ed045a914319858585604051611b1893929190613837565b60405180910390a35050505050565b611b2f612b91565b611b37612b50565b5f73ffffffffffffffffffffffffffffffffffffffff168773ffffffffffffffffffffffffffffffffffffffff1603611ba5576040517f08c379a0000000000000000000000000000000000000000000000000000000008152600401611b9c906139c1565b60405180910390fd5b5f8511611be7576040517f08c379a0000000000000000000000000000000000000000000000000000000008152600401611bde90613a29565b60405180910390fd5b5f8303611c29576040517f08c379a0000000000000000000000000000000000000000000000000000000008152600401611c2090613af9565b60405180910390fd5b7f00000000000000000000000000000000000000000000000000000000000000008303611c8b576040517f08c379a0000000000000000000000000000000000000000000000000000000008152600401611c8290613b61565b60405180910390fd5b60055f8873ffffffffffffffffffffffffffffffffffffffff1673ffffffffffffffffffffffffffffffffffffffff1681526020019081526020015f205f8581526020019081526020015f205f8481526020019081526020015f205f9054906101000a900460ff1615611d33576040517f08c379a0000000000000000000000000000000000000000000000000000000008152600401611d2a90613bc9565b60405180910390fd5b5f878787878730604051602001611d4f969594939291906138d1565b6040516020818303038152906040528051906020012090505f611d7182612c41565b90505f611dc18286868080601f0160208091040260200160405190810160405280939291908181526020018383808284375f81840152601f19601f82011690508083019250505050505050612c74565b9050611ded7fe2b7fb3b832174769106daebcfd6d1970523240dda11281102db9363b83b0dc482611659565b611e2c576040517f08c379a0000000000000000000000000000000000000000000000000000000008152600401611e2390613c31565b60405180910390fd5b600160055f8c73ffffffffffffffffffffffffffffffffffffffff1673ffffffffffffffffffffffffffffffffffffffff1681526020019081526020015f205f8981526020019081526020015f205f8881526020019081526020015f205f6101000a81548160ff0219169083151502179055505f83604051602001611eb19190613c6f565b6040516020818303038152906040528051906020012090505f73ffffffffffffffffffffffffffffffffffffffff168a73ffffffffffffffffffffffffffffffffffffffff160361209e575f60035f5f73ffffffffffffffffffffffffffffffffffffffff1673ffffffffffffffffffffffffffffffffffffffff1681526020019081526020015f205f9054906101000a900473ffffffffffffffffffffffffffffffffffffffff1690505f73ffffffffffffffffffffffffffffffffffffffff168173ffffffffffffffffffffffffffffffffffffffff1603611fca576040517f08c379a0000000000000000000000000000000000000000000000000000000008152600401611fc190613cf9565b60405180910390fd5b8073ffffffffffffffffffffffffffffffffffffffff16638c2a993e8d8c6040518363ffffffff1660e01b8152600401612005929190613940565b5f604051808303815f87803b15801561201c575f5ffd5b505af115801561202e573d5f5f3e3d5ffd5b50505050815f73ffffffffffffffffffffffffffffffffffffffff168d73ffffffffffffffffffffffffffffffffffffffff167f5d881ede5d7f070bb0e0cf014b5c64194e40f194221b15fcb4672dd7188481038d6040516120909190613464565b60405180910390a45061223c565b5f60035f8c73ffffffffffffffffffffffffffffffffffffffff1673ffffffffffffffffffffffffffffffffffffffff1681526020019081526020015f205f9054906101000a900473ffffffffffffffffffffffffffffffffffffffff1690505f73ffffffffffffffffffffffffffffffffffffffff168173ffffffffffffffffffffffffffffffffffffffff160361216c576040517f08c379a000000000000000000000000000000000000000000000000000000000815260040161216390613a91565b60405180910390fd5b8073ffffffffffffffffffffffffffffffffffffffff16638c2a993e8d8c6040518363ffffffff1660e01b81526004016121a7929190613940565b5f604051808303815f87803b1580156121be575f5ffd5b505af11580156121d0573d5f5f3e3d5ffd5b50505050818b73ffffffffffffffffffffffffffffffffffffffff168d73ffffffffffffffffffffffffffffffffffffffff167f5d881ede5d7f070bb0e0cf014b5c64194e40f194221b15fcb4672dd7188481038d6040516122329190613464565b60405180910390a4505b50505050612248612bd7565b50505050505050565b61225a82610967565b61226381612963565b61226d8383612a67565b50505050565b6003602052805f5260405f205f915054906101000a900473ffffffffffffffffffffffffffffffffffffffff1681565b6122cd7fa49807205ce4d355092ef5a8a18f56e8913cf4a201fbe287825b095693c2177533611659565b612303576040517f8dfa73db00000000000000000000000000000000000000000000000000000000815260040160405180910390fd5b5f73ffffffffffffffffffffffffffffffffffffffff168273ffffffffffffffffffffffffffffffffffffffff1603612368576040517f8474420100000000000000000000000000000000000000000000000000000000815260040160405180910390fd5b5f81036123a1576040517f0f43956a00000000000000000000000000000000000000000000000000000000815260040160405180910390fd5b804710156123e85747816040517fcf4791810000000000000000000000000000000000000000000000000000000081526004016123df929190613d17565b60405180910390fd5b8173ffffffffffffffffffffffffffffffffffffffff166108fc8290811502906040515f60405180830381858888f1935050505015801561242b573d5f5f3e3d5ffd5b508173ffffffffffffffffffffffffffffffffffffffff167fe6ca44db0ae7117797e1469efa02ba54a500832387a9f27a78e135a29587b04a826040516124729190613464565b60405180910390a25050565b6124a87fa49807205ce4d355092ef5a8a18f56e8913cf4a201fbe287825b095693c2177533611659565b6124de576040517f8dfa73db00000000000000000000000000000000000000000000000000000000815260040160405180910390fd5b5f73ffffffffffffffffffffffffffffffffffffffff1660035f8473ffffffffffffffffffffffffffffffffffffffff1673ffffffffffffffffffffffffffffffffffffffff1681526020019081526020015f205f9054906101000a900473ffffffffffffffffffffffffffffffffffffffff1673ffffffffffffffffffffffffffffffffffffffff161461259f576040517f6ff8116600000000000000000000000000000000000000000000000000000000815260040160405180910390fd5b5f73ffffffffffffffffffffffffffffffffffffffff1660045f8373ffffffffffffffffffffffffffffffffffffffff1673ffffffffffffffffffffffffffffffffffffffff1681526020019081526020015f205f9054906101000a900473ffffffffffffffffffffffffffffffffffffffff1673ffffffffffffffffffffffffffffffffffffffff1614612660576040517f03c3438800000000000000000000000000000000000000000000000000000000815260040160405180910390fd5b8060035f8473ffffffffffffffffffffffffffffffffffffffff1673ffffffffffffffffffffffffffffffffffffffff1681526020019081526020015f205f6101000a81548173ffffffffffffffffffffffffffffffffffffffff021916908373ffffffffffffffffffffffffffffffffffffffff1602179055508160045f8373ffffffffffffffffffffffffffffffffffffffff1673ffffffffffffffffffffffffffffffffffffffff1681526020019081526020015f205f6101000a81548173ffffffffffffffffffffffffffffffffffffffff021916908373ffffffffffffffffffffffffffffffffffffffff1602179055508073ffffffffffffffffffffffffffffffffffffffff168273ffffffffffffffffffffffffffffffffffffffff167f5bf060dcb50af0821f19ba2472b500d3a81db9754a00ffaf5d994932624bfd3b60405160405180910390a35050565b7f65d7a28e3265b37a6474929f336521b332c1681b933f6cb9f3376673440d862a81565b6004602052805f5260405f205f915054906101000a900473ffffffffffffffffffffffffffffffffffffffff1681565b6128327fa49807205ce4d355092ef5a8a18f56e8913cf4a201fbe287825b095693c2177533611659565b612868576040517f8dfa73db00000000000000000000000000000000000000000000000000000000815260040160405180910390fd5b5f73ffffffffffffffffffffffffffffffffffffffff168173ffffffffffffffffffffffffffffffffffffffff16036128cd576040517f8474420100000000000000000000000000000000000000000000000000000000815260040160405180910390fd5b6128f77f65d7a28e3265b37a6474929f336521b332c1681b933f6cb9f3376673440d862a82612251565b50565b5f7f01ffc9a7000000000000000000000000000000000000000000000000000000007bffffffffffffffffffffffffffffffffffffffffffffffffffffffff1916827bffffffffffffffffffffffffffffffffffffffffffffffffffffffff1916149050919050565b6129748161296f612a60565b612da4565b50565b5f6129828383611659565b612a565760015f5f8581526020019081526020015f205f015f8473ffffffffffffffffffffffffffffffffffffffff1673ffffffffffffffffffffffffffffffffffffffff1681526020019081526020015f205f6101000a81548160ff0219169083151502179055506129f3612a60565b73ffffffffffffffffffffffffffffffffffffffff168273ffffffffffffffffffffffffffffffffffffffff16847f2f8788117e7eff1d82e926ec794901d17c78024a50270940304540a733656f0d60405160405180910390a460019050612a5a565b5f90505b92915050565b5f33905090565b5f612a728383611659565b15612b46575f5f5f8581526020019081526020015f205f015f8473ffffffffffffffffffffffffffffffffffffffff1673ffffffffffffffffffffffffffffffffffffffff1681526020019081526020015f205f6101000a81548160ff021916908315150217905550612ae3612a60565b73ffffffffffffffffffffffffffffffffffffffff168273ffffffffffffffffffffffffffffffffffffffff16847ff6391f5c32d9c69d2a47ea670b442974b53935d1edc7fd64eb21e047a839171b60405160405180910390a460019050612b4a565b5f90505b92915050565b612b58610d4f565b15612b8f576040517fd93c066500000000000000000000000000000000000000000000000000000000815260040160405180910390fd5b565b600260015403612bcd576040517f3ee5aeb500000000000000000000000000000000000000000000000000000000815260040160405180910390fd5b6002600181905550565b60018081905550565b612be8612df5565b5f60025f6101000a81548160ff0219169083151502179055507f5db9ee0a495bf2e6ff9c91a7834c1ba4fdd244a5e8aa4e537bd38aeae4b073aa612c2a612a60565b604051612c37919061369c565b60405180910390a1565b5f7f19457468657265756d205369676e6564204d6573736167653a0a3332000000005f5281601c52603c5f209050919050565b5f5f5f5f612c828686612e35565b925092509250612c928282612e8a565b82935050505092915050565b5f8273ffffffffffffffffffffffffffffffffffffffff1682604051612cc390613d6b565b5f6040518083038185875af1925050503d805f8114612cfd576040519150601f19603f3d011682016040523d82523d5f602084013e612d02565b606091505b5050905080612d3d576040517f6d963f8800000000000000000000000000000000000000000000000000000000815260040160405180910390fd5b505050565b612d4a612b50565b600160025f6101000a81548160ff0219169083151502179055507f62e78cea01bee320cd4e420270b5ea74000d11b0c9f74754ebdbfc544b05a258612d8d612a60565b604051612d9a919061369c565b60405180910390a1565b612dae8282611659565b612df15780826040517fe2517d3f000000000000000000000000000000000000000000000000000000008152600401612de8929190613d7f565b60405180910390fd5b5050565b612dfd610d4f565b612e33576040517f8dfc202b00000000000000000000000000000000000000000000000000000000815260040160405180910390fd5b565b5f5f5f6041845103612e75575f5f5f602087015192506040870151915060608701515f1a9050612e6788828585612fec565b955095509550505050612e83565b5f600285515f1b9250925092505b9250925092565b5f6003811115612e9d57612e9c613da6565b5b826003811115612eb057612eaf613da6565b5b0315612fe85760016003811115612eca57612ec9613da6565b5b826003811115612edd57612edc613da6565b5b03612f14576040517ff645eedf00000000000000000000000000000000000000000000000000000000815260040160405180910390fd5b60026003811115612f2857612f27613da6565b5b826003811115612f3b57612f3a613da6565b5b03612f7f57805f1c6040517ffce698f7000000000000000000000000000000000000000000000000000000008152600401612f769190613464565b60405180910390fd5b600380811115612f9257612f91613da6565b5b826003811115612fa557612fa4613da6565b5b03612fe757806040517fd78bce0c000000000000000000000000000000000000000000000000000000008152600401612fde9190613280565b60405180910390fd5b5b5050565b5f5f5f7f7fffffffffffffffffffffffffffffff5d576e7357a4501ddfe92f46681b20a0845f1c1115613028575f6003859250925092506130c9565b5f6001888888886040515f815260200160405260405161304b9493929190613dd3565b6020604051602081039080840390855afa15801561306b573d5f5f3e3d5ffd5b5050506020604051035190505f73ffffffffffffffffffffffffffffffffffffffff168173ffffffffffffffffffffffffffffffffffffffff16036130bc575f60015f5f1b935093509350506130c9565b805f5f5f1b935093509350505b9450945094915050565b5f5ffd5b5f5ffd5b5f7fffffffff0000000000000000000000000000000000000000000000000000000082169050919050565b61310f816130db565b8114613119575f5ffd5b50565b5f8135905061312a81613106565b92915050565b5f60208284031215613145576131446130d3565b5b5f6131528482850161311c565b91505092915050565b5f8115159050919050565b61316f8161315b565b82525050565b5f6020820190506131885f830184613166565b92915050565b5f73ffffffffffffffffffffffffffffffffffffffff82169050919050565b5f6131b78261318e565b9050919050565b6131c7816131ad565b81146131d1575f5ffd5b50565b5f813590506131e2816131be565b92915050565b5f602082840312156131fd576131fc6130d3565b5b5f61320a848285016131d4565b91505092915050565b5f819050919050565b61322581613213565b811461322f575f5ffd5b50565b5f813590506132408161321c565b92915050565b5f6020828403121561325b5761325a6130d3565b5b5f61326884828501613232565b91505092915050565b61327a81613213565b82525050565b5f6020820190506132935f830184613271565b92915050565b5f5f604083850312156132af576132ae6130d3565b5b5f6132bc85828601613232565b92505060206132cd858286016131d4565b9150509250929050565b5f819050919050565b6132e9816132d7565b81146132f3575f5ffd5b50565b5f81359050613304816132e0565b92915050565b5f60ff82169050919050565b61331f8161330a565b8114613329575f5ffd5b50565b5f8135905061333a81613316565b92915050565b5f5f5f5f5f5f5f5f610100898b03121561335d5761335c6130d3565b5b5f61336a8b828c016131d4565b985050602061337b8b828c016132f6565b975050604061338c8b828c016132f6565b965050606061339d8b828c016132f6565b95505060806133ae8b828c016132f6565b94505060a06133bf8b828c0161332c565b93505060c06133d08b828c01613232565b92505060e06133e18b828c01613232565b9150509295985092959890939650565b5f5f5f5f60808587031215613409576134086130d3565b5b5f613416878288016131d4565b9450506020613427878288016132f6565b9350506040613438878288016132f6565b9250506060613449878288016132f6565b91505092959194509250565b61345e816132d7565b82525050565b5f6020820190506134775f830184613455565b92915050565b5f5ffd5b5f5ffd5b5f5ffd5b5f5f83601f84011261349e5761349d61347d565b5b8235905067ffffffffffffffff8111156134bb576134ba613481565b5b6020830191508360018202830111156134d7576134d6613485565b5b9250929050565b5f5f5f5f5f5f5f60c0888a0312156134f9576134f86130d3565b5b5f6135068a828b016131d4565b97505060206135178a828b016131d4565b96505060406135288a828b016132f6565b95505060606135398a828b016132f6565b945050608061354a8a828b016132f6565b93505060a088013567ffffffffffffffff81111561356b5761356a6130d7565b5b6135778a828b01613489565b925092505092959891949750929550565b5f5f6040838503121561359e5761359d6130d3565b5b5f6135ab858286016132f6565b92505060206135bc858286016132f6565b9150509250929050565b5f5f5f606084860312156135dd576135dc6130d3565b5b5f6135ea868287016131d4565b93505060206135fb868287016132f6565b925050604061360c868287016132f6565b9150509250925092565b5f5f5f5f5f60a0868803121561362f5761362e6130d3565b5b5f61363c888289016131d4565b955050602061364d888289016131d4565b945050604061365e888289016132f6565b935050606061366f888289016132f6565b9250506080613680888289016132f6565b9150509295509295909350565b613696816131ad565b82525050565b5f6020820190506136af5f83018461368d565b92915050565b5f5f604083850312156136cb576136ca6130d3565b5b5f6136d8858286016131d4565b92505060206136e9858286016132f6565b9150509250929050565b5f5f60408385031215613709576137086130d3565b5b5f613716858286016131d4565b9250506020613727858286016131d4565b9150509250929050565b61373a8161330a565b82525050565b5f60e0820190506137535f83018a61368d565b613760602083018961368d565b61376d6040830188613455565b61377a6060830187613455565b6137876080830186613731565b61379460a0830185613271565b6137a160c0830184613271565b98975050505050505050565b5f6060820190506137c05f83018661368d565b6137cd602083018561368d565b6137da6040830184613455565b949350505050565b6137eb8161315b565b81146137f5575f5ffd5b50565b5f81519050613806816137e2565b92915050565b5f60208284031215613821576138206130d3565b5b5f61382e848285016137f8565b91505092915050565b5f60608201905061384a5f830186613455565b6138576020830185613455565b6138646040830184613455565b949350505050565b5f8160601b9050919050565b5f6138828261386c565b9050919050565b5f61389382613878565b9050919050565b6138ab6138a6826131ad565b613889565b82525050565b5f819050919050565b6138cb6138c6826132d7565b6138b1565b82525050565b5f6138dc828961389a565b6014820191506138ec828861389a565b6014820191506138fc82876138ba565b60208201915061390c82866138ba565b60208201915061391c82856138ba565b60208201915061392c828461389a565b601482019150819050979650505050505050565b5f6040820190506139535f83018561368d565b6139606020830184613455565b9392505050565b5f82825260208201905092915050565b7f5a65726f20616464726573732070726f766964656400000000000000000000005f82015250565b5f6139ab601583613967565b91506139b682613977565b602082019050919050565b5f6020820190508181035f8301526139d88161399f565b9050919050565b7f5a65726f20616d6f756e74206e6f7420616c6c6f7765640000000000000000005f82015250565b5f613a13601783613967565b9150613a1e826139df565b602082019050919050565b5f6020820190508181035f830152613a4081613a07565b9050919050565b7f556e72656769737465726564207772617070656420746f6b656e0000000000005f82015250565b5f613a7b601a83613967565b9150613a8682613a47565b602082019050919050565b5f6020820190508181035f830152613aa881613a6f565b9050919050565b7f456d7074792074617267657420636861696e00000000000000000000000000005f82015250565b5f613ae3601283613967565b9150613aee82613aaf565b602082019050919050565b5f6020820190508181035f830152613b1081613ad7565b9050919050565b7f496e76616c69642074617267657420636861696e0000000000000000000000005f82015250565b5f613b4b601483613967565b9150613b5682613b17565b602082019050919050565b5f6020820190508181035f830152613b7881613b3f565b9050919050565b7f436c61696d20616c72656164792070726f6365737365640000000000000000005f82015250565b5f613bb3601783613967565b9150613bbe82613b7f565b602082019050919050565b5f6020820190508181035f830152613be081613ba7565b9050919050565b7f496e76616c6964207369676e61747572650000000000000000000000000000005f82015250565b5f613c1b601183613967565b9150613c2682613be7565b602082019050919050565b5f6020820190508181035f830152613c4881613c0f565b9050919050565b5f819050919050565b613c69613c6482613213565b613c4f565b82525050565b5f613c7a8284613c58565b60208201915081905092915050565b7f57726170706564206e617469766520746f6b656e206e6f7420726567697374655f8201527f7265640000000000000000000000000000000000000000000000000000000000602082015250565b5f613ce3602383613967565b9150613cee82613c89565b604082019050919050565b5f6020820190508181035f830152613d1081613cd7565b9050919050565b5f604082019050613d2a5f830185613455565b613d376020830184613455565b9392505050565b5f81905092915050565b50565b5f613d565f83613d3e565b9150613d6182613d48565b5f82019050919050565b5f613d7582613d4b565b9150819050919050565b5f604082019050613d925f83018561368d565b613d9f6020830184613271565b9392505050565b7f4e487b71000000000000000000000000000000000000000000000000000000005f52602160045260245ffd5b5f608082019050613de65f830187613271565b613df36020830186613731565b613e006040830185613271565b613e0d6060830184613271565b9594505050505056fea2646970667358221220974a9712cab62b998c2b0ded7398ea9757317322a0bc81d8d897f9f5df909a4464736f6c634300081c0033","linkReferences":{}},"methodIdentifiers":{"ADMIN_ROLE()":"75b238fc","DEFAULT_ADMIN_ROLE()":"a217fddf","PAUSER_ROLE()":"e63ab1e9","RELAYER_ROLE()":"926d7d7f","burnWrappedForReturn(address,address,uint256,uint256,uint256)":"b4ad2773","claimOriginalWithSignature(address,address,uint256,uint256,uint256,bytes)":"7ac857b5","claimWrappedWithSignature(address,address,uint256,uint256,uint256,bytes)":"b68d7a0a","currentChainId()":"6cbadbfa","emergencyWithdrawETH(address,uint256)":"d79e8567","getRoleAdmin(bytes32)":"248a9ca3","grantPauserRole(address)":"6c11c21c","grantRelayerRole(address)":"1e0af67e","grantRole(bytes32,address)":"2f2ff15d","hasRole(bytes32,address)":"91d14854","lockNative(uint256,uint256)":"9285be46","lockToken(address,uint256,uint256,uint256)":"6c32461d","lockTokenWithPermit(address,uint256,uint256,uint256,uint256,uint8,bytes32,bytes32)":"3aa89140","originalTokens(address)":"f74032f0","pause()":"8456cb59","paused()":"5c975abb","registerWrappedToken(address,address)":"dc56c390","renounceRole(bytes32,address)":"36568abe","revokePauserRole(address)":"f865af08","revokeRelayerRole(address)":"142b7b37","revokeRole(bytes32,address)":"d547741f","supportsInterface(bytes4)":"01ffc9a7","unpause()":"3f4ba83a","usedNonces(address,uint256,uint256)":"a59e10e6","wrappedTokens(address)":"d5c6b504"},"id":42}