{"abi":[{"type":"constructor","inputs":[{"name":"_name","type":"string","internalType":"string"},{"name":"_symbol","type":"string","internalType":"string"},{"name":"_decimals","type":"uint8","internalType":"uint8"}],"stateMutability":"nonpayable"},{"type":"fallback","stateMutability":"payable"},{"type":"receive","stateMutability":"payable"},{"type":"function","name":"ADMIN_ROLE","inputs":[],"outputs":[{"name":"","type":"bytes32","internalType":"bytes32"}],"stateMutability":"view"},{"type":"function","name":"BRIDGE_ROLE","inputs":[],"outputs":[{"name":"","type":"bytes32","internalType":"bytes32"}],"stateMutability":"view"},{"type":"function","name":"DEFAULT_ADMIN_ROLE","inputs":[],"outputs":[{"name":"","type":"bytes32","internalType":"bytes32"}],"stateMutability":"view"},{"type":"function","name":"DOMAIN_SEPARATOR","inputs":[],"outputs":[{"name":"","type":"bytes32","internalType":"bytes32"}],"stateMutability":"view"},{"type":"function","name":"PAUSER_ROLE","inputs":[],"outputs":[{"name":"","type":"bytes32","internalType":"bytes32"}],"stateMutability":"view"},{"type":"function","name":"allowance","inputs":[{"name":"owner","type":"address","internalType":"address"},{"name":"spender","type":"address","internalType":"address"}],"outputs":[{"name":"","type":"uint256","internalType":"uint256"}],"stateMutability":"view"},{"type":"function","name":"approve","inputs":[{"name":"spender","type":"address","internalType":"address"},{"name":"value","type":"uint256","internalType":"uint256"}],"outputs":[{"name":"","type":"bool","internalType":"bool"}],"stateMutability":"nonpayable"},{"type":"function","name":"balanceOf","inputs":[{"name":"account","type":"address","internalType":"address"}],"outputs":[{"name":"","type":"uint256","internalType":"uint256"}],"stateMutability":"view"},{"type":"function","name":"bridgeBurn","inputs":[{"name":"from","type":"address","internalType":"address"},{"name":"amount","type":"uint256","internalType":"uint256"}],"outputs":[],"stateMutability":"nonpayable"},{"type":"function","name":"bridgeMint","inputs":[{"name":"to","type":"address","internalType":"address"},{"name":"amount","type":"uint256","internalType":"uint256"}],"outputs":[],"stateMutability":"nonpayable"},{"type":"function","name":"decimals","inputs":[],"outputs":[{"name":"","type":"uint8","internalType":"uint8"}],"stateMutability":"view"},{"type":"function","name":"eip712Domain","inputs":[],"outputs":[{"name":"fields","type":"bytes1","internalType":"bytes1"},{"name":"name","type":"string","internalType":"string"},{"name":"version","type":"string","internalType":"string"},{"name":"chainId","type":"uint256","internalType":"uint256"},{"name":"verifyingContract","type":"address","internalType":"address"},{"name":"salt","type":"bytes32","internalType":"bytes32"},{"name":"extensions","type":"uint256[]","internalType":"uint256[]"}],"stateMutability":"view"},{"type":"function","name":"getRoleAdmin","inputs":[{"name":"role","type":"bytes32","internalType":"bytes32"}],"outputs":[{"name":"","type":"bytes32","internalType":"bytes32"}],"stateMutability":"view"},{"type":"function","name":"grantBridgeRole","inputs":[{"name":"account","type":"address","internalType":"address"}],"outputs":[],"stateMutability":"nonpayable"},{"type":"function","name":"grantPauserRole","inputs":[{"name":"account","type":"address","internalType":"address"}],"outputs":[],"stateMutability":"nonpayable"},{"type":"function","name":"grantRole","inputs":[{"name":"role","type":"bytes32","internalType":"bytes32"},{"name":"account","type":"address","internalType":"address"}],"outputs":[],"stateMutability":"nonpayable"},{"type":"function","name":"hasRole","inputs":[{"name":"role","type":"bytes32","internalType":"bytes32"},{"name":"account","type":"address","internalType":"address"}],"outputs":[{"name":"","type":"bool","internalType":"bool"}],"stateMutability":"view"},{"type":"function","name":"name","inputs":[],"outputs":[{"name":"","type":"string","internalType":"string"}],"stateMutability":"view"},{"type":"function","name":"nonces","inputs":[{"name":"owner","type":"address","internalType":"address"}],"outputs":[{"name":"","type":"uint256","internalType":"uint256"}],"stateMutability":"view"},{"type":"function","name":"pause","inputs":[],"outputs":[],"stateMutability":"nonpayable"},{"type":"function","name":"paused","inputs":[],"outputs":[{"name":"","type":"bool","internalType":"bool"}],"stateMutability":"view"},{"type":"function","name":"permit","inputs":[{"name":"owner","type":"address","internalType":"address"},{"name":"spender","type":"address","internalType":"address"},{"name":"value","type":"uint256","internalType":"uint256"},{"name":"deadline","type":"uint256","internalType":"uint256"},{"name":"v","type":"uint8","internalType":"uint8"},{"name":"r","type":"bytes32","internalType":"bytes32"},{"name":"s","type":"bytes32","internalType":"bytes32"}],"outputs":[],"stateMutability":"nonpayable"},{"type":"function","name":"renounceRole","inputs":[{"name":"role","type":"bytes32","internalType":"bytes32"},{"name":"callerConfirmation","type":"address","internalType":"address"}],"outputs":[],"stateMutability":"nonpayable"},{"type":"function","name":"revokeBridgeRole","inputs":[{"name":"account","type":"address","internalType":"address"}],"outputs":[],"stateMutability":"nonpayable"},{"type":"function","name":"revokePauserRole","inputs":[{"name":"account","type":"address","internalType":"address"}],"outputs":[],"stateMutability":"nonpayable"},{"type":"function","name":"revokeRole","inputs":[{"name":"role","type":"bytes32","internalType":"bytes32"},{"name":"account","type":"address","internalType":"address"}],"outputs":[],"stateMutability":"nonpayable"},{"type":"function","name":"supportsInterface","inputs":[{"name":"interfaceId","type":"bytes4","internalType":"bytes4"}],"outputs":[{"name":"","type":"bool","internalType":"bool"}],"stateMutability":"view"},{"type":"function","name":"symbol","inputs":[],"outputs":[{"name":"","type":"string","internalType":"string"}],"stateMutability":"view"},{"type":"function","name":"totalSupply","inputs":[],"outputs":[{"name":"","type":"uint256","internalType":"uint256"}],"stateMutability":"view"},{"type":"function","name":"transfer","inputs":[{"name":"to","type":"address","internalType":"address"},{"name":"value","type":"uint256","internalType":"uint256"}],"outputs":[{"name":"","type":"bool","internalType":"bool"}],"stateMutability":"nonpayable"},{"type":"function","name":"transferFrom","inputs":[{"name":"from","type":"address","internalType":"address"},{"name":"to","type":"address","internalType":"address"},{"name":"value","type":"uint256","internalType":"uint256"}],"outputs":[{"name":"","type":"bool","internalType":"bool"}],"stateMutability":"nonpayable"},{"type":"function","name":"unpause","inputs":[],"outputs":[],"stateMutability":"nonpayable"},{"type":"event","name":"Approval","inputs":[{"name":"owner","type":"address","indexed":true,"internalType":"address"},{"name":"spender","type":"address","indexed":true,"internalType":"address"},{"name":"value","type":"uint256","indexed":false,"internalType":"uint256"}],"anonymous":false},{"type":"event","name":"EIP712DomainChanged","inputs":[],"anonymous":false},{"type":"event","name":"Paused","inputs":[{"name":"account","type":"address","indexed":false,"internalType":"address"}],"anonymous":false},{"type":"event","name":"RoleAdminChanged","inputs":[{"name":"role","type":"bytes32","indexed":true,"internalType":"bytes32"},{"name":"previousAdminRole","type":"bytes32","indexed":true,"internalType":"bytes32"},{"name":"newAdminRole","type":"bytes32","indexed":true,"internalType":"bytes32"}],"anonymous":false},{"type":"event","name":"RoleGranted","inputs":[{"name":"role","type":"bytes32","indexed":true,"internalType":"bytes32"},{"name":"account","type":"address","indexed":true,"internalType":"address"},{"name":"sender","type":"address","indexed":true,"internalType":"address"}],"anonymous":false},{"type":"event","name":"RoleRevoked","inputs":[{"name":"role","type":"bytes32","indexed":true,"internalType":"bytes32"},{"name":"account","type":"address","indexed":true,"internalType":"address"},{"name":"sender","type":"address","indexed":true,"internalType":"address"}],"anonymous":false},{"type":"event","name":"Transfer","inputs":[{"name":"from","type":"address","indexed":true,"internalType":"address"},{"name":"to","type":"address","indexed":true,"internalType":"address"},{"name":"value","type":"uint256","indexed":false,"internalType":"uint256"}],"anonymous":false},{"type":"event","name":"Unpaused","inputs":[{"name":"account","type":"address","indexed":false,"internalType":"address"}],"anonymous":false},{"type":"error","name":"AccessControlBadConfirmation","inputs":[]},{"type":"error","name":"AccessControlUnauthorizedAccount","inputs":[{"name":"account","type":"address","internalType":"address"},{"name":"neededRole","type":"bytes32","internalType":"bytes32"}]},{"type":"error","name":"CallerIsNotAdmin","inputs":[]},{"type":"error","name":"CallerIsNotBridger","inputs":[]},{"type":"error","name":"CallerIsNotPauser","inputs":[]},{"type":"error","name":"DirectEthTransfersNotSupported","inputs":[]},{"type":"error","name":"ECDSAInvalidSignature","inputs":[]},{"type":"error","name":"ECDSAInvalidSignatureLength","inputs":[{"name":"length","type":"uint256","internalType":"uint256"}]},{"type":"error","name":"ECDSAInvalidSignatureS","inputs":[{"name":"s","type":"bytes32","internalType":"bytes32"}]},{"type":"error","name":"ERC20InsufficientAllowance","inputs":[{"name":"spender","type":"address","internalType":"address"},{"name":"allowance","type":"uint256","internalType":"uint256"},{"name":"needed","type":"uint256","internalType":"uint256"}]},{"type":"error","name":"ERC20InsufficientBalance","inputs":[{"name":"sender","type":"address","internalType":"address"},{"name":"balance","type":"uint256","internalType":"uint256"},{"name":"needed","type":"uint256","internalType":"uint256"}]},{"type":"error","name":"ERC20InvalidApprover","inputs":[{"name":"approver","type":"address","internalType":"address"}]},{"type":"error","name":"ERC20InvalidReceiver","inputs":[{"name":"receiver","type":"address","internalType":"address"}]},{"type":"error","name":"ERC20InvalidSender","inputs":[{"name":"sender","type":"address","internalType":"address"}]},{"type":"error","name":"ERC20InvalidSpender","inputs":[{"name":"spender","type":"address","internalType":"address"}]},{"type":"error","name":"ERC2612ExpiredSignature","inputs":[{"name":"deadline","type":"uint256","internalType":"uint256"}]},{"type":"error","name":"ERC2612InvalidSigner","inputs":[{"name":"signer","type":"address","internalType":"address"},{"name":"owner","type":"address","internalType":"address"}]},{"type":"error","name":"EmptyStringNotAllowed","inputs":[]},{"type":"error","name":"EnforcedPause","inputs":[]},{"type":"error","name":"ExpectedPause","inputs":[]},{"type":"error","name":"InvalidAccountNonce","inputs":[{"name":"account","type":"address","internalType":"address"},{"name":"currentNonce","type":"uint256","internalType":"uint256"}]},{"type":"error","name":"InvalidShortString","inputs":[]},{"type":"error","name":"ReentrancyGuardReentrantCall","inputs":[]},{"type":"error","name":"StringTooLong","inputs":[{"name":"str","type":"string","internalType":"string"}]},{"type":"error","name":"ZeroAddressNotAllowed","inputs":[]},{"type":"error","name":"ZeroAmountNotAllowed","inputs":[]}],"bytecode":{"object":"0x610180604052348015610010575f5ffd5b50604051613c43380380613c4383398181016040528101906100329190610797565b82806040518060400160405280600181526020017f31000000000000000000000000000000000000000000000000000000000000008152508585816003908161007b9190610a2f565b50806004908161008b9190610a2f565b5050506100a260058361032260201b90919060201c565b61012081815250506100be60068261032260201b90919060201c565b6101408181525050818051906020012060e08181525050808051906020012061010081815250504660a081815250506100fb61036f60201b60201c565b608081815250503073ffffffffffffffffffffffffffffffffffffffff1660c08173ffffffffffffffffffffffffffffffffffffffff168152505050505060016009819055505f83510361017b576040517f044c1b3a00000000000000000000000000000000000000000000000000000000815260040160405180910390fd5b5f8251036101b5576040517f044c1b3a00000000000000000000000000000000000000000000000000000000815260040160405180910390fd5b5f8160ff16036101f1576040517f0f43956a00000000000000000000000000000000000000000000000000000000815260040160405180910390fd5b8060ff166101608160ff16815250505f3390506102165f5f1b826103c960201b60201c565b506102477fa49807205ce4d355092ef5a8a18f56e8913cf4a201fbe287825b095693c21775826103c960201b60201c565b506102787f65d7a28e3265b37a6474929f336521b332c1681b933f6cb9f3376673440d862a826103c960201b60201c565b506102c97f65d7a28e3265b37a6474929f336521b332c1681b933f6cb9f3376673440d862a7fa49807205ce4d355092ef5a8a18f56e8913cf4a201fbe287825b095693c217756104bf60201b60201c565b6103197f52ba824bfabc2bcfcdf7f0edbb486ebb05e1836c90e78047efeb949990f72e5f7fa49807205ce4d355092ef5a8a18f56e8913cf4a201fbe287825b095693c217756104bf60201b60201c565b50505050610cb0565b5f6020835110156103435761033c8361051e60201b60201c565b9050610369565b826103538361058360201b60201c565b5f0190816103619190610a2f565b5060ff5f1b90505b92915050565b5f7f8b73c3c69bb8fe3d512ecc4cf759cc79239f7b179b0ffacaa9a75d522b39400f60e0516101005146306040516020016103ae959493929190610b64565b60405160208183030381529060405280519060200120905090565b5f6103da838361058c60201b60201c565b6104b557600160085f8581526020019081526020015f205f015f8473ffffffffffffffffffffffffffffffffffffffff1673ffffffffffffffffffffffffffffffffffffffff1681526020019081526020015f205f6101000a81548160ff0219169083151502179055506104526105f060201b60201c565b73ffffffffffffffffffffffffffffffffffffffff168273ffffffffffffffffffffffffffffffffffffffff16847f2f8788117e7eff1d82e926ec794901d17c78024a50270940304540a733656f0d60405160405180910390a4600190506104b9565b5f90505b92915050565b5f6104cf836105f760201b60201c565b90508160085f8581526020019081526020015f20600101819055508181847fbd79b86ffe0ab8e8776151514217cd7cacd52c909f66475c3af44e129f0b00ff60405160405180910390a4505050565b5f5f829050601f8151111561056a57826040517f305a27a90000000000000000000000000000000000000000000000000000000081526004016105619190610bfd565b60405180910390fd5b80518161057690610c4a565b5f1c175f1b915050919050565b5f819050919050565b5f60085f8481526020019081526020015f205f015f8373ffffffffffffffffffffffffffffffffffffffff1673ffffffffffffffffffffffffffffffffffffffff1681526020019081526020015f205f9054906101000a900460ff16905092915050565b5f33905090565b5f60085f8381526020019081526020015f20600101549050919050565b5f604051905090565b5f5ffd5b5f5ffd5b5f5ffd5b5f5ffd5b5f601f19601f8301169050919050565b7f4e487b71000000000000000000000000000000000000000000000000000000005f52604160045260245ffd5b6106738261062d565b810181811067ffffffffffffffff821117156106925761069161063d565b5b80604052505050565b5f6106a4610614565b90506106b0828261066a565b919050565b5f67ffffffffffffffff8211156106cf576106ce61063d565b5b6106d88261062d565b9050602081019050919050565b8281835e5f83830152505050565b5f610705610700846106b5565b61069b565b90508281526020810184848401111561072157610720610629565b5b61072c8482856106e5565b509392505050565b5f82601f83011261074857610747610625565b5b81516107588482602086016106f3565b91505092915050565b5f60ff82169050919050565b61077681610761565b8114610780575f5ffd5b50565b5f815190506107918161076d565b92915050565b5f5f5f606084860312156107ae576107ad61061d565b5b5f84015167ffffffffffffffff8111156107cb576107ca610621565b5b6107d786828701610734565b935050602084015167ffffffffffffffff8111156107f8576107f7610621565b5b61080486828701610734565b925050604061081586828701610783565b9150509250925092565b5f81519050919050565b7f4e487b71000000000000000000000000000000000000000000000000000000005f52602260045260245ffd5b5f600282049050600182168061086d57607f821691505b6020821081036108805761087f610829565b5b50919050565b5f819050815f5260205f209050919050565b5f6020601f8301049050919050565b5f82821b905092915050565b5f600883026108e27fffffffffffffffffffffffffffffffffffffffffffffffffffffffffffffffff826108a7565b6108ec86836108a7565b95508019841693508086168417925050509392505050565b5f819050919050565b5f819050919050565b5f61093061092b61092684610904565b61090d565b610904565b9050919050565b5f819050919050565b61094983610916565b61095d61095582610937565b8484546108b3565b825550505050565b5f5f905090565b610974610965565b61097f818484610940565b505050565b5b818110156109a2576109975f8261096c565b600181019050610985565b5050565b601f8211156109e7576109b881610886565b6109c184610898565b810160208510156109d0578190505b6109e46109dc85610898565b830182610984565b50505b505050565b5f82821c905092915050565b5f610a075f19846008026109ec565b1980831691505092915050565b5f610a1f83836109f8565b9150826002028217905092915050565b610a388261081f565b67ffffffffffffffff811115610a5157610a5061063d565b5b610a5b8254610856565b610a668282856109a6565b5f60209050601f831160018114610a97575f8415610a85578287015190505b610a8f8582610a14565b865550610af6565b601f198416610aa586610886565b5f5b82811015610acc57848901518255600182019150602085019450602081019050610aa7565b86831015610ae95784890151610ae5601f8916826109f8565b8355505b6001600288020188555050505b505050505050565b5f819050919050565b610b1081610afe565b82525050565b610b1f81610904565b82525050565b5f73ffffffffffffffffffffffffffffffffffffffff82169050919050565b5f610b4e82610b25565b9050919050565b610b5e81610b44565b82525050565b5f60a082019050610b775f830188610b07565b610b846020830187610b07565b610b916040830186610b07565b610b9e6060830185610b16565b610bab6080830184610b55565b9695505050505050565b5f82825260208201905092915050565b5f610bcf8261081f565b610bd98185610bb5565b9350610be98185602086016106e5565b610bf28161062d565b840191505092915050565b5f6020820190508181035f830152610c158184610bc5565b905092915050565b5f81519050919050565b5f819050602082019050919050565b5f610c418251610afe565b80915050919050565b5f610c5482610c1d565b82610c5e84610c27565b9050610c6981610c36565b92506020821015610ca957610ca47fffffffffffffffffffffffffffffffffffffffffffffffffffffffffffffffff836020036008026108a7565b831692505b5050919050565b60805160a05160c05160e05161010051610120516101405161016051612f38610d0b5f395f61099f01525f611b7701525f611b3c01525f61213a01525f61211901525f6117cd01525f61182301525f61184c0152612f385ff3fe6080604052600436106101e6575f3560e01c80637ecebe0011610101578063a5e99b8e11610094578063d547741f11610063578063d547741f14610745578063dd62ed3e1461076d578063e63ab1e9146107a9578063f865af08146107d35761021d565b8063a5e99b8e1461068f578063a9059cbb146106b7578063b5bfddea146106f3578063d505accf1461071d5761021d565b806391d14854116100d057806391d14854146105d757806395d89b41146106135780639647fe2f1461063d578063a217fddf146106655761021d565b80637ecebe001461052d5780638456cb591461056957806384b0196e1461057f5780638c2a993e146105af5761021d565b80633644e515116101795780636c11c21c116101485780636c11c21c1461047757806370a082311461049f57806374f4f547146104db57806375b238fc146105035761021d565b80633644e515146103e557806336568abe1461040f5780633f4ba83a146104375780635c975abb1461044d5761021d565b806323b872dd116101b557806323b872dd1461031b578063248a9ca3146103575780632f2ff15d14610393578063313ce567146103bb5761021d565b806301ffc9a71461024f57806306fdde031461028b578063095ea7b3146102b557806318160ddd146102f15761021d565b3661021d576040517f94e44f7600000000000000000000000000000000000000000000000000000000815260040160405180910390fd5b6040517f94e44f7600000000000000000000000000000000000000000000000000000000815260040160405180910390fd5b34801561025a575f5ffd5b5061027560048036038101906102709190612619565b6107fb565b604051610282919061265e565b60405180910390f35b348015610296575f5ffd5b5061029f610874565b6040516102ac91906126e7565b60405180910390f35b3480156102c0575f5ffd5b506102db60048036038101906102d69190612794565b610904565b6040516102e8919061265e565b60405180910390f35b3480156102fc575f5ffd5b50610305610926565b60405161031291906127e1565b60405180910390f35b348015610326575f5ffd5b50610341600480360381019061033c91906127fa565b61092f565b60405161034e919061265e565b60405180910390f35b348015610362575f5ffd5b5061037d6004803603810190610378919061287d565b61095d565b60405161038a91906128b7565b60405180910390f35b34801561039e575f5ffd5b506103b960048036038101906103b491906128d0565b61097a565b005b3480156103c6575f5ffd5b506103cf61099c565b6040516103dc9190612929565b60405180910390f35b3480156103f0575f5ffd5b506103f96109c3565b60405161040691906128b7565b60405180910390f35b34801561041a575f5ffd5b50610435600480360381019061043091906128d0565b6109d1565b005b348015610442575f5ffd5b5061044b610a4c565b005b348015610458575f5ffd5b50610461610ab6565b60405161046e919061265e565b60405180910390f35b348015610482575f5ffd5b5061049d60048036038101906104989190612942565b610acb565b005b3480156104aa575f5ffd5b506104c560048036038101906104c09190612942565b610bbd565b6040516104d291906127e1565b60405180910390f35b3480156104e6575f5ffd5b5061050160048036038101906104fc9190612794565b610c02565b005b34801561050e575f5ffd5b50610517610cb1565b60405161052491906128b7565b60405180910390f35b348015610538575f5ffd5b50610553600480360381019061054e9190612942565b610cd5565b60405161056091906127e1565b60405180910390f35b348015610574575f5ffd5b5061057d610ce6565b005b34801561058a575f5ffd5b50610593610d50565b6040516105a69796959493929190612a6d565b60405180910390f35b3480156105ba575f5ffd5b506105d560048036038101906105d09190612794565b610df5565b005b3480156105e2575f5ffd5b506105fd60048036038101906105f891906128d0565b610ea4565b60405161060a919061265e565b60405180910390f35b34801561061e575f5ffd5b50610627610f08565b60405161063491906126e7565b60405180910390f35b348015610648575f5ffd5b50610663600480360381019061065e9190612942565b610f98565b005b348015610670575f5ffd5b5061067961108a565b60405161068691906128b7565b60405180910390f35b34801561069a575f5ffd5b506106b560048036038101906106b09190612942565b611090565b005b3480156106c2575f5ffd5b506106dd60048036038101906106d89190612794565b611182565b6040516106ea919061265e565b60405180910390f35b3480156106fe575f5ffd5b506107076111a4565b60405161071491906128b7565b60405180910390f35b348015610728575f5ffd5b50610743600480360381019061073e9190612b19565b6111c8565b005b348015610750575f5ffd5b5061076b600480360381019061076691906128d0565b61130d565b005b348015610778575f5ffd5b50610793600480360381019061078e9190612bb6565b61132f565b6040516107a091906127e1565b60405180910390f35b3480156107b4575f5ffd5b506107bd6113b1565b6040516107ca91906128b7565b60405180910390f35b3480156107de575f5ffd5b506107f960048036038101906107f49190612942565b6113d5565b005b5f7f7965db0b000000000000000000000000000000000000000000000000000000007bffffffffffffffffffffffffffffffffffffffffffffffffffffffff1916827bffffffffffffffffffffffffffffffffffffffffffffffffffffffff1916148061086d575061086c826114c7565b5b9050919050565b60606003805461088390612c21565b80601f01602080910402602001604051908101604052809291908181526020018280546108af90612c21565b80156108fa5780601f106108d1576101008083540402835291602001916108fa565b820191905f5260205f20905b8154815290600101906020018083116108dd57829003601f168201915b5050505050905090565b5f5f61090e611530565b905061091b818585611537565b600191505092915050565b5f600254905090565b5f5f610939611530565b9050610946858285611549565b6109518585856115dc565b60019150509392505050565b5f60085f8381526020019081526020015f20600101549050919050565b6109838261095d565b61098c816116cc565b61099683836116e0565b50505050565b5f7f0000000000000000000000000000000000000000000000000000000000000000905090565b5f6109cc6117ca565b905090565b6109d9611530565b73ffffffffffffffffffffffffffffffffffffffff168173ffffffffffffffffffffffffffffffffffffffff1614610a3d576040517f6697b23200000000000000000000000000000000000000000000000000000000815260040160405180910390fd5b610a478282611880565b505050565b610a767f65d7a28e3265b37a6474929f336521b332c1681b933f6cb9f3376673440d862a33610ea4565b610aac576040517fdaeefd6500000000000000000000000000000000000000000000000000000000815260040160405180910390fd5b610ab461196a565b565b5f600a5f9054906101000a900460ff16905090565b610af57fa49807205ce4d355092ef5a8a18f56e8913cf4a201fbe287825b095693c2177533610ea4565b610b2b576040517f8dfa73db00000000000000000000000000000000000000000000000000000000815260040160405180910390fd5b5f73ffffffffffffffffffffffffffffffffffffffff168173ffffffffffffffffffffffffffffffffffffffff1603610b90576040517f8579befe00000000000000000000000000000000000000000000000000000000815260040160405180910390fd5b610bba7f65d7a28e3265b37a6474929f336521b332c1681b933f6cb9f3376673440d862a8261097a565b50565b5f5f5f8373ffffffffffffffffffffffffffffffffffffffff1673ffffffffffffffffffffffffffffffffffffffff1681526020019081526020015f20549050919050565b610c2c7f52ba824bfabc2bcfcdf7f0edbb486ebb05e1836c90e78047efeb949990f72e5f33610ea4565b610c62576040517f5c8970cd00000000000000000000000000000000000000000000000000000000815260040160405180910390fd5b610c6a6119cb565b5f8103610ca3576040517f0f43956a00000000000000000000000000000000000000000000000000000000815260040160405180910390fd5b610cad8282611a0c565b5050565b7fa49807205ce4d355092ef5a8a18f56e8913cf4a201fbe287825b095693c2177581565b5f610cdf82611a8b565b9050919050565b610d107f65d7a28e3265b37a6474929f336521b332c1681b933f6cb9f3376673440d862a33610ea4565b610d46576040517fdaeefd6500000000000000000000000000000000000000000000000000000000815260040160405180910390fd5b610d4e611ad1565b565b5f6060805f5f5f6060610d61611b33565b610d69611b6e565b46305f5f1b5f67ffffffffffffffff811115610d8857610d87612c51565b5b604051908082528060200260200182016040528015610db65781602001602082028036833780820191505090505b507f0f00000000000000000000000000000000000000000000000000000000000000959493929190965096509650965096509650965090919293949596565b610e1f7f52ba824bfabc2bcfcdf7f0edbb486ebb05e1836c90e78047efeb949990f72e5f33610ea4565b610e55576040517f5c8970cd00000000000000000000000000000000000000000000000000000000815260040160405180910390fd5b610e5d6119cb565b5f8103610e96576040517f0f43956a00000000000000000000000000000000000000000000000000000000815260040160405180910390fd5b610ea08282611ba9565b5050565b5f60085f8481526020019081526020015f205f015f8373ffffffffffffffffffffffffffffffffffffffff1673ffffffffffffffffffffffffffffffffffffffff1681526020019081526020015f205f9054906101000a900460ff16905092915050565b606060048054610f1790612c21565b80601f0160208091040260200160405190810160405280929190818152602001828054610f4390612c21565b8015610f8e5780601f10610f6557610100808354040283529160200191610f8e565b820191905f5260205f20905b815481529060010190602001808311610f7157829003601f168201915b5050505050905090565b610fc27fa49807205ce4d355092ef5a8a18f56e8913cf4a201fbe287825b095693c2177533610ea4565b610ff8576040517f8dfa73db00000000000000000000000000000000000000000000000000000000815260040160405180910390fd5b5f73ffffffffffffffffffffffffffffffffffffffff168173ffffffffffffffffffffffffffffffffffffffff160361105d576040517f8579befe00000000000000000000000000000000000000000000000000000000815260040160405180910390fd5b6110877f52ba824bfabc2bcfcdf7f0edbb486ebb05e1836c90e78047efeb949990f72e5f8261130d565b50565b5f5f1b81565b6110ba7fa49807205ce4d355092ef5a8a18f56e8913cf4a201fbe287825b095693c2177533610ea4565b6110f0576040517f8dfa73db00000000000000000000000000000000000000000000000000000000815260040160405180910390fd5b5f73ffffffffffffffffffffffffffffffffffffffff168173ffffffffffffffffffffffffffffffffffffffff1603611155576040517f8579befe00000000000000000000000000000000000000000000000000000000815260040160405180910390fd5b61117f7f52ba824bfabc2bcfcdf7f0edbb486ebb05e1836c90e78047efeb949990f72e5f8261097a565b50565b5f5f61118c611530565b90506111998185856115dc565b600191505092915050565b7f52ba824bfabc2bcfcdf7f0edbb486ebb05e1836c90e78047efeb949990f72e5f81565b8342111561120d57836040517f6279130200000000000000000000000000000000000000000000000000000000815260040161120491906127e1565b60405180910390fd5b5f7f6e71edae12b1b97f4d1f60370fef10105fa2faae0126114a169c64845d6126c988888861123b8c611c28565b8960405160200161125196959493929190612c7e565b6040516020818303038152906040528051906020012090505f61127382611c7b565b90505f61128282878787611c94565b90508973ffffffffffffffffffffffffffffffffffffffff168173ffffffffffffffffffffffffffffffffffffffff16146112f657808a6040517f4b800e460000000000000000000000000000000000000000000000000000000081526004016112ed929190612cdd565b60405180910390fd5b6113018a8a8a611537565b50505050505050505050565b6113168261095d565b61131f816116cc565b6113298383611880565b50505050565b5f60015f8473ffffffffffffffffffffffffffffffffffffffff1673ffffffffffffffffffffffffffffffffffffffff1681526020019081526020015f205f8373ffffffffffffffffffffffffffffffffffffffff1673ffffffffffffffffffffffffffffffffffffffff1681526020019081526020015f2054905092915050565b7f65d7a28e3265b37a6474929f336521b332c1681b933f6cb9f3376673440d862a81565b6113ff7fa49807205ce4d355092ef5a8a18f56e8913cf4a201fbe287825b095693c2177533610ea4565b611435576040517f8dfa73db00000000000000000000000000000000000000000000000000000000815260040160405180910390fd5b5f73ffffffffffffffffffffffffffffffffffffffff168173ffffffffffffffffffffffffffffffffffffffff160361149a576040517f8579befe00000000000000000000000000000000000000000000000000000000815260040160405180910390fd5b6114c47f65d7a28e3265b37a6474929f336521b332c1681b933f6cb9f3376673440d862a8261130d565b50565b5f7f01ffc9a7000000000000000000000000000000000000000000000000000000007bffffffffffffffffffffffffffffffffffffffffffffffffffffffff1916827bffffffffffffffffffffffffffffffffffffffffffffffffffffffff1916149050919050565b5f33905090565b6115448383836001611cc2565b505050565b5f611554848461132f565b90507fffffffffffffffffffffffffffffffffffffffffffffffffffffffffffffffff8110156115d657818110156115c7578281836040517ffb8f41b20000000000000000000000000000000000000000000000000000000081526004016115be93929190612d04565b60405180910390fd5b6115d584848484035f611cc2565b5b50505050565b5f73ffffffffffffffffffffffffffffffffffffffff168373ffffffffffffffffffffffffffffffffffffffff160361164c575f6040517f96c6fd1e0000000000000000000000000000000000000000000000000000000081526004016116439190612d39565b60405180910390fd5b5f73ffffffffffffffffffffffffffffffffffffffff168273ffffffffffffffffffffffffffffffffffffffff16036116bc575f6040517fec442f050000000000000000000000000000000000000000000000000000000081526004016116b39190612d39565b60405180910390fd5b6116c7838383611e91565b505050565b6116dd816116d8611530565b6120a4565b50565b5f6116eb8383610ea4565b6117c057600160085f8581526020019081526020015f205f015f8473ffffffffffffffffffffffffffffffffffffffff1673ffffffffffffffffffffffffffffffffffffffff1681526020019081526020015f205f6101000a81548160ff02191690831515021790555061175d611530565b73ffffffffffffffffffffffffffffffffffffffff168273ffffffffffffffffffffffffffffffffffffffff16847f2f8788117e7eff1d82e926ec794901d17c78024a50270940304540a733656f0d60405160405180910390a4600190506117c4565b5f90505b92915050565b5f7f000000000000000000000000000000000000000000000000000000000000000073ffffffffffffffffffffffffffffffffffffffff163073ffffffffffffffffffffffffffffffffffffffff1614801561184557507f000000000000000000000000000000000000000000000000000000000000000046145b15611872577f0000000000000000000000000000000000000000000000000000000000000000905061187d565b61187a6120f5565b90505b90565b5f61188b8383610ea4565b15611960575f60085f8581526020019081526020015f205f015f8473ffffffffffffffffffffffffffffffffffffffff1673ffffffffffffffffffffffffffffffffffffffff1681526020019081526020015f205f6101000a81548160ff0219169083151502179055506118fd611530565b73ffffffffffffffffffffffffffffffffffffffff168273ffffffffffffffffffffffffffffffffffffffff16847ff6391f5c32d9c69d2a47ea670b442974b53935d1edc7fd64eb21e047a839171b60405160405180910390a460019050611964565b5f90505b92915050565b61197261218a565b5f600a5f6101000a81548160ff0219169083151502179055507f5db9ee0a495bf2e6ff9c91a7834c1ba4fdd244a5e8aa4e537bd38aeae4b073aa6119b4611530565b6040516119c19190612d39565b60405180910390a1565b6119d3610ab6565b15611a0a576040517fd93c066500000000000000000000000000000000000000000000000000000000815260040160405180910390fd5b565b5f73ffffffffffffffffffffffffffffffffffffffff168273ffffffffffffffffffffffffffffffffffffffff1603611a7c575f6040517f96c6fd1e000000000000000000000000000000000000000000000000000000008152600401611a739190612d39565b60405180910390fd5b611a87825f83611e91565b5050565b5f60075f8373ffffffffffffffffffffffffffffffffffffffff1673ffffffffffffffffffffffffffffffffffffffff1681526020019081526020015f20549050919050565b611ad96119cb565b6001600a5f6101000a81548160ff0219169083151502179055507f62e78cea01bee320cd4e420270b5ea74000d11b0c9f74754ebdbfc544b05a258611b1c611530565b604051611b299190612d39565b60405180910390a1565b6060611b6960057f00000000000000000000000000000000000000000000000000000000000000006121ca90919063ffffffff16565b905090565b6060611ba460067f00000000000000000000000000000000000000000000000000000000000000006121ca90919063ffffffff16565b905090565b5f73ffffffffffffffffffffffffffffffffffffffff168273ffffffffffffffffffffffffffffffffffffffff1603611c19575f6040517fec442f05000000000000000000000000000000000000000000000000000000008152600401611c109190612d39565b60405180910390fd5b611c245f8383611e91565b5050565b5f60075f8373ffffffffffffffffffffffffffffffffffffffff1673ffffffffffffffffffffffffffffffffffffffff1681526020019081526020015f205f815480929190600101919050559050919050565b5f611c8d611c876117ca565b83612277565b9050919050565b5f5f5f5f611ca4888888886122b7565b925092509250611cb4828261239e565b829350505050949350505050565b5f73ffffffffffffffffffffffffffffffffffffffff168473ffffffffffffffffffffffffffffffffffffffff1603611d32575f6040517fe602df05000000000000000000000000000000000000000000000000000000008152600401611d299190612d39565b60405180910390fd5b5f73ffffffffffffffffffffffffffffffffffffffff168373ffffffffffffffffffffffffffffffffffffffff1603611da2575f6040517f94280d62000000000000000000000000000000000000000000000000000000008152600401611d999190612d39565b60405180910390fd5b8160015f8673ffffffffffffffffffffffffffffffffffffffff1673ffffffffffffffffffffffffffffffffffffffff1681526020019081526020015f205f8573ffffffffffffffffffffffffffffffffffffffff1673ffffffffffffffffffffffffffffffffffffffff1681526020019081526020015f20819055508015611e8b578273ffffffffffffffffffffffffffffffffffffffff168473ffffffffffffffffffffffffffffffffffffffff167f8c5be1e5ebec7d5bd14f71427d1e84f3dd0314c0f7b2291e5b200ac8c7c3b92584604051611e8291906127e1565b60405180910390a35b50505050565b5f73ffffffffffffffffffffffffffffffffffffffff168373ffffffffffffffffffffffffffffffffffffffff1603611ee1578060025f828254611ed59190612d7f565b92505081905550611fa9565b5f5f5f8573ffffffffffffffffffffffffffffffffffffffff1673ffffffffffffffffffffffffffffffffffffffff1681526020019081526020015f2054905081811015611f64576040517f08c379a0000000000000000000000000000000000000000000000000000000008152600401611f5b90612dfc565b60405180910390fd5b8181035f5f8673ffffffffffffffffffffffffffffffffffffffff1673ffffffffffffffffffffffffffffffffffffffff1681526020019081526020015f2081905550505b5f73ffffffffffffffffffffffffffffffffffffffff168273ffffffffffffffffffffffffffffffffffffffff1603611ff0578060025f828254039250508190555061203a565b805f5f8473ffffffffffffffffffffffffffffffffffffffff1673ffffffffffffffffffffffffffffffffffffffff1681526020019081526020015f205f82825401925050819055505b8173ffffffffffffffffffffffffffffffffffffffff168373ffffffffffffffffffffffffffffffffffffffff167fddf252ad1be2c89b69c2b068fc378daa952ba7f163c4a11628f55a4df523b3ef8360405161209791906127e1565b60405180910390a3505050565b6120ae8282610ea4565b6120f15780826040517fe2517d3f0000000000000000000000000000000000000000000000000000000081526004016120e8929190612e1a565b60405180910390fd5b5050565b5f7f8b73c3c69bb8fe3d512ecc4cf759cc79239f7b179b0ffacaa9a75d522b39400f7f00000000000000000000000000000000000000000000000000000000000000007f0000000000000000000000000000000000000000000000000000000000000000463060405160200161216f959493929190612e41565b60405160208183030381529060405280519060200120905090565b612192610ab6565b6121c8576040517f8dfc202b00000000000000000000000000000000000000000000000000000000815260040160405180910390fd5b565b606060ff5f1b83146121e6576121df83612500565b9050612271565b8180546121f290612c21565b80601f016020809104026020016040519081016040528092919081815260200182805461221e90612c21565b80156122695780601f1061224057610100808354040283529160200191612269565b820191905f5260205f20905b81548152906001019060200180831161224c57829003601f168201915b505050505090505b92915050565b5f6040517f190100000000000000000000000000000000000000000000000000000000000081528360028201528260228201526042812091505092915050565b5f5f5f7f7fffffffffffffffffffffffffffffff5d576e7357a4501ddfe92f46681b20a0845f1c11156122f3575f600385925092509250612394565b5f6001888888886040515f81526020016040526040516123169493929190612e92565b6020604051602081039080840390855afa158015612336573d5f5f3e3d5ffd5b5050506020604051035190505f73ffffffffffffffffffffffffffffffffffffffff168173ffffffffffffffffffffffffffffffffffffffff1603612387575f60015f5f1b93509350935050612394565b805f5f5f1b935093509350505b9450945094915050565b5f60038111156123b1576123b0612ed5565b5b8260038111156123c4576123c3612ed5565b5b03156124fc57600160038111156123de576123dd612ed5565b5b8260038111156123f1576123f0612ed5565b5b03612428576040517ff645eedf00000000000000000000000000000000000000000000000000000000815260040160405180910390fd5b6002600381111561243c5761243b612ed5565b5b82600381111561244f5761244e612ed5565b5b0361249357805f1c6040517ffce698f700000000000000000000000000000000000000000000000000000000815260040161248a91906127e1565b60405180910390fd5b6003808111156124a6576124a5612ed5565b5b8260038111156124b9576124b8612ed5565b5b036124fb57806040517fd78bce0c0000000000000000000000000000000000000000000000000000000081526004016124f291906128b7565b60405180910390fd5b5b5050565b60605f61250c83612572565b90505f602067ffffffffffffffff81111561252a57612529612c51565b5b6040519080825280601f01601f19166020018201604052801561255c5781602001600182028036833780820191505090505b5090508181528360208201528092505050919050565b5f5f60ff835f1c169050601f8111156125b7576040517fb3512b0c00000000000000000000000000000000000000000000000000000000815260040160405180910390fd5b80915050919050565b5f5ffd5b5f7fffffffff0000000000000000000000000000000000000000000000000000000082169050919050565b6125f8816125c4565b8114612602575f5ffd5b50565b5f81359050612613816125ef565b92915050565b5f6020828403121561262e5761262d6125c0565b5b5f61263b84828501612605565b91505092915050565b5f8115159050919050565b61265881612644565b82525050565b5f6020820190506126715f83018461264f565b92915050565b5f81519050919050565b5f82825260208201905092915050565b8281835e5f83830152505050565b5f601f19601f8301169050919050565b5f6126b982612677565b6126c38185612681565b93506126d3818560208601612691565b6126dc8161269f565b840191505092915050565b5f6020820190508181035f8301526126ff81846126af565b905092915050565b5f73ffffffffffffffffffffffffffffffffffffffff82169050919050565b5f61273082612707565b9050919050565b61274081612726565b811461274a575f5ffd5b50565b5f8135905061275b81612737565b92915050565b5f819050919050565b61277381612761565b811461277d575f5ffd5b50565b5f8135905061278e8161276a565b92915050565b5f5f604083850312156127aa576127a96125c0565b5b5f6127b78582860161274d565b92505060206127c885828601612780565b9150509250929050565b6127db81612761565b82525050565b5f6020820190506127f45f8301846127d2565b92915050565b5f5f5f60608486031215612811576128106125c0565b5b5f61281e8682870161274d565b935050602061282f8682870161274d565b925050604061284086828701612780565b9150509250925092565b5f819050919050565b61285c8161284a565b8114612866575f5ffd5b50565b5f8135905061287781612853565b92915050565b5f60208284031215612892576128916125c0565b5b5f61289f84828501612869565b91505092915050565b6128b18161284a565b82525050565b5f6020820190506128ca5f8301846128a8565b92915050565b5f5f604083850312156128e6576128e56125c0565b5b5f6128f385828601612869565b92505060206129048582860161274d565b9150509250929050565b5f60ff82169050919050565b6129238161290e565b82525050565b5f60208201905061293c5f83018461291a565b92915050565b5f60208284031215612957576129566125c0565b5b5f6129648482850161274d565b91505092915050565b5f7fff0000000000000000000000000000000000000000000000000000000000000082169050919050565b6129a18161296d565b82525050565b6129b081612726565b82525050565b5f81519050919050565b5f82825260208201905092915050565b5f819050602082019050919050565b6129e881612761565b82525050565b5f6129f983836129df565b60208301905092915050565b5f602082019050919050565b5f612a1b826129b6565b612a2581856129c0565b9350612a30836129d0565b805f5b83811015612a60578151612a4788826129ee565b9750612a5283612a05565b925050600181019050612a33565b5085935050505092915050565b5f60e082019050612a805f83018a612998565b8181036020830152612a9281896126af565b90508181036040830152612aa681886126af565b9050612ab560608301876127d2565b612ac260808301866129a7565b612acf60a08301856128a8565b81810360c0830152612ae18184612a11565b905098975050505050505050565b612af88161290e565b8114612b02575f5ffd5b50565b5f81359050612b1381612aef565b92915050565b5f5f5f5f5f5f5f60e0888a031215612b3457612b336125c0565b5b5f612b418a828b0161274d565b9750506020612b528a828b0161274d565b9650506040612b638a828b01612780565b9550506060612b748a828b01612780565b9450506080612b858a828b01612b05565b93505060a0612b968a828b01612869565b92505060c0612ba78a828b01612869565b91505092959891949750929550565b5f5f60408385031215612bcc57612bcb6125c0565b5b5f612bd98582860161274d565b9250506020612bea8582860161274d565b9150509250929050565b7f4e487b71000000000000000000000000000000000000000000000000000000005f52602260045260245ffd5b5f6002820490506001821680612c3857607f821691505b602082108103612c4b57612c4a612bf4565b5b50919050565b7f4e487b71000000000000000000000000000000000000000000000000000000005f52604160045260245ffd5b5f60c082019050612c915f8301896128a8565b612c9e60208301886129a7565b612cab60408301876129a7565b612cb860608301866127d2565b612cc560808301856127d2565b612cd260a08301846127d2565b979650505050505050565b5f604082019050612cf05f8301856129a7565b612cfd60208301846129a7565b9392505050565b5f606082019050612d175f8301866129a7565b612d2460208301856127d2565b612d3160408301846127d2565b949350505050565b5f602082019050612d4c5f8301846129a7565b92915050565b7f4e487b71000000000000000000000000000000000000000000000000000000005f52601160045260245ffd5b5f612d8982612761565b9150612d9483612761565b9250828201905080821115612dac57612dab612d52565b5b92915050565b7f45524332303a20696e73756666696369656e742062616c616e636500000000005f82015250565b5f612de6601b83612681565b9150612df182612db2565b602082019050919050565b5f6020820190508181035f830152612e1381612dda565b9050919050565b5f604082019050612e2d5f8301856129a7565b612e3a60208301846128a8565b9392505050565b5f60a082019050612e545f8301886128a8565b612e6160208301876128a8565b612e6e60408301866128a8565b612e7b60608301856127d2565b612e8860808301846129a7565b9695505050505050565b5f608082019050612ea55f8301876128a8565b612eb2602083018661291a565b612ebf60408301856128a8565b612ecc60608301846128a8565b95945050505050565b7f4e487b71000000000000000000000000000000000000000000000000000000005f52602160045260245ffdfea264697066735822122068f9cefe8c7a81e3b5e54d9d751906e9c97d8c11a12962700e1bd1c2334b07de64736f6c634300081d0033","linkReferences":{}},"methodIdentifiers":{"ADMIN_ROLE()":"75b238fc","BRIDGE_ROLE()":"b5bfddea","DEFAULT_ADMIN_ROLE()":"a217fddf","DOMAIN_SEPARATOR()":"3644e515","PAUSER_ROLE()":"e63ab1e9","allowance(address,address)":"dd62ed3e","approve(address,uint256)":"095ea7b3","balanceOf(address)":"70a08231","bridgeBurn(address,uint256)":"74f4f547","bridgeMint(address,uint256)":"8c2a993e","decimals()":"313ce567","eip712Domain()":"84b0196e","getRoleAdmin(bytes32)":"248a9ca3","grantBridgeRole(address)":"a5e99b8e","grantPauserRole(address)":"6c11c21c","grantRole(bytes32,address)":"2f2ff15d","hasRole(bytes32,address)":"91d14854","name()":"06fdde03","nonces(address)":"7ecebe00","pause()":"8456cb59","paused()":"5c975abb","permit(address,address,uint256,uint256,uint8,bytes32,bytes32)":"d505accf","renounceRole(bytes32,address)":"36568abe","revokeBridgeRole(address)":"9647fe2f","revokePauserRole(address)":"f865af08","revokeRole(bytes32,address)":"d547741f","supportsInterface(bytes4)":"01ffc9a7","symbol()":"95d89b41","totalSupply()":"18160ddd","transfer(address,uint256)":"a9059cbb","transferFrom(address,address,uint256)":"23b872dd","unpause()":"3f4ba83a"},"id":51}