{"abi":[{"type":"constructor","inputs":[{"name":"_name","type":"string","internalType":"string"},{"name":"_symbol","type":"string","internalType":"string"}],"stateMutability":"nonpayable"},{"type":"fallback","stateMutability":"payable"},{"type":"receive","stateMutability":"payable"},{"type":"function","name":"ADMIN_ROLE","inputs":[],"outputs":[{"name":"","type":"bytes32","internalType":"bytes32"}],"stateMutability":"view"},{"type":"function","name":"BRIDGE_ROLE","inputs":[],"outputs":[{"name":"","type":"bytes32","internalType":"bytes32"}],"stateMutability":"view"},{"type":"function","name":"DEFAULT_ADMIN_ROLE","inputs":[],"outputs":[{"name":"","type":"bytes32","internalType":"bytes32"}],"stateMutability":"view"},{"type":"function","name":"DOMAIN_SEPARATOR","inputs":[],"outputs":[{"name":"","type":"bytes32","internalType":"bytes32"}],"stateMutability":"view"},{"type":"function","name":"PAUSER_ROLE","inputs":[],"outputs":[{"name":"","type":"bytes32","internalType":"bytes32"}],"stateMutability":"view"},{"type":"function","name":"allowance","inputs":[{"name":"owner","type":"address","internalType":"address"},{"name":"spender","type":"address","internalType":"address"}],"outputs":[{"name":"","type":"uint256","internalType":"uint256"}],"stateMutability":"view"},{"type":"function","name":"approve","inputs":[{"name":"spender","type":"address","internalType":"address"},{"name":"value","type":"uint256","internalType":"uint256"}],"outputs":[{"name":"","type":"bool","internalType":"bool"}],"stateMutability":"nonpayable"},{"type":"function","name":"balanceOf","inputs":[{"name":"account","type":"address","internalType":"address"}],"outputs":[{"name":"","type":"uint256","internalType":"uint256"}],"stateMutability":"view"},{"type":"function","name":"bridgeBurn","inputs":[{"name":"from","type":"address","internalType":"address"},{"name":"amount","type":"uint256","internalType":"uint256"}],"outputs":[],"stateMutability":"nonpayable"},{"type":"function","name":"bridgeMint","inputs":[{"name":"to","type":"address","internalType":"address"},{"name":"amount","type":"uint256","internalType":"uint256"}],"outputs":[],"stateMutability":"nonpayable"},{"type":"function","name":"decimals","inputs":[],"outputs":[{"name":"","type":"uint8","internalType":"uint8"}],"stateMutability":"view"},{"type":"function","name":"eip712Domain","inputs":[],"outputs":[{"name":"fields","type":"bytes1","internalType":"bytes1"},{"name":"name","type":"string","internalType":"string"},{"name":"version","type":"string","internalType":"string"},{"name":"chainId","type":"uint256","internalType":"uint256"},{"name":"verifyingContract","type":"address","internalType":"address"},{"name":"salt","type":"bytes32","internalType":"bytes32"},{"name":"extensions","type":"uint256[]","internalType":"uint256[]"}],"stateMutability":"view"},{"type":"function","name":"getRoleAdmin","inputs":[{"name":"role","type":"bytes32","internalType":"bytes32"}],"outputs":[{"name":"","type":"bytes32","internalType":"bytes32"}],"stateMutability":"view"},{"type":"function","name":"grantBridgeRole","inputs":[{"name":"account","type":"address","internalType":"address"}],"outputs":[],"stateMutability":"nonpayable"},{"type":"function","name":"grantPauserRole","inputs":[{"name":"account","type":"address","internalType":"address"}],"outputs":[],"stateMutability":"nonpayable"},{"type":"function","name":"grantRole","inputs":[{"name":"role","type":"bytes32","internalType":"bytes32"},{"name":"account","type":"address","internalType":"address"}],"outputs":[],"stateMutability":"nonpayable"},{"type":"function","name":"hasRole","inputs":[{"name":"role","type":"bytes32","internalType":"bytes32"},{"name":"account","type":"address","internalType":"address"}],"outputs":[{"name":"","type":"bool","internalType":"bool"}],"stateMutability":"view"},{"type":"function","name":"name","inputs":[],"outputs":[{"name":"","type":"string","internalType":"string"}],"stateMutability":"view"},{"type":"function","name":"nonces","inputs":[{"name":"owner","type":"address","internalType":"address"}],"outputs":[{"name":"","type":"uint256","internalType":"uint256"}],"stateMutability":"view"},{"type":"function","name":"pause","inputs":[],"outputs":[],"stateMutability":"nonpayable"},{"type":"function","name":"paused","inputs":[],"outputs":[{"name":"","type":"bool","internalType":"bool"}],"stateMutability":"view"},{"type":"function","name":"permit","inputs":[{"name":"owner","type":"address","internalType":"address"},{"name":"spender","type":"address","internalType":"address"},{"name":"value","type":"uint256","internalType":"uint256"},{"name":"deadline","type":"uint256","internalType":"uint256"},{"name":"v","type":"uint8","internalType":"uint8"},{"name":"r","type":"bytes32","internalType":"bytes32"},{"name":"s","type":"bytes32","internalType":"bytes32"}],"outputs":[],"stateMutability":"nonpayable"},{"type":"function","name":"renounceRole","inputs":[{"name":"role","type":"bytes32","internalType":"bytes32"},{"name":"callerConfirmation","type":"address","internalType":"address"}],"outputs":[],"stateMutability":"nonpayable"},{"type":"function","name":"revokeBridgeRole","inputs":[{"name":"account","type":"address","internalType":"address"}],"outputs":[],"stateMutability":"nonpayable"},{"type":"function","name":"revokePauserRole","inputs":[{"name":"account","type":"address","internalType":"address"}],"outputs":[],"stateMutability":"nonpayable"},{"type":"function","name":"revokeRole","inputs":[{"name":"role","type":"bytes32","internalType":"bytes32"},{"name":"account","type":"address","internalType":"address"}],"outputs":[],"stateMutability":"nonpayable"},{"type":"function","name":"supportsInterface","inputs":[{"name":"interfaceId","type":"bytes4","internalType":"bytes4"}],"outputs":[{"name":"","type":"bool","internalType":"bool"}],"stateMutability":"view"},{"type":"function","name":"symbol","inputs":[],"outputs":[{"name":"","type":"string","internalType":"string"}],"stateMutability":"view"},{"type":"function","name":"totalSupply","inputs":[],"outputs":[{"name":"","type":"uint256","internalType":"uint256"}],"stateMutability":"view"},{"type":"function","name":"transfer","inputs":[{"name":"to","type":"address","internalType":"address"},{"name":"value","type":"uint256","internalType":"uint256"}],"outputs":[{"name":"","type":"bool","internalType":"bool"}],"stateMutability":"nonpayable"},{"type":"function","name":"transferFrom","inputs":[{"name":"from","type":"address","internalType":"address"},{"name":"to","type":"address","internalType":"address"},{"name":"value","type":"uint256","internalType":"uint256"}],"outputs":[{"name":"","type":"bool","internalType":"bool"}],"stateMutability":"nonpayable"},{"type":"function","name":"unpause","inputs":[],"outputs":[],"stateMutability":"nonpayable"},{"type":"event","name":"Approval","inputs":[{"name":"owner","type":"address","indexed":true,"internalType":"address"},{"name":"spender","type":"address","indexed":true,"internalType":"address"},{"name":"value","type":"uint256","indexed":false,"internalType":"uint256"}],"anonymous":false},{"type":"event","name":"EIP712DomainChanged","inputs":[],"anonymous":false},{"type":"event","name":"Paused","inputs":[{"name":"account","type":"address","indexed":false,"internalType":"address"}],"anonymous":false},{"type":"event","name":"RoleAdminChanged","inputs":[{"name":"role","type":"bytes32","indexed":true,"internalType":"bytes32"},{"name":"previousAdminRole","type":"bytes32","indexed":true,"internalType":"bytes32"},{"name":"newAdminRole","type":"bytes32","indexed":true,"internalType":"bytes32"}],"anonymous":false},{"type":"event","name":"RoleGranted","inputs":[{"name":"role","type":"bytes32","indexed":true,"internalType":"bytes32"},{"name":"account","type":"address","indexed":true,"internalType":"address"},{"name":"sender","type":"address","indexed":true,"internalType":"address"}],"anonymous":false},{"type":"event","name":"RoleRevoked","inputs":[{"name":"role","type":"bytes32","indexed":true,"internalType":"bytes32"},{"name":"account","type":"address","indexed":true,"internalType":"address"},{"name":"sender","type":"address","indexed":true,"internalType":"address"}],"anonymous":false},{"type":"event","name":"Transfer","inputs":[{"name":"from","type":"address","indexed":true,"internalType":"address"},{"name":"to","type":"address","indexed":true,"internalType":"address"},{"name":"value","type":"uint256","indexed":false,"internalType":"uint256"}],"anonymous":false},{"type":"event","name":"Unpaused","inputs":[{"name":"account","type":"address","indexed":false,"internalType":"address"}],"anonymous":false},{"type":"error","name":"AccessControlBadConfirmation","inputs":[]},{"type":"error","name":"AccessControlUnauthorizedAccount","inputs":[{"name":"account","type":"address","internalType":"address"},{"name":"neededRole","type":"bytes32","internalType":"bytes32"}]},{"type":"error","name":"CallerIsNotAdmin","inputs":[]},{"type":"error","name":"CallerIsNotBridger","inputs":[]},{"type":"error","name":"CallerIsNotPauser","inputs":[]},{"type":"error","name":"DirectEthTransfersNotSupported","inputs":[]},{"type":"error","name":"ECDSAInvalidSignature","inputs":[]},{"type":"error","name":"ECDSAInvalidSignatureLength","inputs":[{"name":"length","type":"uint256","internalType":"uint256"}]},{"type":"error","name":"ECDSAInvalidSignatureS","inputs":[{"name":"s","type":"bytes32","internalType":"bytes32"}]},{"type":"error","name":"ERC20InsufficientAllowance","inputs":[{"name":"spender","type":"address","internalType":"address"},{"name":"allowance","type":"uint256","internalType":"uint256"},{"name":"needed","type":"uint256","internalType":"uint256"}]},{"type":"error","name":"ERC20InsufficientBalance","inputs":[{"name":"sender","type":"address","internalType":"address"},{"name":"balance","type":"uint256","internalType":"uint256"},{"name":"needed","type":"uint256","internalType":"uint256"}]},{"type":"error","name":"ERC20InvalidApprover","inputs":[{"name":"approver","type":"address","internalType":"address"}]},{"type":"error","name":"ERC20InvalidReceiver","inputs":[{"name":"receiver","type":"address","internalType":"address"}]},{"type":"error","name":"ERC20InvalidSender","inputs":[{"name":"sender","type":"address","internalType":"address"}]},{"type":"error","name":"ERC20InvalidSpender","inputs":[{"name":"spender","type":"address","internalType":"address"}]},{"type":"error","name":"ERC2612ExpiredSignature","inputs":[{"name":"deadline","type":"uint256","internalType":"uint256"}]},{"type":"error","name":"ERC2612InvalidSigner","inputs":[{"name":"signer","type":"address","internalType":"address"},{"name":"owner","type":"address","internalType":"address"}]},{"type":"error","name":"EmptyString","inputs":[]},{"type":"error","name":"EnforcedPause","inputs":[]},{"type":"error","name":"EtherTransferFailed","inputs":[]},{"type":"error","name":"ExpectedPause","inputs":[]},{"type":"error","name":"InsufficientBalance","inputs":[{"name":"available","type":"uint256","internalType":"uint256"},{"name":"required","type":"uint256","internalType":"uint256"}]},{"type":"error","name":"InvalidAccountNonce","inputs":[{"name":"account","type":"address","internalType":"address"},{"name":"currentNonce","type":"uint256","internalType":"uint256"}]},{"type":"error","name":"InvalidShortString","inputs":[]},{"type":"error","name":"ReentrancyGuardReentrantCall","inputs":[]},{"type":"error","name":"StringTooLong","inputs":[{"name":"str","type":"string","internalType":"string"}]},{"type":"error","name":"ZeroAddress","inputs":[]},{"type":"error","name":"ZeroValue","inputs":[]}],"bytecode":{"object":"0x610160604052348015610010575f5ffd5b50604051613ae3380380613ae383398181016040528101906100329190610746565b81806040518060400160405280600181526020017f31000000000000000000000000000000000000000000000000000000000000008152508484816003908161007b91906109cc565b50806004908161008b91906109cc565b5050506100a260058361030760201b90919060201c565b61012081815250506100be60068261030760201b90919060201c565b6101408181525050818051906020012060e08181525050808051906020012061010081815250504660a081815250506100fb61035460201b60201c565b608081815250503073ffffffffffffffffffffffffffffffffffffffff1660c08173ffffffffffffffffffffffffffffffffffffffff168152505050505060016009819055505f82510361017b576040517fecd7b0d100000000000000000000000000000000000000000000000000000000815260040160405180910390fd5b5f8151036101b5576040517fecd7b0d100000000000000000000000000000000000000000000000000000000815260040160405180910390fd5b5f3390506101cb5f5f1b826103ae60201b60201c565b506101fc7fa49807205ce4d355092ef5a8a18f56e8913cf4a201fbe287825b095693c21775826103ae60201b60201c565b5061022d7f65d7a28e3265b37a6474929f336521b332c1681b933f6cb9f3376673440d862a826103ae60201b60201c565b5061025e7f52ba824bfabc2bcfcdf7f0edbb486ebb05e1836c90e78047efeb949990f72e5f826103ae60201b60201c565b506102af7f65d7a28e3265b37a6474929f336521b332c1681b933f6cb9f3376673440d862a7fa49807205ce4d355092ef5a8a18f56e8913cf4a201fbe287825b095693c217756104a460201b60201c565b6102ff7f52ba824bfabc2bcfcdf7f0edbb486ebb05e1836c90e78047efeb949990f72e5f7fa49807205ce4d355092ef5a8a18f56e8913cf4a201fbe287825b095693c217756104a460201b60201c565b505050610c4d565b5f602083511015610328576103218361050360201b60201c565b905061034e565b826103388361056860201b60201c565b5f01908161034691906109cc565b5060ff5f1b90505b92915050565b5f7f8b73c3c69bb8fe3d512ecc4cf759cc79239f7b179b0ffacaa9a75d522b39400f60e051610100514630604051602001610393959493929190610b01565b60405160208183030381529060405280519060200120905090565b5f6103bf838361057160201b60201c565b61049a57600160085f8581526020019081526020015f205f015f8473ffffffffffffffffffffffffffffffffffffffff1673ffffffffffffffffffffffffffffffffffffffff1681526020019081526020015f205f6101000a81548160ff0219169083151502179055506104376105d560201b60201c565b73ffffffffffffffffffffffffffffffffffffffff168273ffffffffffffffffffffffffffffffffffffffff16847f2f8788117e7eff1d82e926ec794901d17c78024a50270940304540a733656f0d60405160405180910390a46001905061049e565b5f90505b92915050565b5f6104b4836105dc60201b60201c565b90508160085f8581526020019081526020015f20600101819055508181847fbd79b86ffe0ab8e8776151514217cd7cacd52c909f66475c3af44e129f0b00ff60405160405180910390a4505050565b5f5f829050601f8151111561054f57826040517f305a27a90000000000000000000000000000000000000000000000000000000081526004016105469190610b9a565b60405180910390fd5b80518161055b90610be7565b5f1c175f1b915050919050565b5f819050919050565b5f60085f8481526020019081526020015f205f015f8373ffffffffffffffffffffffffffffffffffffffff1673ffffffffffffffffffffffffffffffffffffffff1681526020019081526020015f205f9054906101000a900460ff16905092915050565b5f33905090565b5f60085f8381526020019081526020015f20600101549050919050565b5f604051905090565b5f5ffd5b5f5ffd5b5f5ffd5b5f5ffd5b5f601f19601f8301169050919050565b7f4e487b71000000000000000000000000000000000000000000000000000000005f52604160045260245ffd5b61065882610612565b810181811067ffffffffffffffff8211171561067757610676610622565b5b80604052505050565b5f6106896105f9565b9050610695828261064f565b919050565b5f67ffffffffffffffff8211156106b4576106b3610622565b5b6106bd82610612565b9050602081019050919050565b8281835e5f83830152505050565b5f6106ea6106e58461069a565b610680565b9050828152602081018484840111156107065761070561060e565b5b6107118482856106ca565b509392505050565b5f82601f83011261072d5761072c61060a565b5b815161073d8482602086016106d8565b91505092915050565b5f5f6040838503121561075c5761075b610602565b5b5f83015167ffffffffffffffff81111561077957610778610606565b5b61078585828601610719565b925050602083015167ffffffffffffffff8111156107a6576107a5610606565b5b6107b285828601610719565b9150509250929050565b5f81519050919050565b7f4e487b71000000000000000000000000000000000000000000000000000000005f52602260045260245ffd5b5f600282049050600182168061080a57607f821691505b60208210810361081d5761081c6107c6565b5b50919050565b5f819050815f5260205f209050919050565b5f6020601f8301049050919050565b5f82821b905092915050565b5f6008830261087f7fffffffffffffffffffffffffffffffffffffffffffffffffffffffffffffffff82610844565b6108898683610844565b95508019841693508086168417925050509392505050565b5f819050919050565b5f819050919050565b5f6108cd6108c86108c3846108a1565b6108aa565b6108a1565b9050919050565b5f819050919050565b6108e6836108b3565b6108fa6108f2826108d4565b848454610850565b825550505050565b5f5f905090565b610911610902565b61091c8184846108dd565b505050565b5b8181101561093f576109345f82610909565b600181019050610922565b5050565b601f8211156109845761095581610823565b61095e84610835565b8101602085101561096d578190505b61098161097985610835565b830182610921565b50505b505050565b5f82821c905092915050565b5f6109a45f1984600802610989565b1980831691505092915050565b5f6109bc8383610995565b9150826002028217905092915050565b6109d5826107bc565b67ffffffffffffffff8111156109ee576109ed610622565b5b6109f882546107f3565b610a03828285610943565b5f60209050601f831160018114610a34575f8415610a22578287015190505b610a2c85826109b1565b865550610a93565b601f198416610a4286610823565b5f5b82811015610a6957848901518255600182019150602085019450602081019050610a44565b86831015610a865784890151610a82601f891682610995565b8355505b6001600288020188555050505b505050505050565b5f819050919050565b610aad81610a9b565b82525050565b610abc816108a1565b82525050565b5f73ffffffffffffffffffffffffffffffffffffffff82169050919050565b5f610aeb82610ac2565b9050919050565b610afb81610ae1565b82525050565b5f60a082019050610b145f830188610aa4565b610b216020830187610aa4565b610b2e6040830186610aa4565b610b3b6060830185610ab3565b610b486080830184610af2565b9695505050505050565b5f82825260208201905092915050565b5f610b6c826107bc565b610b768185610b52565b9350610b868185602086016106ca565b610b8f81610612565b840191505092915050565b5f6020820190508181035f830152610bb28184610b62565b905092915050565b5f81519050919050565b5f819050602082019050919050565b5f610bde8251610a9b565b80915050919050565b5f610bf182610bba565b82610bfb84610bc4565b9050610c0681610bd3565b92506020821015610c4657610c417fffffffffffffffffffffffffffffffffffffffffffffffffffffffffffffffff83602003600802610844565b831692505b5050919050565b60805160a05160c05160e051610100516101205161014051612e45610c9e5f395f611ae601525f611aab01525f6120af01525f61208e01525f61173c01525f61179201525f6117bb0152612e455ff3fe6080604052600436106101e6575f3560e01c80637ecebe0011610101578063a5e99b8e11610094578063d547741f11610063578063d547741f14610745578063dd62ed3e1461076d578063e63ab1e9146107a9578063f865af08146107d35761021d565b8063a5e99b8e1461068f578063a9059cbb146106b7578063b5bfddea146106f3578063d505accf1461071d5761021d565b806391d14854116100d057806391d14854146105d757806395d89b41146106135780639647fe2f1461063d578063a217fddf146106655761021d565b80637ecebe001461052d5780638456cb591461056957806384b0196e1461057f5780638c2a993e146105af5761021d565b80633644e515116101795780636c11c21c116101485780636c11c21c1461047757806370a082311461049f57806374f4f547146104db57806375b238fc146105035761021d565b80633644e515146103e557806336568abe1461040f5780633f4ba83a146104375780635c975abb1461044d5761021d565b806323b872dd116101b557806323b872dd1461031b578063248a9ca3146103575780632f2ff15d14610393578063313ce567146103bb5761021d565b806301ffc9a71461024f57806306fdde031461028b578063095ea7b3146102b557806318160ddd146102f15761021d565b3661021d576040517f94e44f7600000000000000000000000000000000000000000000000000000000815260040160405180910390fd5b6040517f94e44f7600000000000000000000000000000000000000000000000000000000815260040160405180910390fd5b34801561025a575f5ffd5b506102756004803603810190610270919061258e565b6107fb565b60405161028291906125d3565b60405180910390f35b348015610296575f5ffd5b5061029f610874565b6040516102ac919061265c565b60405180910390f35b3480156102c0575f5ffd5b506102db60048036038101906102d69190612709565b610904565b6040516102e891906125d3565b60405180910390f35b3480156102fc575f5ffd5b50610305610926565b6040516103129190612756565b60405180910390f35b348015610326575f5ffd5b50610341600480360381019061033c919061276f565b61092f565b60405161034e91906125d3565b60405180910390f35b348015610362575f5ffd5b5061037d600480360381019061037891906127f2565b61095d565b60405161038a919061282c565b60405180910390f35b34801561039e575f5ffd5b506103b960048036038101906103b49190612845565b61097a565b005b3480156103c6575f5ffd5b506103cf61099c565b6040516103dc919061289e565b60405180910390f35b3480156103f0575f5ffd5b506103f96109a4565b604051610406919061282c565b60405180910390f35b34801561041a575f5ffd5b5061043560048036038101906104309190612845565b6109b2565b005b348015610442575f5ffd5b5061044b610a2d565b005b348015610458575f5ffd5b50610461610a97565b60405161046e91906125d3565b60405180910390f35b348015610482575f5ffd5b5061049d600480360381019061049891906128b7565b610aac565b005b3480156104aa575f5ffd5b506104c560048036038101906104c091906128b7565b610b9e565b6040516104d29190612756565b60405180910390f35b3480156104e6575f5ffd5b5061050160048036038101906104fc9190612709565b610be3565b005b34801561050e575f5ffd5b50610517610c59565b604051610524919061282c565b60405180910390f35b348015610538575f5ffd5b50610553600480360381019061054e91906128b7565b610c7d565b6040516105609190612756565b60405180910390f35b348015610574575f5ffd5b5061057d610c8e565b005b34801561058a575f5ffd5b50610593610cf8565b6040516105a697969594939291906129e2565b60405180910390f35b3480156105ba575f5ffd5b506105d560048036038101906105d09190612709565b610d9d565b005b3480156105e2575f5ffd5b506105fd60048036038101906105f89190612845565b610e13565b60405161060a91906125d3565b60405180910390f35b34801561061e575f5ffd5b50610627610e77565b604051610634919061265c565b60405180910390f35b348015610648575f5ffd5b50610663600480360381019061065e91906128b7565b610f07565b005b348015610670575f5ffd5b50610679610ff9565b604051610686919061282c565b60405180910390f35b34801561069a575f5ffd5b506106b560048036038101906106b091906128b7565b610fff565b005b3480156106c2575f5ffd5b506106dd60048036038101906106d89190612709565b6110f1565b6040516106ea91906125d3565b60405180910390f35b3480156106fe575f5ffd5b50610707611113565b604051610714919061282c565b60405180910390f35b348015610728575f5ffd5b50610743600480360381019061073e9190612a8e565b611137565b005b348015610750575f5ffd5b5061076b60048036038101906107669190612845565b61127c565b005b348015610778575f5ffd5b50610793600480360381019061078e9190612b2b565b61129e565b6040516107a09190612756565b60405180910390f35b3480156107b4575f5ffd5b506107bd611320565b6040516107ca919061282c565b60405180910390f35b3480156107de575f5ffd5b506107f960048036038101906107f491906128b7565b611344565b005b5f7f7965db0b000000000000000000000000000000000000000000000000000000007bffffffffffffffffffffffffffffffffffffffffffffffffffffffff1916827bffffffffffffffffffffffffffffffffffffffffffffffffffffffff1916148061086d575061086c82611436565b5b9050919050565b60606003805461088390612b96565b80601f01602080910402602001604051908101604052809291908181526020018280546108af90612b96565b80156108fa5780601f106108d1576101008083540402835291602001916108fa565b820191905f5260205f20905b8154815290600101906020018083116108dd57829003601f168201915b5050505050905090565b5f5f61090e61149f565b905061091b8185856114a6565b600191505092915050565b5f600254905090565b5f5f61093961149f565b90506109468582856114b8565b61095185858561154b565b60019150509392505050565b5f60085f8381526020019081526020015f20600101549050919050565b6109838261095d565b61098c8161163b565b610996838361164f565b50505050565b5f6012905090565b5f6109ad611739565b905090565b6109ba61149f565b73ffffffffffffffffffffffffffffffffffffffff168173ffffffffffffffffffffffffffffffffffffffff1614610a1e576040517f6697b23200000000000000000000000000000000000000000000000000000000815260040160405180910390fd5b610a2882826117ef565b505050565b610a577f65d7a28e3265b37a6474929f336521b332c1681b933f6cb9f3376673440d862a33610e13565b610a8d576040517fdaeefd6500000000000000000000000000000000000000000000000000000000815260040160405180910390fd5b610a956118d9565b565b5f600a5f9054906101000a900460ff16905090565b610ad67fa49807205ce4d355092ef5a8a18f56e8913cf4a201fbe287825b095693c2177533610e13565b610b0c576040517f8dfa73db00000000000000000000000000000000000000000000000000000000815260040160405180910390fd5b5f73ffffffffffffffffffffffffffffffffffffffff168173ffffffffffffffffffffffffffffffffffffffff1603610b71576040517fd92e233d00000000000000000000000000000000000000000000000000000000815260040160405180910390fd5b610b9b7f65d7a28e3265b37a6474929f336521b332c1681b933f6cb9f3376673440d862a8261097a565b50565b5f5f5f8373ffffffffffffffffffffffffffffffffffffffff1673ffffffffffffffffffffffffffffffffffffffff1681526020019081526020015f20549050919050565b610c0d7f52ba824bfabc2bcfcdf7f0edbb486ebb05e1836c90e78047efeb949990f72e5f33610e13565b610c43576040517f5c8970cd00000000000000000000000000000000000000000000000000000000815260040160405180910390fd5b610c4b61193a565b610c55828261197b565b5050565b7fa49807205ce4d355092ef5a8a18f56e8913cf4a201fbe287825b095693c2177581565b5f610c87826119fa565b9050919050565b610cb87f65d7a28e3265b37a6474929f336521b332c1681b933f6cb9f3376673440d862a33610e13565b610cee576040517fdaeefd6500000000000000000000000000000000000000000000000000000000815260040160405180910390fd5b610cf6611a40565b565b5f6060805f5f5f6060610d09611aa2565b610d11611add565b46305f5f1b5f67ffffffffffffffff811115610d3057610d2f612bc6565b5b604051908082528060200260200182016040528015610d5e5781602001602082028036833780820191505090505b507f0f00000000000000000000000000000000000000000000000000000000000000959493929190965096509650965096509650965090919293949596565b610dc77f52ba824bfabc2bcfcdf7f0edbb486ebb05e1836c90e78047efeb949990f72e5f33610e13565b610dfd576040517f5c8970cd00000000000000000000000000000000000000000000000000000000815260040160405180910390fd5b610e0561193a565b610e0f8282611b18565b5050565b5f60085f8481526020019081526020015f205f015f8373ffffffffffffffffffffffffffffffffffffffff1673ffffffffffffffffffffffffffffffffffffffff1681526020019081526020015f205f9054906101000a900460ff16905092915050565b606060048054610e8690612b96565b80601f0160208091040260200160405190810160405280929190818152602001828054610eb290612b96565b8015610efd5780601f10610ed457610100808354040283529160200191610efd565b820191905f5260205f20905b815481529060010190602001808311610ee057829003601f168201915b5050505050905090565b610f317fa49807205ce4d355092ef5a8a18f56e8913cf4a201fbe287825b095693c2177533610e13565b610f67576040517f8dfa73db00000000000000000000000000000000000000000000000000000000815260040160405180910390fd5b5f73ffffffffffffffffffffffffffffffffffffffff168173ffffffffffffffffffffffffffffffffffffffff1603610fcc576040517fd92e233d00000000000000000000000000000000000000000000000000000000815260040160405180910390fd5b610ff67f52ba824bfabc2bcfcdf7f0edbb486ebb05e1836c90e78047efeb949990f72e5f8261127c565b50565b5f5f1b81565b6110297fa49807205ce4d355092ef5a8a18f56e8913cf4a201fbe287825b095693c2177533610e13565b61105f576040517f8dfa73db00000000000000000000000000000000000000000000000000000000815260040160405180910390fd5b5f73ffffffffffffffffffffffffffffffffffffffff168173ffffffffffffffffffffffffffffffffffffffff16036110c4576040517fd92e233d00000000000000000000000000000000000000000000000000000000815260040160405180910390fd5b6110ee7f52ba824bfabc2bcfcdf7f0edbb486ebb05e1836c90e78047efeb949990f72e5f8261097a565b50565b5f5f6110fb61149f565b905061110881858561154b565b600191505092915050565b7f52ba824bfabc2bcfcdf7f0edbb486ebb05e1836c90e78047efeb949990f72e5f81565b8342111561117c57836040517f627913020000000000000000000000000000000000000000000000000000000081526004016111739190612756565b60405180910390fd5b5f7f6e71edae12b1b97f4d1f60370fef10105fa2faae0126114a169c64845d6126c98888886111aa8c611b97565b896040516020016111c096959493929190612bf3565b6040516020818303038152906040528051906020012090505f6111e282611bea565b90505f6111f182878787611c03565b90508973ffffffffffffffffffffffffffffffffffffffff168173ffffffffffffffffffffffffffffffffffffffff161461126557808a6040517f4b800e4600000000000000000000000000000000000000000000000000000000815260040161125c929190612c52565b60405180910390fd5b6112708a8a8a6114a6565b50505050505050505050565b6112858261095d565b61128e8161163b565b61129883836117ef565b50505050565b5f60015f8473ffffffffffffffffffffffffffffffffffffffff1673ffffffffffffffffffffffffffffffffffffffff1681526020019081526020015f205f8373ffffffffffffffffffffffffffffffffffffffff1673ffffffffffffffffffffffffffffffffffffffff1681526020019081526020015f2054905092915050565b7f65d7a28e3265b37a6474929f336521b332c1681b933f6cb9f3376673440d862a81565b61136e7fa49807205ce4d355092ef5a8a18f56e8913cf4a201fbe287825b095693c2177533610e13565b6113a4576040517f8dfa73db00000000000000000000000000000000000000000000000000000000815260040160405180910390fd5b5f73ffffffffffffffffffffffffffffffffffffffff168173ffffffffffffffffffffffffffffffffffffffff1603611409576040517fd92e233d00000000000000000000000000000000000000000000000000000000815260040160405180910390fd5b6114337f65d7a28e3265b37a6474929f336521b332c1681b933f6cb9f3376673440d862a8261127c565b50565b5f7f01ffc9a7000000000000000000000000000000000000000000000000000000007bffffffffffffffffffffffffffffffffffffffffffffffffffffffff1916827bffffffffffffffffffffffffffffffffffffffffffffffffffffffff1916149050919050565b5f33905090565b6114b38383836001611c31565b505050565b5f6114c3848461129e565b90507fffffffffffffffffffffffffffffffffffffffffffffffffffffffffffffffff8110156115455781811015611536578281836040517ffb8f41b200000000000000000000000000000000000000000000000000000000815260040161152d93929190612c79565b60405180910390fd5b61154484848484035f611c31565b5b50505050565b5f73ffffffffffffffffffffffffffffffffffffffff168373ffffffffffffffffffffffffffffffffffffffff16036115bb575f6040517f96c6fd1e0000000000000000000000000000000000000000000000000000000081526004016115b29190612cae565b60405180910390fd5b5f73ffffffffffffffffffffffffffffffffffffffff168273ffffffffffffffffffffffffffffffffffffffff160361162b575f6040517fec442f050000000000000000000000000000000000000000000000000000000081526004016116229190612cae565b60405180910390fd5b611636838383611e00565b505050565b61164c8161164761149f565b612019565b50565b5f61165a8383610e13565b61172f57600160085f8581526020019081526020015f205f015f8473ffffffffffffffffffffffffffffffffffffffff1673ffffffffffffffffffffffffffffffffffffffff1681526020019081526020015f205f6101000a81548160ff0219169083151502179055506116cc61149f565b73ffffffffffffffffffffffffffffffffffffffff168273ffffffffffffffffffffffffffffffffffffffff16847f2f8788117e7eff1d82e926ec794901d17c78024a50270940304540a733656f0d60405160405180910390a460019050611733565b5f90505b92915050565b5f7f000000000000000000000000000000000000000000000000000000000000000073ffffffffffffffffffffffffffffffffffffffff163073ffffffffffffffffffffffffffffffffffffffff161480156117b457507f000000000000000000000000000000000000000000000000000000000000000046145b156117e1577f000000000000000000000000000000000000000000000000000000000000000090506117ec565b6117e961206a565b90505b90565b5f6117fa8383610e13565b156118cf575f60085f8581526020019081526020015f205f015f8473ffffffffffffffffffffffffffffffffffffffff1673ffffffffffffffffffffffffffffffffffffffff1681526020019081526020015f205f6101000a81548160ff02191690831515021790555061186c61149f565b73ffffffffffffffffffffffffffffffffffffffff168273ffffffffffffffffffffffffffffffffffffffff16847ff6391f5c32d9c69d2a47ea670b442974b53935d1edc7fd64eb21e047a839171b60405160405180910390a4600190506118d3565b5f90505b92915050565b6118e16120ff565b5f600a5f6101000a81548160ff0219169083151502179055507f5db9ee0a495bf2e6ff9c91a7834c1ba4fdd244a5e8aa4e537bd38aeae4b073aa61192361149f565b6040516119309190612cae565b60405180910390a1565b611942610a97565b15611979576040517fd93c066500000000000000000000000000000000000000000000000000000000815260040160405180910390fd5b565b5f73ffffffffffffffffffffffffffffffffffffffff168273ffffffffffffffffffffffffffffffffffffffff16036119eb575f6040517f96c6fd1e0000000000000000000000000000000000000000000000000000000081526004016119e29190612cae565b60405180910390fd5b6119f6825f83611e00565b5050565b5f60075f8373ffffffffffffffffffffffffffffffffffffffff1673ffffffffffffffffffffffffffffffffffffffff1681526020019081526020015f20549050919050565b611a4861193a565b6001600a5f6101000a81548160ff0219169083151502179055507f62e78cea01bee320cd4e420270b5ea74000d11b0c9f74754ebdbfc544b05a258611a8b61149f565b604051611a989190612cae565b60405180910390a1565b6060611ad860057f000000000000000000000000000000000000000000000000000000000000000061213f90919063ffffffff16565b905090565b6060611b1360067f000000000000000000000000000000000000000000000000000000000000000061213f90919063ffffffff16565b905090565b5f73ffffffffffffffffffffffffffffffffffffffff168273ffffffffffffffffffffffffffffffffffffffff1603611b88575f6040517fec442f05000000000000000000000000000000000000000000000000000000008152600401611b7f9190612cae565b60405180910390fd5b611b935f8383611e00565b5050565b5f60075f8373ffffffffffffffffffffffffffffffffffffffff1673ffffffffffffffffffffffffffffffffffffffff1681526020019081526020015f205f815480929190600101919050559050919050565b5f611bfc611bf6611739565b836121ec565b9050919050565b5f5f5f5f611c138888888861222c565b925092509250611c238282612313565b829350505050949350505050565b5f73ffffffffffffffffffffffffffffffffffffffff168473ffffffffffffffffffffffffffffffffffffffff1603611ca1575f6040517fe602df05000000000000000000000000000000000000000000000000000000008152600401611c989190612cae565b60405180910390fd5b5f73ffffffffffffffffffffffffffffffffffffffff168373ffffffffffffffffffffffffffffffffffffffff1603611d11575f6040517f94280d62000000000000000000000000000000000000000000000000000000008152600401611d089190612cae565b60405180910390fd5b8160015f8673ffffffffffffffffffffffffffffffffffffffff1673ffffffffffffffffffffffffffffffffffffffff1681526020019081526020015f205f8573ffffffffffffffffffffffffffffffffffffffff1673ffffffffffffffffffffffffffffffffffffffff1681526020019081526020015f20819055508015611dfa578273ffffffffffffffffffffffffffffffffffffffff168473ffffffffffffffffffffffffffffffffffffffff167f8c5be1e5ebec7d5bd14f71427d1e84f3dd0314c0f7b2291e5b200ac8c7c3b92584604051611df19190612756565b60405180910390a35b50505050565b5f73ffffffffffffffffffffffffffffffffffffffff168373ffffffffffffffffffffffffffffffffffffffff1603611e50578060025f828254611e449190612cf4565b92505081905550611f1e565b5f5f5f8573ffffffffffffffffffffffffffffffffffffffff1673ffffffffffffffffffffffffffffffffffffffff1681526020019081526020015f2054905081811015611ed9578381836040517fe450d38c000000000000000000000000000000000000000000000000000000008152600401611ed093929190612c79565b60405180910390fd5b8181035f5f8673ffffffffffffffffffffffffffffffffffffffff1673ffffffffffffffffffffffffffffffffffffffff1681526020019081526020015f2081905550505b5f73ffffffffffffffffffffffffffffffffffffffff168273ffffffffffffffffffffffffffffffffffffffff1603611f65578060025f8282540392505081905550611faf565b805f5f8473ffffffffffffffffffffffffffffffffffffffff1673ffffffffffffffffffffffffffffffffffffffff1681526020019081526020015f205f82825401925050819055505b8173ffffffffffffffffffffffffffffffffffffffff168373ffffffffffffffffffffffffffffffffffffffff167fddf252ad1be2c89b69c2b068fc378daa952ba7f163c4a11628f55a4df523b3ef8360405161200c9190612756565b60405180910390a3505050565b6120238282610e13565b6120665780826040517fe2517d3f00000000000000000000000000000000000000000000000000000000815260040161205d929190612d27565b60405180910390fd5b5050565b5f7f8b73c3c69bb8fe3d512ecc4cf759cc79239f7b179b0ffacaa9a75d522b39400f7f00000000000000000000000000000000000000000000000000000000000000007f000000000000000000000000000000000000000000000000000000000000000046306040516020016120e4959493929190612d4e565b60405160208183030381529060405280519060200120905090565b612107610a97565b61213d576040517f8dfc202b00000000000000000000000000000000000000000000000000000000815260040160405180910390fd5b565b606060ff5f1b831461215b5761215483612475565b90506121e6565b81805461216790612b96565b80601f016020809104026020016040519081016040528092919081815260200182805461219390612b96565b80156121de5780601f106121b5576101008083540402835291602001916121de565b820191905f5260205f20905b8154815290600101906020018083116121c157829003601f168201915b505050505090505b92915050565b5f6040517f190100000000000000000000000000000000000000000000000000000000000081528360028201528260228201526042812091505092915050565b5f5f5f7f7fffffffffffffffffffffffffffffff5d576e7357a4501ddfe92f46681b20a0845f1c1115612268575f600385925092509250612309565b5f6001888888886040515f815260200160405260405161228b9493929190612d9f565b6020604051602081039080840390855afa1580156122ab573d5f5f3e3d5ffd5b5050506020604051035190505f73ffffffffffffffffffffffffffffffffffffffff168173ffffffffffffffffffffffffffffffffffffffff16036122fc575f60015f5f1b93509350935050612309565b805f5f5f1b935093509350505b9450945094915050565b5f600381111561232657612325612de2565b5b82600381111561233957612338612de2565b5b0315612471576001600381111561235357612352612de2565b5b82600381111561236657612365612de2565b5b0361239d576040517ff645eedf00000000000000000000000000000000000000000000000000000000815260040160405180910390fd5b600260038111156123b1576123b0612de2565b5b8260038111156123c4576123c3612de2565b5b0361240857805f1c6040517ffce698f70000000000000000000000000000000000000000000000000000000081526004016123ff9190612756565b60405180910390fd5b60038081111561241b5761241a612de2565b5b82600381111561242e5761242d612de2565b5b0361247057806040517fd78bce0c000000000000000000000000000000000000000000000000000000008152600401612467919061282c565b60405180910390fd5b5b5050565b60605f612481836124e7565b90505f602067ffffffffffffffff81111561249f5761249e612bc6565b5b6040519080825280601f01601f1916602001820160405280156124d15781602001600182028036833780820191505090505b5090508181528360208201528092505050919050565b5f5f60ff835f1c169050601f81111561252c576040517fb3512b0c00000000000000000000000000000000000000000000000000000000815260040160405180910390fd5b80915050919050565b5f5ffd5b5f7fffffffff0000000000000000000000000000000000000000000000000000000082169050919050565b61256d81612539565b8114612577575f5ffd5b50565b5f8135905061258881612564565b92915050565b5f602082840312156125a3576125a2612535565b5b5f6125b08482850161257a565b91505092915050565b5f8115159050919050565b6125cd816125b9565b82525050565b5f6020820190506125e65f8301846125c4565b92915050565b5f81519050919050565b5f82825260208201905092915050565b8281835e5f83830152505050565b5f601f19601f8301169050919050565b5f61262e826125ec565b61263881856125f6565b9350612648818560208601612606565b61265181612614565b840191505092915050565b5f6020820190508181035f8301526126748184612624565b905092915050565b5f73ffffffffffffffffffffffffffffffffffffffff82169050919050565b5f6126a58261267c565b9050919050565b6126b58161269b565b81146126bf575f5ffd5b50565b5f813590506126d0816126ac565b92915050565b5f819050919050565b6126e8816126d6565b81146126f2575f5ffd5b50565b5f81359050612703816126df565b92915050565b5f5f6040838503121561271f5761271e612535565b5b5f61272c858286016126c2565b925050602061273d858286016126f5565b9150509250929050565b612750816126d6565b82525050565b5f6020820190506127695f830184612747565b92915050565b5f5f5f6060848603121561278657612785612535565b5b5f612793868287016126c2565b93505060206127a4868287016126c2565b92505060406127b5868287016126f5565b9150509250925092565b5f819050919050565b6127d1816127bf565b81146127db575f5ffd5b50565b5f813590506127ec816127c8565b92915050565b5f6020828403121561280757612806612535565b5b5f612814848285016127de565b91505092915050565b612826816127bf565b82525050565b5f60208201905061283f5f83018461281d565b92915050565b5f5f6040838503121561285b5761285a612535565b5b5f612868858286016127de565b9250506020612879858286016126c2565b9150509250929050565b5f60ff82169050919050565b61289881612883565b82525050565b5f6020820190506128b15f83018461288f565b92915050565b5f602082840312156128cc576128cb612535565b5b5f6128d9848285016126c2565b91505092915050565b5f7fff0000000000000000000000000000000000000000000000000000000000000082169050919050565b612916816128e2565b82525050565b6129258161269b565b82525050565b5f81519050919050565b5f82825260208201905092915050565b5f819050602082019050919050565b61295d816126d6565b82525050565b5f61296e8383612954565b60208301905092915050565b5f602082019050919050565b5f6129908261292b565b61299a8185612935565b93506129a583612945565b805f5b838110156129d55781516129bc8882612963565b97506129c78361297a565b9250506001810190506129a8565b5085935050505092915050565b5f60e0820190506129f55f83018a61290d565b8181036020830152612a078189612624565b90508181036040830152612a1b8188612624565b9050612a2a6060830187612747565b612a37608083018661291c565b612a4460a083018561281d565b81810360c0830152612a568184612986565b905098975050505050505050565b612a6d81612883565b8114612a77575f5ffd5b50565b5f81359050612a8881612a64565b92915050565b5f5f5f5f5f5f5f60e0888a031215612aa957612aa8612535565b5b5f612ab68a828b016126c2565b9750506020612ac78a828b016126c2565b9650506040612ad88a828b016126f5565b9550506060612ae98a828b016126f5565b9450506080612afa8a828b01612a7a565b93505060a0612b0b8a828b016127de565b92505060c0612b1c8a828b016127de565b91505092959891949750929550565b5f5f60408385031215612b4157612b40612535565b5b5f612b4e858286016126c2565b9250506020612b5f858286016126c2565b9150509250929050565b7f4e487b71000000000000000000000000000000000000000000000000000000005f52602260045260245ffd5b5f6002820490506001821680612bad57607f821691505b602082108103612bc057612bbf612b69565b5b50919050565b7f4e487b71000000000000000000000000000000000000000000000000000000005f52604160045260245ffd5b5f60c082019050612c065f83018961281d565b612c13602083018861291c565b612c20604083018761291c565b612c2d6060830186612747565b612c3a6080830185612747565b612c4760a0830184612747565b979650505050505050565b5f604082019050612c655f83018561291c565b612c72602083018461291c565b9392505050565b5f606082019050612c8c5f83018661291c565b612c996020830185612747565b612ca66040830184612747565b949350505050565b5f602082019050612cc15f83018461291c565b92915050565b7f4e487b71000000000000000000000000000000000000000000000000000000005f52601160045260245ffd5b5f612cfe826126d6565b9150612d09836126d6565b9250828201905080821115612d2157612d20612cc7565b5b92915050565b5f604082019050612d3a5f83018561291c565b612d47602083018461281d565b9392505050565b5f60a082019050612d615f83018861281d565b612d6e602083018761281d565b612d7b604083018661281d565b612d886060830185612747565b612d95608083018461291c565b9695505050505050565b5f608082019050612db25f83018761281d565b612dbf602083018661288f565b612dcc604083018561281d565b612dd9606083018461281d565b95945050505050565b7f4e487b71000000000000000000000000000000000000000000000000000000005f52602160045260245ffdfea2646970667358221220a14fc447ac764b9adffc52ac01160b31345e40304dd869d09ddc8f992bf4108564736f6c634300081c0033","linkReferences":{}},"methodIdentifiers":{"ADMIN_ROLE()":"75b238fc","BRIDGE_ROLE()":"b5bfddea","DEFAULT_ADMIN_ROLE()":"a217fddf","DOMAIN_SEPARATOR()":"3644e515","PAUSER_ROLE()":"e63ab1e9","allowance(address,address)":"dd62ed3e","approve(address,uint256)":"095ea7b3","balanceOf(address)":"70a08231","bridgeBurn(address,uint256)":"74f4f547","bridgeMint(address,uint256)":"8c2a993e","decimals()":"313ce567","eip712Domain()":"84b0196e","getRoleAdmin(bytes32)":"248a9ca3","grantBridgeRole(address)":"a5e99b8e","grantPauserRole(address)":"6c11c21c","grantRole(bytes32,address)":"2f2ff15d","hasRole(bytes32,address)":"91d14854","name()":"06fdde03","nonces(address)":"7ecebe00","pause()":"8456cb59","paused()":"5c975abb","permit(address,address,uint256,uint256,uint8,bytes32,bytes32)":"d505accf","renounceRole(bytes32,address)":"36568abe","revokeBridgeRole(address)":"9647fe2f","revokePauserRole(address)":"f865af08","revokeRole(bytes32,address)":"d547741f","supportsInterface(bytes4)":"01ffc9a7","symbol()":"95d89b41","totalSupply()":"18160ddd","transfer(address,uint256)":"a9059cbb","transferFrom(address,address,uint256)":"23b872dd","unpause()":"3f4ba83a"},"id":51}